:020000040800F2
:10000000B032002045010008C5280008C7280008B4
:10001000CB280008CF280008D328000800000000E3
:10002000000000000000000000000000D7280008C9
:10003000D928000800000000DB280008DD2800089F
:100040005F0100085F0100085F0100085F01000810
:100050005F0100085F0100085F0100085F01000800
:100060005F0100084D3C00085F0100085F010008C7
:100070005F0100085F0100085F0100085F010008E0
:100080005F0100085F0100085F0100085F010008D0
:100090005F0100085F0100085F0100085F010008C0
:1000A0005F0100085F0100085F0100085F010008B0
:1000B0005F0100086F3600085F0100085F0100085B
:1000C0005F0100085F0100085F0100085F01000890
:1000D0005F0100088D6D00085F0100085F010008E6
:1000E000133C00085F0100085F0100085F01000881
:1000F0005F0100085F0100085F0100085F01000860
:100100005F0100085F0100085F0100085F0100084F
:100110005F010008B56C00085F0100085F0100087E
:100120005F0100085F0100085F0100085F0100082F
:10013000DFF80CD00AF0A4F8004800475D79000809
:10014000B03200200648804706480047FEE7FEE739
:10015000FEE7FEE7FEE7FEE7FEE7FEE7FEE7FEE777
:10016000C527000831010008DF48006840F00100A1
:10017000DD49086008464068DC490840DA494860C3
:1001800008460068DA490840D74908600846006810
:1001900020F4802008600846406820F4FE00486093
:1001A0004FF41F0088607047CF49096821F48031FF
:1001B000CD4A11601146096821F480211160B0F523
:1001C000803F03D0B0F5802F0ED106E0C649096804
:1001D00041F48031C44A116007E0C349096841F421
:1001E000A021C14A116000E000BF00BF704710B5F8
:1001F00001460022002300204A11012A02D1BA4CF4
:10020000236806E0022A02D1B74C236A01E0B64C0B
:10021000636A01F01F02012494401C400CB10120CC
:1002200000E0002010BD38B500200090002400251B
:1002300000BF3120FFF7DBFF05460098401C00900F
:100240000098B0F5A06F01D0002DF2D03120FFF75B
:10025000CEFF08B1012400E00024204638BD01464D
:100260000020A14A106820F0F80040EAC1001060A8
:100270007047A04908607047024600209A4B5868B2
:1002800020F47C1042EA01031843974B58607047F2
:1002900098490866704701460020934A506820F04C
:1002A00003000843506070478F48406800F00C001E
:1002B0007047014600208C4A506820F0F000084347
:1002C0005060704701460020874A506820F4E06083
:1002D00008435060704701460020834A506820F46C
:1002E000605040EAC1005060704729B17E4A527A9E
:1002F00002437D4B5A7204E07B4A527A82437A4B26
:100300005A7270477B49D831086070470146002017
:10031000754A506820F440400843506070470021FF
:10032000714A20321170704A82F82010012802D0E0
:1003300004280AD104E001216B4A2032117005E043
:100340000521694A2032117000E000BF00BF7047EC
:100350006949086070476449096A0143624A116249
:100360007047654944390860704730B50021002264
:10037000002400235C4D6D6805F00C0121B10429B7
:1003800005D0082923D105E05C4D056022E05B4DD6
:1003900005601FE0544D6D6805F47012524D6D6894
:1003A00005F48034022505EB92421CB9544D5543A7
:1003B00005600BE04C4D6D6805F400351DB1504DE6
:1003C0005543056002E04D4D5543056002E04B4D3D
:1003D000056000BF00BF444D6D6805F0F0010909DC
:1003E000484D6B5C0568DD4045603F4D6D6805F428
:1003F000E061090A434D6B5C4568DD4085603A4D1C
:100400006D6805F46051C90A3E4D6B5C4568DD407E
:10041000C560354D6D6805F44041890B3A4D6B5C04
:10042000C568B5FBF3F5056130BD29B12E4A5269A7
:1004300002432D4B5A6104E02B4A526982432A4BF6
:100440005A61704729B1284A92690243264B9A6142
:1004500004E0254A92698243234B9A61704729B18F
:10046000214AD2690243204BDA6104E01E4AD26974
:1004700082431D4BDA61704729B11B4AD26802439F
:10048000194BDA6004E0184AD2688243164BDA60EE
:10049000704729B1144A12690243134B1A6104E0F0
:1004A000114A12698243104B1A6170471249403950
:1004B000086070470F49C86470470B49C87170479E
:1004C0000948406A40F08070074948627047014619
:1004D0000020054A92680A400AB1012000E000208D
:1004E0007047014988727047001002400000FFF811
:1004F000FFFFF6FE000042428004424200127A00F2
:1005000000093D00000000201000002010B5044646
:10051000CC48844208D101210420FFF7ADFF00211F
:100520000420FFF7A9FF46E0C748844208D1012113
:100530000820FFF7A1FF00210820FFF79DFF3AE008
:10054000C248844208D101211020FFF795FF002105
:100550001020FFF791FF2EE0BD48844208D1012111
:100560002020FFF789FF00212020FFF785FF22E0F0
:10057000B848844208D101214020FFF77DFF0021C7
:100580004020FFF779FF16E0B348844208D10121EB
:100590008020FFF771FF00218020FFF76DFF0AE048
:1005A000AE48844207D101218015FFF765FF002185
:1005B000A015FFF761FF10BD10B501210846FFF738
:1005C0005BFF00210120FFF757FF10BD2DE9F0412F
:1005D000024600250026002000230024002791F871
:1005E00003C00CF00F0591F803C00CF0100CBCF127
:1005F000000F03D091F802C04CEA050591F800C045
:10060000BCF1000F31D0146800202BE04FF0010C3A
:100610000CFA00F3B1F800C00CEA03069E4220D1A8
:1006200083004FF00F0C0CFA03F7BC4305FA03FCF0
:100630004CEA040491F803C0BCF1280F06D14FF036
:10064000010C0CFA00FCC2F814C00AE091F803C0D7
:10065000BCF1480F05D14FF0010C0CFA00FCC2F8B8
:1006600010C0401C0828D1D31460B1F800C0BCF100
:10067000FF0F34DD546800202EE000F1080C4FF02D
:10068000010808FA0CF3B1F800C00CEA03069E4218
:1006900021D183004FF00F0C0CFA03F7BC4305FA8D
:1006A00003FC4CEA040491F803C0BCF1280F05D107
:1006B00000F1080C08FA0CF8C2F8148091F803C095
:1006C000BCF1480F07D100F1080C4FF0010808FAFF
:1006D0000CF8C2F81080401C0828CED35460BDE846
:1006E000F0814FF6FF710180022181700421C170F9
:1006F00070470246002093680B400BB1012000E0D8
:10070000002070470146886880B27047024600208A
:10071000D3680B400BB1012000E000207047014678
:10072000C86880B2704701617047416170470AB183
:10073000016100E041617047C16070474FF4803251
:100740000A438261816182618269826970470246DF
:100750000020434B18684FF68073184040EA02109F
:1007600008433F4B186070473E49C8617047F0B579
:100770000A46002300240021002500F00046B6F1BF
:10078000004F02D1364EF16901E0354E7168C0F379
:10079000034583B200F44016B6F5401F08D121F09E
:1007A00070612F4E766826F070662D4F7E6012E0E5
:1007B00000F48016B6F5801F06D1032606FA05F46C
:1007C000A14341F0706106E0460D360103FA06F6DA
:1007D000B14341F0706122B1460D360103FA06F6CD
:1007E000314300F00046B6F1004F02D11C4EF161DA
:1007F00001E01B4E7160F0BD30B500228B071C0F6D
:100800000F2303FA04F2164B08338C1053F82430EC
:100810009343134C08348D1044F8253023468C1034
:1008200053F824308C07240F00FA04F423430C4CB3
:1008300008348D1044F8253030BD0A49DC31086099
:100840007047000000080140000C0140001001400A
:100850000014014000180140001C0140002001402C
:10086000000001400000204210B50446FB488442CD
:1008700009D101218803FFF7FFFD00214FF48040DB
:10088000FFF7FAFD32E0F648844209D1012148041D
:10089000FFF7FFFD00214FF40030FFF7FAFD25E0E0
:1008A000F048844209D101218804FFF7F2FD0021BC
:1008B0004FF48020FFF7EDFD18E0EB48844209D1AA
:1008C0000121C804FFF7E5FD00214FF40020FFF7E8
:1008D000E0FD0BE0E548844208D101210805FFF75F
:1008E000D8FD00214FF48010FFF7D3FD10BD2DE996
:1008F000F04786B005460E460024A24600BFA1463A
:100900000027B08900B100BF2F462C8A4CF6FF703B
:100910000440F08804432C82AC894EF6F310044066
:10092000B08831890843718908430443AC81AC8A9B
:100930004FF6FF400440B0890443AC8201A8FFF7A2
:1009400014FDC648874202D1DDF810A001E0DDF8B1
:100950000CA0A88900F4004040B10AEBCA0000EBEB
:100960000A1031684900B0FBF1F807E00AEBCA0051
:1009700000EB0A1031688900B0FBF1F86420B8FB85
:10098000F0F004012009642101FB1089A88900F41A
:10099000004040B1322000EBC900B0FBF1F000F0A4
:1009A0000700044308E0322000EB09106421B0FB8B
:1009B000F1F000F00F0004432C8106B0BDE8F08791
:1009C0004FF41651016000218180C18001810C210A
:1009D000418100218181704710B502460020108AB4
:1009E0004FF2FF0318400B884C8823438C88234325
:1009F000CC8823431843108210BD00210180418020
:100A00008180C180704721B1828942F40052828185
:100A100004E082894DF6FF731A4082817047F0B579
:100A20000346002400260025002040F66A17B9423C
:100A300000D100BF1846C1F3421401F01F06012780
:100A400007FA06F5012C01D10C3004E0022C01D18B
:100A5000103000E014301AB107682F43076002E03D
:100A60000768AF430760F0BD1AB1838A0B438382E6
:100A700002E0838A8B4383827047028A4FF6F073C9
:100A80001A400282028A0A430282704782894FF228
:100A9000FF731A40828182890A438281704721B1A3
:100AA000828942F00202828104E082894FF6FD735E
:100AB0001A4082817047028A4FF6DF731A40028221
:100AC000028A0A430282704721B1028A42F48042BC
:100AD000028204E0028A4BF6FF731A4002827047DA
:100AE000C1F308028280704701468888C0F308007D
:100AF0007047818941F0010181817047028BD2B238
:100B00000283028B42EA012202837047028B02F4C5
:100B10007F420283028B0A430283704721B1828A9B
:100B200042F02002828204E0828A4FF6DF731A408C
:100B30008282704721B1828A42F01002828204E0F0
:100B4000828A4FF6EF731A408282704721B1828AFF
:100B500042F00802828204E0828A4FF6F7731A405C
:100B60008282704721B1828942F40042828103E08F
:100B70008289C2F30E028281704721B1828A42F4D7
:100B80000062828204E0828A4FF2FF731A408282FE
:100B90007047828A4FF6FB731A408282828A0A4328
:100BA0008282704721B1828A42F00202828204E08E
:100BB000828A4FF6FD731A408282704702460020F7
:100BC000B1F5007F00D100BF13880B400BB10120AD
:100BD00000E00020704701F40072B2F5007F00D100
:100BE00000BFCA430280704770B50246002400234C
:100BF0000025002040F66A16B14200D100BFC1F3C3
:100C0000421501F01F03012606FA03F3012D02D15C
:100C10009689334006E0022D02D1168A334001E066
:100C2000968A33400C12012606FA04F416883440E2
:100C300013B10CB1012000E0002070BD10B50022FE
:100C4000002340F66A14A14200D100BF0A12012419
:100C50009440A3B2DC43048010BD00000038014082
:100C60000044004000480040004C0040005000405C
:100C700031490143314A1160704770B500210023AA
:100C80000F22C47804B32D4C246804F4E064C4F546
:100C9000E064210AC1F10403CA40447804FA03F174
:100CA0008478144021430901254C0678A155047825
:100CB00004F01F050124AC4005786D11AD0005F16D
:100CC000E025C5F8004109E0047804F01F0501247F
:100CD000AC401C4D0678761145F8264070BD1A4A86
:100CE0000A400243154B1B1F1A60704739B1134A63
:100CF000121D12680243114B1B1D1A6006E00F4AB9
:100D0000121D126882430D4B1B1D1A607047042888
:100D100008D14FF0E021096941F004014FF0E022D1
:100D2000116107E04FF0E021096921F004014FF063
:100D3000E0221161704700000000FA050CED00E0B0
:100D400000E400E080E100E080FFFF1F0020444954
:100D50000860091D0860091D0860091D08604148F8
:100D60003F4914310860704700213D498279002ACB
:100D70003AD00A46126803689A430B461A600A1D65
:100D8000126803689A430B1D1A60027911440A68BD
:100D900003681A430A60324A0832126803689A43A9
:100DA0002F4B08331A601A1D126803689A432C4BA4
:100DB0000C331A604279102A0ED11A1F1268036888
:100DC0001A43274B08331A601A1D126803681A4326
:100DD000234B0C331A600DE02149427911440A6813
:100DE00003681A430A6005E0027911440A6803683F
:100DF0009A430A6070470021016001710C21417122
:100E00000021817170471649103109680143144A65
:100E100010321160704701460020114A14321268E6
:100E20000A400AB1012000E0002070470C4914314B
:100E300008607047014600200022094B1B6803EA46
:100E40000102074B14331B680B4013B10AB1012098
:100E500000E000207047024914310860704700002C
:100E600000040140FFFF0F0001460020FE4A106809
:100E700000F03800084310607047FB49096821F012
:100E80000801F94A11601146096801431160704771
:100E9000F549096821F01001F34A1160114609680B
:100EA000014311607047F148EF494860F0484860DD
:100EB0007047EE48EC494860ED4848607047EA48A2
:100EC000006940F08000E84908617047E648006921
:100ED00040F08000E449086170470420E249C96895
:100EE00001F0010109B101200EE0DF49C96801F0FC
:100EF000040109B1022007E0DB49C96801F01001D3
:100F000009B1032000E00420704700B50246042325
:100F1000FFF7E3FF034603E0FFF7DFFF0346521E40
:100F2000012B01D1002AF7D102B90523184600BDD3
:100F300030B5044604254FF43020FFF7E6FF0546A0
:100F4000042D17D1C848006940F00200C649086165
:100F500008464461006940F0400008614FF43020C9
:100F6000FFF7D3FF0546C048006941F6FD71084010
:100F7000BD490861284630BD10B504244FF4302027
:100F8000FFF7C3FF0446042C16D1B748006940F0B0
:100F90000400B54908610846006940F04000086156
:100FA0004FF43020FFF7B1FF0446AF48006941F627
:100FB000FB710840AC490861204610BD00B50246EF
:100FC0000423FFF78AFF034603E0FFF786FF03468B
:100FD000521E012B01D1002AF7D102B90523184670
:100FE00000BD10B504244FF43020FFF7E7FF04469E
:100FF000042C16D19C48006940F004009A4908610D
:101000000846006940F0400008614FF43020FFF7C7
:10101000D5FF04469448006941F6FB7108409249A7
:101020000861204610BD00208F49C96901F0020106
:1010300009B1012000E00020704730B5A525042447
:10104000FFF7F1FF00B100254FF43020FFF75DFFFF
:101050000446042C3AD185488349886084488860D6
:101060000846006940F0200008610846006940F029
:10107000400008614FF43020FFF747FF0446042C7E
:101080001BD17948006941F6DF7108407649086153
:101090000846006940F01000086176480580E002CB
:1010A000FFF733FF0446052C10D06F48006941F666
:1010B000EF7108406C49086108E0052C06D06A48C9
:1010C000006941F6EF71084067490861204630BD6C
:1010D00078B506460C46042500200090E802FFF78C
:1010E00014FF0546042D24D15F48006940F001003B
:1010F0005D4908613480E802FFF707FF0546042DCB
:1011000010D1B01C0090200C00990880E802FFF775
:10111000FCFE05465448006941F6FE7108405249FC
:10112000086106E05048006941F6FE7108404E49EA
:101130000861284678BD70B504460D460426F002C5
:10114000FFF7E3FE0646042E11D14748006940F040
:101150000100454908612580F002FFF7D6FE0646EA
:101160004148006941F6FE7108403F490861304638
:1011700070BD70B505460E460424E002FFF7C5FEBB
:101180000446042C17D139483749886038488860AC
:101190000846006940F0100008612E80E002FFF769
:1011A000B4FE0446052C06D02F48006941F6EF71C5
:1011B00008402D490861204670BD2DE9F0430446E2
:1011C0004FF6FF763746B046B1460425E443E6B213
:1011D000C4F30727C4F307484FEA1469E802FFF78E
:1011E00094FE0546042D49D120481F4988602048B7
:1011F00088600846006940F010000861FF2E06D0A4
:101200001C4808300680E802FFF77FFE0546042DE3
:1012100008D1FF2F06D017480A300780E802FFF7F1
:1012200074FE0546042D0AD1B8F1FF0F07D011480E
:101230000C30A0F80080E802FFF767FE0546042D99
:101240000AD1B9F1FF0F07D00A480E30A0F800907C
:10125000E802FFF75AFE0546052D0FD00248006947
:1012600041F6EF71084007E0002002402301674586
:10127000AB89EFCD00F8FF1F664908612846BDE83D
:10128000F08330B5054604244FF43020FFF73DFECF
:101290000446042C41D160485E4988605F488860FC
:1012A0000846006940F0200008610846006940F0E7
:1012B000400008614FF43020FFF727FE0446042C5D
:1012C00022D15448006941F6DF7108405149086154
:1012D0000846006940F0100008611DB10020504927
:1012E000088002E0A5204E4908804FF43020FFF727
:1012F0000CFE0446052C10D04648006941F6EF71FB
:1013000008404449086108E0052C06D041480069BE
:1013100041F6DF7108403F490861204630BDF0B515
:1013200005460E46174604243B483A4988603B4828
:101330008860E002FFF7E9FD0446042C19D1354826
:10134000006940F010003349086147F0F80030436D
:1013500028433349891C0880E002FFF7D6FD044684
:10136000052C06D02B48006941F6EF710840294949
:1013700008612046F0BD2748C069800870472548AD
:10138000006A704700202349096801F0200109B173
:10139000012000E00020704729B11E4A1269024373
:1013A0001C4B1A6104E01B4A12698243194B1A61F3
:1013B000704701460020012908D1164AD26902F07F
:1013C00001020AB1012008E0002006E0114AD268BB
:1013D0000A400AB1012000E0002070470D49C860B2
:1013E000704704200B49C96801F0010109B10120CF
:1013F0000EE00849C96801F0040109B1022007E0C4
:101400000449C96801F0100109B1032000E004207B
:10141000704700000020024023016745AB89EFCDF3
:1014200000F8FF1F10B50446BE48844208D10121D0
:101430008014FFF721F80021A014FFF71DF816E033
:10144000B948844208D101210014FFF722F8002195
:101450002014FFF71EF80AE0B448844207D10121A6
:10146000C013FFF716F80021E013FFF712F810BDC4
:1014700010B50022028802F441520B884C882343A5
:101480008C882343CC8823430C8923434C892343F2
:101490008C892343CC8923431A430280838B4FF2E8
:1014A000FF74234083830B8A038210BD2DE9F04F24
:1014B00085B005460C464FF0000902274FF00008A2
:1014C0004FF0010B0026B246A88B4FF240010840B6
:1014D000A88302202884B5F81C90A068022801D1B6
:1014E00000BF38E0A08810B94FF0010B01E04FF0C9
:1014F000020B8D48854200D100E000BF6846FEF730
:1015000034FFDDF800A0E088B0F5007F0AD14FEA93
:101510001A2000EB80004000A168B0FBF1F0401DF4
:1015200086B20BE04FEA4B10BAFBF0F000EB800004
:101530004000A168B0FBF1F0401D86B20A20B6FB66
:10154000F0F606F00108A6EB0800C0F34F074FF6CF
:10155000FF7000EA0828022F01DBFF2F02DD0227BF
:101560004FF00008E08840EA080038432884A0884B
:10157000A1890843618808432188084340F400603A
:1015800040EA0909A5F81C9005B0BDE8F08F0021DC
:10159000018041808180C180018141818181C1813F
:1015A0000721018270470021018041808180C18034
:1015B0000221816000218181704721B1028842F0BF
:1015C0004002028004E002884FF6BF731A40028096
:1015D000704721B1828B42F48062828304E0828B67
:1015E0004FF6FF331A408283704730B50024002342
:1015F0000C110125A540ABB21AB185881D43858029
:1016000002E085889D43858030BD1AB183880B43F5
:10161000838002E083888B43838070478181704799
:101620000146888970474FF6FF62914204D00288D4
:1016300042F48072028004E002884FF6FF631A4091
:101640000280704721B1828842F00402828004E067
:1016500082884FF6FB731A408280704702884FF2EF
:10166000FF731A40028002880A4302807047018893
:1016700041F480510180704721B1028842F4005248
:10168000028004E002884DF6FF731A400280704722
:1016900002460020012901D0108B00E0908A70479B
:1016A0000146088A7047B1F5804F04D1028842F4A0
:1016B0008042028004E002884BF6FF731A400280E9
:1016C00070470246002013890B400BB1012000E057
:1016D00000207047CA4302817047F0B502460020DF
:1016E00000240023002501F00F070126BE40B4B2FC
:1016F0000B1101269E40B3B2968806EA03051689AF
:10170000264016B10DB1012000E00020F0BD10B55B
:10171000002201F00F040123A3409AB2D3430381B6
:1017200010BD00000030014000380040003C004087
:1017300010B50446FE48844208D10121C014FEF7CA
:101740009BFE0021E014FEF797FEC4E0B4F1804F49
:1017500008D101210846FEF79CFE00210120FEF77A
:1017600098FEB8E0F348844208D101210220FEF738
:1017700090FE00210220FEF78CFEACE0EE48844291
:1017800008D101210420FEF784FE00210420FEF789
:1017900080FEA0E0E948844208D101210820FEF73C
:1017A00078FE00210820FEF774FE94E0E4488442AD
:1017B00008D101211020FEF76CFE00211020FEF759
:1017C00068FE88E0DF48844208D101212020FEF72E
:1017D00060FE00212020FEF75CFE7CE0DA488442B7
:1017E00008D101214014FEF747FE00216014FEF7E6
:1017F00043FE70E0D548844209D10121C804FEF7B8
:101800003BFE00214FF40020FEF736FE63E0D04897
:10181000844209D101210805FEF72EFE00214FF474
:101820008010FEF729FE56E0CA48844209D1012102
:101830004805FEF721FE00214FF40010FEF71CFEC4
:1018400049E0C548844208D101214020FEF721FE2D
:1018500000214020FEF71DFE3DE0C048844208D133
:1018600001218020FEF715FE00218020FEF711FEE9
:1018700031E0BB48844208D101218015FEF709FE02
:101880000021A015FEF705FE25E0B648844209D1E7
:1018900001210804FEF7F0FD00214FF48030FEF72F
:1018A000EBFD18E0B048844209D101214804FEF75D
:1018B000E3FD00214FF40030FEF7DEFD0BE0AB4806
:1018C000844208D101218804FEF7D6FD00214FF49F
:1018D0008020FEF7D1FD10BD00220288944B984273
:1018E0000ED0994B98420BD0B0F1804F08D0914B5D
:1018F000984205D0904B984202D0904B984204D128
:101900004FF68F731A404B881A438D4B984207D07D
:101910008C4B984204D04FF6FF431A40CB881A43B1
:1019200002808B8883850B880385814B98420BD07E
:10193000854B984208D08B4B984205D08A4B9842F1
:1019400002D08A4B984201D10B7A0386012383820D
:10195000704770B5002400220023058C4FF6FE76F8
:1019600035400584028C8388048B4FF68F752C409C
:10197000B51E2C400D882C43751E2A400D892A4324
:101980004D882A436A4DA8420BD06F4DA84208D01B
:10199000744DA84205D0744DA84202D0734DA842A0
:1019A00013D14FF6F7752A404D892A434FF6FB7540
:1019B0002A408D882A434FF6FF652B404FF6FF558E
:1019C0002B408D892B43CD892B4383800483CD8885
:1019D0008586028470BD70B5002400220023058C2A
:1019E0004FF6EF7635400584028C8388048B48F6E9
:1019F000FF752C404FF6FF452C400D884FF6FF76C3
:101A000006EA05252C434FF6DF752A400D8906EAC4
:101A100005152A434D8806EA05152A43444DA84278
:101A200002D0494DA8421DD14FF67F752A404D89FD
:101A30004FF6FF7606EA05152A434FF6BF752A4092
:101A40008D8806EA05152A434FF6FF352B404FF2E5
:101A5000FF752B408D8906EA85052B43CD8906EA63
:101A600085052B4383800483CD880587028470BD60
:101A700070B5002400220023058C4FF6FF66354028
:101A80000584028C8388848B4FF68F752C404FF62B
:101A9000FC752C400D882C434FF6FF552A400D89CC
:101AA0004FF6FF7606EA05252A434D8806EA052506
:101AB0002A431F4DA84202D0234DA8421DD14FF208
:101AC000FF752A404D894FF6FF7606EA05252A4321
:101AD0004FF6FF352A408D8806EA05252A434EF643
:101AE000FF752B404DF6FF752B408D8906EA0515D5
:101AF0002B43CD8906EA05152B4383808483CD884B
:101B00008587028470BD70B5002200230024058CF7
:101B10004EF6FF7635400584038C8488828B48F628
:101B2000FF752A404FF6FF452A400D8820E000004F
:101B3000002C01400004004000080040000C004060
:101B4000001000400014004000340140004C0140EF
:101B5000005001400054014000180040001C0040AB
:101B60000020004000400140004401400048014086
:101B70004FF6FF7606EA05252A434DF6FF752B4002
:101B80000D8906EA05352B434D8806EA05352B43BA
:101B9000FA4DA84202D0FA4DA84208D14BF6FF7583
:101BA0002C408D894FF6FF7606EA85152C438480FC
:101BB0008283CD88A0F84050038470BD828B4FF2A1
:101BC000FF331A408283828B4FF6FF7303EA0123AF
:101BD0001A4382837047F0B50C4615460022002157
:101BE0000026078C4EF6FF7C07EA0C070784828BE1
:101BF000018C4FF6FF7707EA043640F6FF473A407C
:101C00004FF6FF7707EA05273A434FF6FF7707EAD3
:101C100003373A43D94FB8420ED0D94FB8420BD010
:101C2000B0F1804F08D0D74FB84205D0D64FB84258
:101C300002D0D64FB84206D14DF6FF77394046F470
:101C40008057394305E047F6FF57394044F4805741
:101C5000394382830184F0BD828B4FF6F3731A40BF
:101C60008283828B0A4382837047F0B50C46154607
:101C7000002200210026078C4FF6FF6C07EA0C07B4
:101C80000784828B018C4FF6FF7707EA04264FF614
:101C90000C773A404FF6FF7707EA03172F433A4392
:101CA000B64FB8420ED0B64FB8420BD0B0F1804F0D
:101CB00008D0B44FB84205D0B34FB84202D0B34FAA
:101CC000B84206D14FF6FF57394046F48077394382
:101CD00005E04FF2FF57394044F48077394382835F
:101CE0000184F0BD028B4FF2FF331A400283028B56
:101CF0004FF6FF7303EA01231A4302837047F0B5DE
:101D00000C461546002200210026078C4FF6EF7C7A
:101D100007EA0C070784028B018C4FF6FF7707EA6E
:101D2000041640F6FF473A404FF6FF7707EA0337BD
:101D30003A434FF6FF7707EA05273A438F4FB842F9
:101D40000ED08F4FB8420BD0B0F1804F08D08D4FDE
:101D5000B84205D08C4FB84202D08C4FB84206D161
:101D60004FF6DF77394046F01007394305E04FF66C
:101D70005F77394044F01007394302830184F0BD96
:101D8000028B4FF6F3731A400283028B0A430283DD
:101D90007047F0B50C46154600220021068C4FF620
:101DA000FE773E400684028B018C4FF60C76324063
:101DB0007E1C06EA03162E433243704EB0420ED00C
:101DC0006F4EB0420BD0B0F1804F08D06D4EB04294
:101DD00005D06D4EB04202D06C4EB04206D14FF6E7
:101DE000FD76314044F00106314305E04FF6F576CB
:101DF000314044F00106314302830184F0BD70B5E7
:101E000005460C465D4885420ED05D4885420BD0A4
:101E1000B5F1804F08D05B48854205D05A488542CD
:101E200002D05A48854200D100E000BF208850B956
:101E30002389A28861882846FFF7ABFFE1882846FE
:101E4000FFF79EFF25E0208804280AD12389A28875
:101E500061882846FFF753FFE1882846FFF742FFD5
:101E600017E0208808280AD12389A288618828469B
:101E7000FFF7FBFEE1882846FFF7EEFE09E0238925
:101E8000A28861882846FFF7A6FEE1882846FFF76A
:101E900095FE70BD2DE9F04105460C460026012750
:101EA000608808B9022600E00026A088012801D138
:101EB000022700E001272088A0B92389A288618831
:101EC0002846FFF766FFE1882846FFF759FF238978
:101ED0003A4631462846FFF712FFE1882846FFF7C9
:101EE00001FF13E02389A28861882846FFF707FFD6
:101EF000E1882846FFF7F6FE23893A463146284610
:101F0000FFF747FFE1882846FFF73AFFBDE8F08179
:101F10000A884B881A438B881A43CB881A430B894B
:101F20001A434B891A438B891A43A0F844207047FF
:101F30004FF6FF71818000210180C18041800172D4
:101F400070470021018041808180C18001814181F1
:101F50008181C18170470021018041800121818000
:101F60000021C18001817047002101804180818072
:101F7000C18001814181818170470000002C0140B6
:101F8000003401400004004000080040000C004004
:101F900021B1028842F00102028004E002884FF67B
:101FA000FE731A400280704731B1B0F8442042F409
:101FB0000042A0F8442005E0B0F84420C2F30E022D
:101FC000A0F8442070471AB183890B43838102E053
:101FD00083898B43838170478182704741EA020382
:101FE000A0F8483070471AB183890B43838102E01F
:101FF00083898B438381704701894FF6F8721140C2
:10200000018170470A46002101894FF68F731940FC
:1020100011430181704730B504460D4629462046DC
:10202000FFF7F0FF208940F00700208130BD2DE947
:10203000F04104460D4616461F46602D06D13B462C
:10204000012231462046FFF75AFE05E03B460122B9
:1020500031462046FFF79DFE29462046FFF7D2FF76
:10206000208940F007002081BDE8F08130B50C46A2
:1020700000210189C9B24FF6FF7505EA0325154312
:1020800025432943018130BD2DE9F04105460E4627
:1020900017469846002443463A4631462846FFF7FD
:1020A000E5FF2C894FF6F870044044F007044FF622
:1020B0008F70044044F070042C81BDE8F081F0B5CD
:1020C00004460D4616461F463B46324629462046E4
:1020D000FFF7CCFF208940F480402081F0BD0185CE
:1020E000828270470A46002101884FF68F7319409B
:1020F000114301807047F0B50C4615461E4600217D
:10210000002200230189028B038C4FF6F8773940B7
:1021100021434FF6FC473A4040F201173A434FF64D
:10212000DD773B404FF6FF7707EA06172F433B4327
:10213000018102830384F0BD0A460021018B4FF622
:102140008F7319401143018370470A460021018BA8
:1021500048F6FF7319404FF6FF7303EA0223194351
:10216000018370470A460021818B4FF68F73194017
:102170001143818370470A460021818B48F6FF7323
:1021800019404FF6FF7303EA022319438183704716
:1021900021B1028842F08002028004E002884FF6FA
:1021A0007F731A400280704721B1828842F0040296
:1021B000828004E082884FF6FB731A408280704769
:1021C00021B1828842F00802828004E082884FF6C2
:1021D000F7731A408280704721B1828842F0010271
:1021E000828004E082884FF6FE731A408280704736
:1021F0000A460021018B4FF6F77319401143018302
:1022000070470A460021018B4FF2FF7319404FF6C9
:10221000FF7303EA02231943018370470A46002132
:10222000818B4FF6F77319401143818370470A463B
:102230000021818B4FF2FF7319404FF6FF7303EAC1
:1022400002231943818370470A460021018B4FF610
:10225000FB7319401143018370470A460021018B2B
:102260004FF6FF3319404FF6FF7303EA0223194379
:10227000018370470A460021818B4FF6FB7319409A
:102280001143818370470A460021818B4FF6FF334B
:1022900019404FF6FF7303EA022319438183704705
:1022A0000A460021018B4FF67F73194011430183C9
:1022B00070470A460021018BC1F30E014FF6FF73F0
:1022C00003EA02231943018370470A460021818BE8
:1022D0004FF67F7319401143818370470A460021EE
:1022E000818BC1F30E014FF6FF7303EA02231943FA
:1022F000818370470A460021018C4FF6FD73194017
:102300001143018470470A460021018C4FF6F77390
:1023100019401143018470470A460021018C4FF691
:10232000DF7319404FF6FF7303EA02131943018468
:1023300070470A460021018C4FF67F7319404FF613
:10234000FF7303EA02131943018470470A46002110
:10235000018C4FF6FF5319404FF6FF7303EA022337
:102360001943018470470A460021018C4FF2FF7324
:1023700019404FF6FF7303EA0223194301847047A3
:102380000A460021018C4DF6FF7319404FF6FF738A
:1023900003EA023319430184704730B50023012456
:1023A0008C40A3B2048C9C430484048C02FA01F593
:1023B000ADB22C43048430BD30B5002304248C40DE
:1023C000A3B2048C9C430484048C02FA01F5ADB2E0
:1023D0002C43048430BD70B5034600200024184609
:1023E000183001258D40ACB21D8CA5431D8409B168
:1023F000082909D100EB6100056825F0700505602A
:102400000568154305600EE00D1FC5F34E05284411
:10241000056825F4E045056005684FF6FF7606EA95
:1024200002263543056070BD21B1028842F00202E8
:10243000028004E002884FF6FD731A400280704764
:1024400021B1028842F00402028004E002884FF6C3
:10245000FB731A400280704721B1828842F08002EB
:10246000828004E082884FF67F731A408280704732
:1024700002884FF6F7731A40028002880A430280EE
:10248000704782884FF68F731A40828082880A4391
:102490008280704702894FF6F8731A4002810289E0
:1024A0000A430281704702894FF67F731A40028106
:1024B00002890A4302817047818470478185704791
:1024C000818670470187704781877047A0F8401068
:1024D000704702884FF6FF431A40028002880A4381
:1024E000028070470146888E70470146088F70470A
:1024F0000146888F70470146B1F840007047014699
:10250000888C70470146088D704702460020138A68
:102510000B400BB1012000E000207047CA4302824B
:10252000704730B50246002000230024158A05EAD2
:102530000103958905EA010413B10CB1012000E003
:10254000002030BDCA430282704700000E49086077
:1025500070470D49486070470B49886070474AF6DC
:10256000AA200949086070474CF6CC40064908602B
:10257000704701460020044AD2680A400AB101208F
:1025800000E00020704700000030004010B501213D
:102590000807FDF77EFF00214FF08050FDF779FF1F
:1025A00010BD2A49086270472849086170470146F2
:1025B0000020274A106820F0E000084310607047B0
:1025C0002249A0310860704710B502460020204B18
:1025D000186820F00300104318601E4B1B6843F07E
:1025E00004031C4C2360012901D130BF00E020BF4F
:1025F000184B1B6823F00403164C236010BD1448CD
:10260000006840F00400124908600846006840F085
:10261000020008600F48006840F004000D4908609F
:1026200000BF00BF30BF704701460020084A526813
:102630000A400AB1012000E00020704704490968FF
:1026400041EA8001024A11607047000000000E421A
:102650000070004010ED00E010B50120FDF726FFEE
:102660000020FDF723FF10BD2A4908607047294963
:10267000091F086070472749843108607047014688
:102680000020254A10884FF67F4210400843224A16
:1026900010807047014600201F4A10884FF6807254
:1026A000104008431C4A1080704708B50022009271
:1026B000194A2C3A0092009A02440092009A116042
:1026C00008BD08B501460020009013482C38009042
:1026D0000098084400900098008808BD0D489C3080
:1026E0000068C0B270470C480830008840F0010014
:1026F00009490831088070470648A0300068C0B218
:10270000704705480830008840F00200024908314F
:102710000880704704860D422C6C00400CB50020E8
:10272000019000905E48006840F480305C49086089
:1027300000BF5B48006800F4003000900198401C26
:102740000190009818B90198B0F5A06FF1D15448E4
:10275000006800F4003010B10120009001E000207A
:1027600000900098012828D14E48006840F01000E1
:102770004C4908600846006820F0030008600846DD
:102780000068086046484068454948600846406817
:1027900048600846406848600846406820F00300EA
:1027A00048600846406840F00100486000BF3C486F
:1027B000406800F00C000428F9D10CBD10B5FFF7FB
:1027C000ADFF10BD10B53648006840F00100344937
:1027D0000860084640683449084031494860084666
:1027E0000068324908402E4908600846006820F415
:1027F000802008600846406820F4FE0048604FF4DE
:102800001F008860FFF7DAFF4FF00060284908607A
:1028100010BD10B5002100200022214B5B6803F0A1
:102820000C0121B1042906D0082928D107E0214B49
:10283000214C236027E01F4B1F4C236023E0184BE3
:102840005B6803F47010164B5B6803F4803202235C
:1028500003EB904022B9194B4343174C23600DE022
:102860000F4B5B6803F4003323B1144B4343124C0A
:10287000236003E00F4B43430F4C236003E00D4BF9
:102880000D4C236000BF00BF054B5B68C3F303130F
:102890000B4CE15C084B1B68CB40074C236010BD20
:1028A00000100240002002400000FFF8FFFFF6FE8B
:1028B00008ED00E000127A001400002000093D003D
:1028C00018000020704700BFFEE700BFFEE700BF12
:1028D000FEE700BFFEE77047704770477047000093
:1028E00010B56FF00400FEF712FA2F4800682F4968
:1028F000B0FBF1F02E4908700846007800EB40016B
:10290000C1EBC0104FF6FF7101EAC00029490880F1
:1029100010BD0146264A12784A434FF0E0235A611F
:1029200000229A611A46126942F001021A6100BF40
:102930004FF0E022106900F001021AB100F4803279
:10294000002AF5D04FF0E022126922F001024FF088
:10295000E0231A6100229A61704770B50546154858
:10296000008868434FF0E0214861002088610846F4
:10297000006940F00100086100BF4FF0E0200469E9
:1029800004F0010018B104F480300028F5D04FF0B5
:10299000E020006920F001004FF0E02108610020F4
:1029A000886101F071F970BD1400002000127A00F6
:1029B000280000202A00002010B5002407E004F1C0
:1029C000E00000F029FA01F05FF9601CC4B2102C9D
:1029D000F5DB002407E004F1F00000F01DFA01F03F
:1029E00053F9601CC4B2102CF5DB002407E004F599
:1029F000807000F011FA01F047F9601CC4B2102C8D
:102A0000F5DB002407E004F5887000F005FA01F01A
:102A10003BF9601CC4B2102CF5DB002407E004F580
:102A2000907000F0F9F901F02FF9601CC4B2102C7D
:102A3000F5DB002407E004F5A87000F0EDF901F0E3
:102A400023F9601CC4B2102CF5DB002407E004F568
:102A5000007000F0E1F901F017F9601CC4B2102C0D
:102A6000F5DB002407E004F5207000F0D5F901F053
:102A70000BF9601CC4B2102CF5DB002407E004F550
:102A8000407000F0C9F901F0FFF8601CC4B2102CCE
:102A9000F5DB10BD10B51E20FFF75FFF01480249AE
:102AA000086010BD0400FA050CED00E000B587B029
:102AB00001210820FDF7C6FC01218803FDF7CFFCAA
:102AC0004FF46040ADF8180018208DF81B0003206B
:102AD0008DF81A0006A93348FDF778FD4FF46041E0
:102AE0003048FDF720FE0020ADF804004FF482705E
:102AF000ADF806000020ADF808000220ADF80A008D
:102B00000120ADF80C004002ADF80E003820ADF801
:102B100010000020ADF812000720ADF8140001A944
:102B20002148FEF7A5FC01211F48FEF746FD07B02E
:102B300000BD10B504461C4800884FF6C771084018
:102B4000194908800846008820430880012116485A
:102B5000FEF733FD10BD70B50546002405E0601C8E
:102B6000C4B2C82C01DD002070BD02210F48FEF761
:102B7000A8FD0028F3D029460C48FEF74FFD00249D
:102B800005E0601CC4B2C82C01DD0020ECE7012187
:102B90000648FEF796FD0028F3D00448FEF740FDF6
:102BA000C0B2E1E7000C01400038004000300140B5
:102BB00000B587B001212420FDF744FC0121080362
:102BC000FDF740FC2020ADF8040003208DF806003E
:102BD00018208DF8070001A9FC48FDF7F7FC4020FC
:102BE000ADF8040001A9F948FDF7F0FC8020ADF82C
:102BF000040001A9F548FDF7E9FC1020ADF8040038
:102C00008DF8070001A9F148FDF7E0FC1021EF481D
:102C1000FDF789FD0020ADF808004FF48270ADF893
:102C20000A000020ADF80C000220ADF80E000120D3
:102C3000ADF810004002ADF812000820ADF8140005
:102C40000020ADF816000720ADF8180002A9E048F2
:102C5000FEF70EFC0121DE48FEF7AFFC07B000BD19
:102C600010B500241021D948FDF75FFD0520FFF7BE
:102C700072FFFF20FFF76FFF04461021D348FDF7D6
:102C800052FD204610BD10B504461021CF48FDF777
:102C90004CFD0120FFF75FFF2046FFF75CFF10218E
:102CA000CA48FDF740FD10BD10B51021C748FDF71B
:102CB0003CFD0620FFF74FFF1021C448FDF733FD10
:102CC00010BD10B51021C148FDF72FFD0420FFF7FE
:102CD00042FF1021BD48FDF726FD10BD10B50024B0
:102CE0001021BA48FDF721FD9020FFF734FF0020A6
:102CF000FFF731FF0020FFF72EFF0020FFF72BFF2B
:102D0000FF20FFF728FF44EA0024FF20FFF723FFFE
:102D100004431021AD48FDF706FD204610BD2DE906
:102D2000F04106460C4617461021A848FDF7FDFC69
:102D30000320FFF710FFC4F30740FFF70CFFC4F3B5
:102D40000720FFF708FFE0B2FFF705FF002505E0C9
:102D5000FF20FFF700FF7055681C85B2BD42F7DB0E
:102D600010219A48FDF7DFFCBDE8F08110B500BFE7
:102D7000FFF776FF00F001000028F9D110BD2DE922
:102D8000F04106460C461746FFF78EFF10218F488C
:102D9000FDF7CBFC0220FFF7DEFEC4F30740FFF790
:102DA000DAFEC4F30720FFF7D6FEE0B2FFF7D3FE4A
:102DB000002504E0705DFFF7CEFE681C85B2BD42C1
:102DC000F8DB10218148FDF7AEFCFFF7CFFFBDE82F
:102DD000F0812DE9F04107460E461446F0B2C0F5E9
:102DE0008075AC4200DC254612E02A463146384662
:102DF000FFF7C5FFAC4200D10BE02F442E44601B0F
:102E000084B2B4F5807F02DD4FF4807500E0254682
:102E1000EBE700BFBDE8F08110B504462403FFF7DF
:102E200043FFFFF7A3FF10216848FDF77EFC202039
:102E3000FFF791FEC4F30740FFF78DFEC4F30720B0
:102E4000FFF789FEE0B2FFF786FE10215F48FDF72D
:102E50006AFCFFF78BFF10BD2DE9F04781460F4656
:102E6000164600F011FF4FEA1738C7F30B0ACAF5F0
:102E70008054A64200DC344644E04FEA08314FF467
:102E800080525448FFF74BFF002508E00AEB05008D
:102E90005049085CFF2800D003E0681C85B2A542B9
:102EA000F4DB00BFA54216DA4046FFF7B5FF002568
:102EB00007E019F8050005EB0A01464A5054681C62
:102EC00085B2A542F5DB4FEA08314FF48052414804
:102ED000FFF77FFF04E0224639464846FFF779FFB7
:102EE000A64200D10FE008F101084FF0000AA1440A
:102EF0002744301B86B2B6F5805F02DD4FF4805464
:102F000000E03446B9E700BFBDE8F08710B5FFF731
:102F1000CBFEFFF72BFF10212C48FDF706FCC72046
:102F2000FFF719FE10212948FDF7FDFBFFF71EFFF3
:102F300010BD10B510212548FDF7F7FBB920FFF7AC
:102F40000AFE10212148FDF7EEFB0320FFF7E1FC0C
:102F500010BD10B510211D48FDF7E7FBAB20FFF7B2
:102F6000FAFD10211948FDF7DEFB0320FFF7D1FC25
:102F700010BDF8B506460C46154604F019FE0E2E97
:102F800015D2DFE806F0A7071529374553616FA76B
:102F90007D8BA79920128DF80000E0B28DF801001A
:102FA000680000F5752102226846FFF755FF91E0A1
:102FB00020128DF80000E0B28DF80100680000F5E5
:102FC000772102226846FFF747FF83E000080140AF
:102FD00000300140D801002020128DF80000E0B23E
:102FE0008DF80100680000F5762102226846FFF79F
:102FF00033FF6FE020128DF80000E0B28DF8010081
:10300000680000F5712102226846FFF725FF61E0A4
:1030100020128DF80000E0B28DF80100680000F584
:10302000732102226846FFF717FF53E020128DF844
:103030000000E0B28DF80100680000F57421022262
:103040006846FFF709FF45E020128DF80000E0B266
:103050008DF80100680000F5702102226846FFF734
:10306000FBFE37E020128DF80000E0B28DF8010081
:10307000680000F5722102226846FFF7EDFE29E0A4
:1030800020128DF80000E0B28DF80100680000F514
:10309000782102226846FFF7DFFE1BE020128DF840
:1030A0000000E0B28DF80100680000F579210222ED
:1030B0006846FFF7D1FE0DE020128DF80000E0B267
:1030C0008DF80100680000F57A2102226846FFF7BA
:1030D000C3FE00BF00BFF8BDF8B506460C46154656
:1030E0000E2E16D2DFE806F0AC07162534435261E7
:1030F00070AC7F8EAC9D680000F575210222684699
:10310000FFF70DFE9DF8000004F8010B9DF801008B
:10311000207095E0680000F5772102226846FFF7ED
:10312000FEFD9DF8000004F8010B9DF801002070E1
:1031300086E0680000F5762102226846FFF7EFFD81
:103140009DF8000004F8010B9DF80100207077E065
:10315000680000F5712102226846FFF7E0FD9DF846
:10316000000004F8010B9DF80100207068E0680081
:1031700000F5732102226846FFF7D1FD9DF800009B
:1031800004F8010B9DF80100207059E0680000F57B
:10319000742102226846FFF7C2FD9DF8000004F882
:1031A000010B9DF8010020704AE0680000F57021D5
:1031B00002226846FFF7B3FD9DF8000004F8010BFA
:1031C0009DF8010020703BE0680000F572210222AA
:1031D0006846FFF7A4FD9DF8000004F8010B9DF878
:1031E000010020702CE0680000F57821022268467A
:1031F000FFF795FD9DF8000004F8010B9DF8010014
:1032000020701DE0680000F5792102226846FFF772
:1032100086FD9DF8000004F8010B9DF80100207068
:103220000EE0680000F57A2102226846FFF777FD7C
:103230009DF8000004F8010B9DF80100207000BF0C
:1032400000BFF8BD30B502460B460020002108E063
:10325000545C4440E4B2124D55F8244084EA1020F6
:10326000491C9942F4D330BD30B502460B464FF6A7
:10327000FF70002110E0555C6840002409E000F078
:10328000010525B140084AF20105684000E0400808
:10329000641C082CF3DB491C9942ECD330BD0000C0
:1032A000DCA900080146088870472DE9F041054671
:1032B0000E461746002407E036F814102846FDF79E
:1032C0003AFFAD1C601C84B2BC42F5DBBDE8F08166
:1032D00030B503460C461546002207E01846FFF7B6
:1032E000E1FF24F812009B1C501C82B2AA42F5DBBD
:1032F00030BD2DE9F05F80468A461746B8F1006F71
:1033000002D33748804501D3BDE8F09FFDF7CBFDE0
:10331000A8F1006B4FEADB25CBF34909C9F58064BE
:10332000A74200DC3C464DE04FF0006101EBC520B8
:103330004A142C49FFF7CCFF00260BE009EB0600EE
:10334000284931F810004FF6FF71884200D003E0A1
:10335000701C86B2A642F1DB00BFA6421BDA4FF01A
:10336000006101EBC520FDF7E3FD002608E03AF817
:10337000160006EB09011B4A22F81100701C86B2E8
:10338000A642F4DB4FF0006101EBC5204A14154959
:10339000FFF78BFF04E0224651464046FFF785FFCA
:1033A000A74200D10FE06D1C4FF000090AEB440A60
:1033B000A044381B87B2B7F5806F02DD4FF48064FC
:1033C00000E03C46B0E700BFFDF779FD00BF9BE79A
:1033D00013B50446012201A92046FFF78AFF1CBD50
:1033E00000000808D81100200346190903F00F0255
:1033F000092903DD01F13700C1B202E001F130001B
:10340000C1B2092A03DD02F13700C2B202E002F1C3
:103410003000C2B242EA01207047024600201EE09E
:10342000135C302B06DB135C392B03DC135C303B65
:10343000135412E0135C412B06DB135C462B03DCB8
:10344000135C373B135408E0135C612B05DB135C02
:10345000662B02DC135C573B1354431CD8B28842E2
:10346000DEDB70471CB5024642F21073042113E004
:1034700000200DF8010006E0D21A1DF80100401CE2
:10348000C0B20DF801009A4201D3092BF4D80A20EA
:10349000B3FBF0F3481EC1B20029E9D1D0B28DF8D8
:1034A00000009DF8040000049DF8034040EA043049
:1034B0009DF8024040EA04209DF8014040EA0410D3
:1034C0009DF8004020431CBD014601F0F0000011B2
:1034D00000EB8002500001F00F020244D0B27047AE
:1034E0002DE9FC4304460F4615469C460022002663
:1034F0000A20B7FBF0F800FB187808F13008914675
:10350000521C04F80980B7FBF0F70FE00A20B7FB64
:10351000F0F800FB18703030904602F1010909F014
:10352000FF0204F808000A20B7FBF0F7002FEDD1E6
:10353000501EC1B20EE0A05D14F8018004F80680B0
:103540006054A1F1010808F0FF0106F1010808F03C
:10355000FF0600BF8E42EEDBBCF1010F17D12D201C
:103560008DF80000002305E014F80380581C0DF8C6
:103570000080C3B29342F7DB501CC2B2002304E0C8
:103580001DF80300E054581CC3B29342F8DB002D31
:103590003EDD501EC1B2AA4213DD06E014F80180E0
:1035A000481C04F80080481EC1B2501B8842F5DD5B
:1035B0004FF02E08481C04F80080501CC0B2BDE833
:1035C000FC83002912DD06E014F80180881C04F851
:1035D0000080481EC1B20029F6DC2078A0702E20A1
:1035E000607030202070901CC0B2E8E714F80180B1
:1035F000681C04F80080002603E03020A055701CF1
:10360000C6B2AE42F9DD2E206070A81CC0B2D6E76B
:103610001046D4E77FB505460C4601210220FCF791
:103620001EFFADF80850ADF804400020ADF80A00C8
:10363000ADF8060001A9B048FEF74EF90122114687
:10364000AD48FEF7C0FC1D208DF8000005208DF868
:10365000010000208DF8020001208DF8030068466B
:10366000FDF70BFB0021A448FEF792FC7FBD10B5CF
:103670000121A148FEF755FF30B101219E48FEF718
:1036800061FF01209D49087010BD01209C49087010
:103690009C484078052190FBF1F201FB120010B923
:1036A0000120994908709748407810B9012097493E
:1036B00008709448007840B9924840789449C97895
:1036C000884202D10120934908708E484078904981
:1036D000C978884202D101208F4908708948007852
:1036E0008B498978884208D1864840788849C978CA
:1036F000884202D1012089490870704710B504F052
:1037000057FA83480078012803D0814800790128BE
:1037100006D183480068C0438249C1F8880102E0AD
:1037200001207F4908608048007801280BD17F483C
:103730000068401C7D49086008460068B0F5967F27
:1037400001D3FFF7A7F97A48007801281DD17948FD
:103750000068401C7749086008460068B0F5967F0D
:1037600013D30020724908707249086072490870CA
:103770000120724908705B2071490870002071496E
:10378000087071490870714908807148007800F02C
:10379000200080B16F480078401C6E4908700846D0
:1037A0000078052807DB002008706948007820F0C1
:1037B0002000674908706648007800F0080090B162
:1037C00065480078401C644908705148807A09783F
:1037D000884208DC0020604908705D48007820F0CD
:1037E00008005B49087057480078012804D1564802
:1037F0000078401C5449087053480078032808DDBD
:103800000020514908704F4908704B4908705349CE
:1038100008705348007820B151480078401C504946
:1038200008704F480078022809DD4E48008800F0F3
:10383000BFFA00204A49087001204B4908704B48E4
:103840000078FF2829D049480078002825DD304835
:103850000078042821D046480078444909788842F5
:1038600005DA43480078401C4149087015E0002003
:103870003F49087001203C4908703E480078401ECE
:103880003D490978884205DD3B480078401C3A49AB
:10389000087002E00020384908703848007820B3EA
:1038A0003748007808BB37480078401C3549087015
:1038B0000846007834490978884216DD00202F49EF
:1038C00008703049087001202D4908702F48007891
:1038D00028B100202D49087007202D4908702C4878
:1038E00000780A2801D1FFF7D5F80648807808B992
:1038F000FFF7CBFE10BD0000000400409C0000203C
:1039000058000020B8000020590000205A00002074
:10391000912200205B0000205C0000205D00002060
:1039200088012242000022428A00002090000020EC
:103930008B0000208C00002065000020C0000020CB
:10394000BF00002086000020870000206C000020BF
:103950006400002088000020890000204C00002026
:103960009E00002096000020800000207E000020A5
:103970007F0000207C0000207D00002084000020CB
:1039800081000020830000208500002082000020AC
:103990009D0000201FB501211020FCF753FD0C20D5
:1039A000ADF8000010208DF8030003208DF8020010
:1039B0006946B948FCF70AFE0C21B748FCF7B5FE8A
:1039C00001212020FCF73EFD0120ADF80000102071
:1039D0008DF8030003208DF802006946AF48FCF71C
:1039E000F5FD0121AD48FCF7A0FE01210820FCF700
:1039F00029FD0120ADF8000010208DF80300032000
:103A00008DF802006946A648FCF7E0FD0121A448B4
:103A1000FCF78BFE01212520FCF714FD4FF44070CC
:103A2000FDF726F928208DF8040004208DF8050004
:103A300000208DF8060001208DF8070001A8FDF791
:103A40001CF94FF48050ADF8000028208DF80300D9
:103A500069469448FCF7BAFD0C210020FCF7CCFE27
:103A60004FF48050029000208DF80C000C208DF84F
:103A70000D0001208DF80E0002A8FDF775F9092050
:103A80008DF8040000208DF805008DF80600012057
:103A90008DF8070001A8FDF7F0F80820ADF8000048
:103AA00028208DF8030069467C48FCF78FFD032130
:103AB0000846FCF7A1FE0820029000208DF80C00BB
:103AC0000C208DF80D0001208DF80E0002A8FDF7E6
:103AD0004BF91FBD08B501210420FCF7B3FC48F6E3
:103AE0000F10ADF8000000208DF8030002208DF8C3
:103AF000020069466B48FCF769FD01210820FCF7CC
:103B0000A1FC4CF6E270ADF8000000208DF8030037
:103B100002208DF8020069466148FCF757FD01213B
:103B20001120FCF78FFC4EF2F330ADF800000020BE
:103B30008DF8030002208DF8020069465648FCF714
:103B400045FD0120FEF72DFD0020FCF7E8FB0020DD
:103B5000FEF78DFD0020FEF78EFD01212020FCF7F1
:103B600071FC4FF6F270ADF8000000208DF80300F4
:103B700002208DF8020069464848FCF727FD012124
:103B80004020FCF75FFC4FF6FF70ADF8000000200E
:103B90008DF8030002208DF8020069464248FCF7C8
:103BA00015FD08BD1FB5044601210420FCF74AFCA1
:103BB0004FF44070FDF75CF828208DF804000420D5
:103BC0008DF8050000208DF8060001208DF8070013
:103BD00001A8FDF752F84FF48060ADF800002820EE
:103BE0008DF8030069462F48FCF7F0FC0A210020FD
:103BF000FCF702FE4FF48060029000208DF80C006C
:103C00000C208DF80D008DF80E4002A8FDF7ACF8E1
:103C10001FBD10B54FF48060FDF70CF960B14FF493
:103C20008060FDF718F901202049087020480078CD
:103C300040F020001E4908704FF48050FDF7FAF85C
:103C400018B14FF48050FDF706F910BD10B50820EB
:103C5000FDF7F0F828B10820FDF7FDF8012015491F
:103C6000087010BD70B505460C4645F25550FEF77C
:103C70006DFC2846FEF76DFC2046FEF76DFCFEF756
:103C80006EFCFEF771FC70BD10B50B480078012882
:103C900001D1FEF764FC10BD00100140001401408A
:103CA000000C014000080140001801405E000020A7
:103CB00064000020990000209122002070B59CB083
:103CC000002405E0F748005D0DF80400601CC4B254
:103CD000142CF7DB16222046611CCCB20DF8002014
:103CE00000222046611CCCB20DF80020B2222046F2
:103CF000611CCCB20DF8002001222046611CCCB220
:103D00000DF8002000222046611CCCB20DF80020E6
:103D1000002508E0E448425D2046611CCCB20DF865
:103D20000020681CC5B2112DF4DB00222046611C66
:103D3000CCB20DF800202046611CCCB20DF800205A
:103D4000082507E01DF80510A5F108000FAA115479
:103D5000681CC5B2A542F5DBA4F108010FA8FFF766
:103D600071FA86B2F2B22046611CCCB20DF8002086
:103D700032122046611CCCB20DF800205A22204697
:103D8000611CCCB20DF8002000250DE01DF80510D7
:103D9000C648FCF7A5FE00BFC448008800F08000BC
:103DA0000028F9D0681CC5B2A542EFDB1CB070BD7D
:103DB000F0B591B00646002411E0162C03D1301264
:103DC00009A9085509E0172C02D109A90E5504E0EC
:103DD000B748005D09A9085500BF601CC4B21B2C80
:103DE000EBDB082507E009A8415DA5F1080001AA61
:103DF0001154681CC5B21B2DF5DB132101A8FFF778
:103E000021FA87B22046611CCCB209A90F543A129C
:103E10002046611CCCB209A90A545A222046611CD2
:103E2000CCB209A90A5400240DE009A8015D9F48FD
:103E3000FCF756FE00BF9D48008800F08000002877
:103E4000F9D0601CC4B21E2CEFDB11B0F0BD10B570
:103E500098480088B0F5007F00DD10BD00240CE01C
:103E6000A5219548FCF73CFE00BF9348008800F070
:103E700080000028F9D0601C84B2082CF0DB0024FC
:103E80000DE08E48015D8C48FCF72AFE00BF8A4891
:103E9000008800F080000028F9D0601C84B28548BA
:103EA00000880C308442ECDB00BFD6E72DE9F04FF0
:103EB00089B006460F4690469946DDE912AB424668
:103EC000394606F5FA6003F0B6FE0090002405E0DE
:103ED0007B48005D01A90855601C84B2132CF7DBF8
:103EE0003046FFF7BFFAC0B28DF8170020208DF8DA
:103EF00018003846FFF7B6FAC0B28DF819004046F0
:103F0000FFF7B0FAC0B28DF81A004846FFF7AAFAD8
:103F1000C0B28DF81B005046FFF7A4FAC0B28DF86E
:103F20001C005846FFF79EFAC0B28DF81D0000989D
:103F3000FFF798FAC0B28DF81E001B2101A8FFF709
:103F400081F90546E8B28DF81F00280A8DF8200097
:103F50005A208DF8210000240CE0A5215648FCF7DA
:103F6000BFFD00BF5448008800F080000028F9D051
:103F7000601C84B2082CF0DB00240DE001A8015D78
:103F80004D48FCF7ADFD00BF4B48008800F08000B5
:103F90000028F9D0601C84B21E2CEFDB09B0BDE80C
:103FA000F08F08B50A098DF8002001F00F028DF896
:103FB00001209DF80020434B9A5C02709DF801207F
:103FC0009A5C427008BD2DE9F04FADF5057D39488A
:103FD0000088C11E3948FFF735F9824611203A4959
:103FE000087034480088C01E3449095C3148008894
:103FF000801E324A105C41EA002BDA4551D1FFF7AE
:1040000043FE2E48C07B2D49897B40EA01202F4981
:104010000880284800880C3826490880002406E0DB
:10402000264904F10C00085C03A90855641C2148CA
:1040300000888442F4D39DF80F009DF80E1000EB29
:1040400001201FFA80F80120214908704AF2063148
:10405000A8EB0100884570D016DCB8F5234F6DD071
:104060000ADCB8F5224F3CD06FF4224040440028CF
:1040700077D0022876D116E16FF42340404400281F
:1040800071D00128F6D100E140F6FB52811A90422E
:104090006AD01FDC022868D0A0F6FA500028E9D1C7
:1040A00028E33EE30EAE000816B0000800380140D9
:1040B0007DAE00086C00002000500040441B002032
:1040C000F0AD000829B00008A800002096000020EC
:1040D0009E000020B1F5807F7BD0B1F5007FC9D173
:1040E00078E00020FE490870FE480088FFF760FE77
:1040F0009DF81100042822D006DC012809D00228EE
:104100000ED0032845D111E005282FD0102840D12A
:1041100040E00120F44908700220F44908703AE0B8
:104120000420F1490870F149087034E00020EE499C
:1041300008700820ED4908702DE014E12DE0022000
:10414000EB4908700120E949087002208DF80C0243
:1041500001224FF4602183A8FEF77EFEFEF79AFC51
:1041600019E0E5E0D9E26EE046E184E00320E049B1
:104170000870084600788DF80C020120DB490870B1
:1041800001224FF4602183A8FEF766FEFEF782FC51
:1041900001E000BF00BF00BFC2E29DF8130001288C
:1041A00006D10121D348FCF7BEFA0120CF4908709F
:1041B0009DF81300022806D10121CE48FCF7B5FA7C
:1041C0000020CA490870FFF742FE0020C749087066
:1041D000A6E2A4E09DF81300FFF776F9C649C8707F
:1041E0009DF81500FFF770F9C34908719DF8160096
:1041F000FFF76AF9C04948719DF81700FFF764F9A5
:10420000BD4908709DF81800FFF75EF9BA4948707B
:104210009DF81900FFF758F9B7498870084680786B
:104220004978DFF8D4C2CDE900109CF800309CF842
:1042300005209CF804109CF8030003F077FC012093
:10424000AE4908706CE2E220FEF7E6FDAC4800885B
:10425000C01E82B24FF4622103A8FEF7BAFDDFF858
:10426000A4920D220DF11301484605F0A3FE012092
:10427000A549087054E2E220FEF7CEFD0020A249D5
:1042800008700120A14908704AE29DF814008DF8D9
:104290000C0201224FF4632183A8FEF7DDFD01200B
:1042A0009B4908703CE29DF81300FFF70DF9924915
:1042B000C8709DF81500FFF707F98F4908719DF840
:1042C0001600FFF701F98C4948719DF81700FFF7B8
:1042D000FBF8894908709DF81800FFF7F5F8864942
:1042E00048709DF81900FFF7EFF883498870084679
:1042F00080784978DFF800C2CDE900109CF80030E2
:104300009CF805209CF804109CF8030003F00EFCB8
:1043100001207A49087000207449087000E20020EA
:104320006F490870FFF7CAFC002070490870F7E178
:1043300000206B4908709DF8110010B1012810D1C0
:1043400006E068480088FFF733FDFEF7A3FB08E0AE
:1043500064480088FFF72CFDFEF72EFBFEF79AFB62
:1043600000BF00BFDCE166480088083803A90E5C86
:104370008DF80C6262480088B0F5007F3BDC604835
:104380000088801F085C70B906F5A870FEF744FD30
:104390005B480088C01E82B206F5A870010303A81E
:1043A000FEF717FD27E056480088801F03A9085C28
:1043B00000F00F0001280ED106F58070FEF72CFDED
:1043C0004F480088C01E82B206F58070010303A822
:1043D000FEF7FFFC0FE04A480088801F03A9085C35
:1043E00000F00F00022806D145480088C01E82B2A6
:1043F0004848FEF77EFF93E14FF40070FEF70CFD96
:104400003F480088C01E82B24FF400110DF1130026
:10441000FEF722FD9DF813003F490870082500248F
:104420005CE16D1C00271BE003A8415D83A8FFF73A
:10443000B8FD03A8405D30B13748407818B9C7F1DE
:1044400005003549487028466D1C03A9095C04EB3A
:1044500084023148801C1044C7F1040281547F1C3F
:10446000052FE1D328466D1C03A9085C01062A48E4
:10447000FC3000EB840001602748FC3000EB840036
:10448000026828466D1C03A9085C42EA00412248E4
:10449000FC3000EB840001601F48FC3000EB84001E
:1044A000026828466D1C03A9085C42EA00211A48EC
:1044B000FC3000EB840001601748FC3000EB840006
:1044C000006829466D1C03AA515C01431248FC3068
:1044D00000EB8400016028466D1C03A9085C1DE008
:1044E0009E000020960000206B000020800000202D
:1044F0007B000020000C0140B8000020A10000203B
:104500006C00002084220020A4000020A5000020D0
:10451000A300002000E00708A81F00200106FB48B8
:1045200000EB84000160F94800EB84000268284633
:104530006D1C03A9085C42EA0041F44800EB8400CA
:104540000160F24800EB8400026828466D1C03A954
:10455000085C42EA0021ED4800EB84000160EB4872
:1045600000EB8400006829466D1C03AA515C0143DE
:10457000E64800EB8400016028466D1C03A9085C36
:104580000106E248503800EB84000160DF485038F3
:1045900000EB8400026828466D1C03A9085C42EA0F
:1045A0000041DA48503800EB84000160D7485038A9
:1045B00000EB8400026828466D1C03A9085C42EAEF
:1045C0000021D248503800EB84000160CF485038B9
:1045D00000EB8400006829466D1C03AA515C084367
:1045E000CA49503901EB8401086028466D1C03A9B3
:1045F000095CC6488C38015528466D1C03A9095C26
:10460000C2488238015528466D1C03A9085C020285
:10461000BE487838611C00EB81000260BB487838E6
:1046200000EB8100006829466D1C03AA515C014320
:10463000B6487838621C00EB8200016028466D1C89
:1046400003A9085C0102B148783800EB84000160DE
:10465000AE48783800EB8400006829466D1C03AA38
:10466000515C0843A949783901EB84010860284668
:104670006D1C03A9085C0202A4487838E11C00EB19
:1046800081000260A148783800EB8100006829466B
:104690006D1C03AA515C08439C497839E21C01EB6C
:1046A0008201086028466D1C03A9085C0202974835
:1046B0007838A11C00EB810002609448783800EB48
:1046C0008100016828466D1C03AA105C01438F48D5
:1046D0007838A21C00EB82000160641C8C480078D2
:1046E000A0423FF69EAE8B480088FFF761FBFEF7C5
:1046F000D1F915E09DF813009DF8141000EB01208E
:104700008549088002224FF420718348FEF7A4FBFC
:1047100080480088FFF74CFB02E0FFF798FB00BFE2
:1047200003E04AF20510FFF743FB0DF5057DBDE8F8
:10473000F08F2DE9F0418AB0FFF7A6FA774800889C
:10474000811E7748FEF790FD074674480088401E9A
:104750007349095C71480088801E714A105C41EA07
:104760000028104680786F490870104640786E49DE
:10477000087001206D49087047457CD16448407835
:10478000012801D1002412E000260BE06048801CC3
:10479000805D64490978884201D1344606E0344698
:1047A000701CC6B25A484078B042EFDC00BF58488F
:1047B0004078A0427EDD5A48C0780E280BD0584879
:1047C000C0780B2807D05648C078092803D0544831
:1047D000C0780C286ED151480088C01E5049085C32
:1047E000032802D0172808D103E00420504908709C
:1047F00004E006204E49087000E000BF00BFAA2078
:104800008DF81400464840798DF8150044488079A9
:104810008DF816004248C0798DF817004048007A9C
:104820008DF818003E48407A8DF819003C48C07851
:104830000E2848D139480088C01E3949085C032831
:1048400041D19DF8180001283DD13A48007890BB2D
:104850009DF81500FEF738FE8DF80C009DF8160047
:10486000FEF732FE8DF80D009DF81700FEF72CFEC6
:104870008DF80E0000E06AE19DF81800FEF724FEB6
:104880008DF80F009DF81900FEF71EFE8DF8100040
:1048900000208DF811009DF811009DF81010CDE951
:1048A00000109DF80F309DF80E209DF80D109DF81A
:1048B0000C0001E04EE106E003F038F901201E494A
:1048C00008701C4908709DF8190000F00F009DF851
:1048D0001910091101EB810100EB4100C5B210482C
:1048E000C0780C282AD1052095FBF0F040001C3040
:1048F0000B49085C8DF81C00052095FBF0F040008A
:104900001D30085C8DF81D0056E00000CC20002012
:10491000A81F002096000020440000206C0000200A
:10492000441B0020300000202E0000202D0000201D
:104930002C000020A2000020A1000020052095FBF3
:10494000F0F100FB1150002811DD052095FBF0F07F
:1049500040001C30FA49085C8DF81C00052095FBCE
:10496000F0F040001D30085C8DF81D0024E00520AB
:1049700095FBF0F100FB1150F0B955B9F04890F8F3
:1049800032008DF81C00EE4890F833008DF81D00C1
:1049900012E0052095FBF0F0401E40001C30E84975
:1049A000085C8DF81C00052095FBF0F0401E4000CF
:1049B0001D30085C8DF81D009DF81C00FF2808D1F3
:1049C0009DF81D00FF2804D100208DF81D008DF8F2
:1049D0001C00DB48807A8DF81E00D948C07A8DF81B
:1049E0001F00D748007B8DF82000D548407B8DF80C
:1049F0002100D348807B8DF82200D148C07B8DF800
:104A00002300CF4890F834008DF82400CC4890F86B
:104A100035008DF825009DF82400FEF755FD8DF832
:104A200024009DF82500FEF74FFD8DF825009DF828
:104A300025009DF8241040EA0120C24901EB440101
:104A40000880C14921F81400BE4800EB44000188E9
:104A500022460D20FEF78DFA9DF81F009DF81E10CE
:104A600040EA0121B748503000EB44000180B748CC
:104A700020F81410B348503000EB4400018822465F
:104A80000820FEF776FA9DF823009DF8221040EAF0
:104A90000121AC48143000EB44000180AC4820F800
:104AA0001410A848143000EB44000188224604206A
:104AB000FEF75FFA9DF821009DF8201040EA0121E1
:104AC000A048283000EB44000180A24820F81410D0
:104AD0009C48283000EB4400018822460520FEF760
:104AE00048FA9DF81D009DF81C1040EA01219548E8
:104AF000DC3000EB84000160974840F824109148B6
:104B0000DC3000EB8400008881B222460120FEF7F1
:104B100030FA92480078012802D19149087019E0D2
:104B20008D4850F824008F490988884207D3012016
:104B30008B49087001218C48FBF7F5FD0AE0012143
:104B40008948FBF7F2FD00208549087002E0152036
:104B5000864908700AB0BDE8F0810246002107E0EE
:104B60008348405C904201D108467047481CC1B25E
:104B70001029F5DB1120F8E770B5044643F2C82090
:104B8000844201D97B4870BD42F25440844201D234
:104B90000220F8E77849284605F076FA064605F03F
:104BA000E8FAF0E72DE9F041FFF76EF8644948783C
:104BB000FFF7D3FF070162498878FFF7CEFF07436D
:104BC0006E484078012801D1002410E0002609E059
:104BD0006A48801C805DB84201D1F4B206E0F4B2AC
:104BE000701C86B265484078B042F1DC00BF634873
:104BF0004078A0427EDD6148801C005DB84279D1DA
:104C00004F490879FFF7A9FF05024D494879FFF799
:104C1000A4FF45EA00154A498879FFF79EFF05433E
:104C20004748C078B8281AD004DC5C2807D0A328ED
:104C30007DD164E0CA2813D0FF2878D160E04148D4
:104C400000EB44000580404820F814503D4800EB3C
:104C50004400018822460D20FEF78BF967E000BF73
:104C60003848503000EB44000580384820F8145094
:104C700030F8141022460820FEF77BF931485030F6
:104C800000EB440001882F48643000EB44000088AA
:104C9000814216DA2B48503000EB4400008800F5C2
:104CA00080502849643101EB44010988401A81B2DF
:104CB0002448143000EB44000180254820F81410EB
:104CC00013E02048503000EB440001881D48643058
:104CD00000EB44000088081A81B21A48143000EB37
:104CE000440001801A4820F81410194830F81410B4
:104CF000224600E05AE00420FEF73BF917E000BF2F
:104D000040F6FF70854211D00E48DC3000EB840085
:104D10000560114840F824500A48DC3000EB84005C
:104D2000008881B222460120FEF723F900BF00BFB0
:104D30000A480078012823D10949087036E00000AC
:104D4000441B002058210020E81900204C1A0020A4
:104D5000241A0020FC190020741A0020912200203F
:104D60008000002044000020000C01402C000020A6
:104D700029B000081C82020000002041A81F00206A
:104D8000FE4850F82400FE490988884207D30120D4
:104D9000FC4908700121FC48FBF7C5FC06E0012135
:104DA000F948FBF7C2FC0020F64908700020BDE876
:104DB000F0812DE9FC41F54886780027F4484078D9
:104DC000012811D1002508E0F148801C405DB04267
:104DD00001D1374605E0681CC5B2ED484078A842CD
:104DE000F2DC00BF002411E000250AE0E848801C46
:104DF000405DB04202D137462C4606E02C46681C86
:104E0000C5B2E3484078A842F0DC00BFE0484078F3
:104E1000A0427DDDB7427BD1DC4840798DF80000AF
:104E2000DA4880798DF80100D848C0798DF8020001
:104E3000D648007A8DF80300D448407A8DF80400F3
:104E4000D248807A8DF80500D048C07A8DF80600E7
:104E5000CE48007B8DF807009DF801009DF80010FA
:104E600040EA0121CB4800EB44000180CA4820F809
:104E70001410C84800EB4400018822460820FEF7C1
:104E800078F89DF803009DF8021040EA0121C1481E
:104E90003C3800EB44000180C04820F81410BD48A5
:104EA0003C3800EB4400018822460420FEF761F8FC
:104EB0009DF805009DF8041040EA0121B5488C30AA
:104EC00000EB84000160AD4840F82410B1488C30FC
:104ED00000EB8400008881B222460120FEF749F8E9
:104EE0009DF806100902C8B2FEF7EEFA9DF8071009
:104EF0000843A849503901EB44010880A84921F82A
:104F00001400A448503800EB44000188224600E019
:104F10001FE00D20FEF72DF8A2480078012802D1ED
:104F20009849087015E0954850F82400944909887C
:104F3000884207D301209349087001219248FBF76A
:104F4000F2FB06E001219048FBF7EFFB00208D49C2
:104F500008700020BDE8FC8170B57E209249087081
:104F6000924800784870924800788870914800789C
:104F7000C870092008718548407948718348807954
:104F800088718248C079C8718048007A08727F4869
:104F9000407A48720020887287480078C8720C21D5
:104FA0008148FEF761F985B27F490D732812487375
:104FB00000240DE07C48015D8048FBF791FD00BFB7
:104FC0007E48008800F080000028F9D0601C84B280
:104FD0000E2CEFDB70BD704710B500240DE0784853
:104FE000015D7848FBF77CFD00BF7648008800F043
:104FF00080000028F9D0601C84B2202CEFDB10BDAB
:1050000030B58BB001224FF4632108A8FDF787FE6D
:10501000002405E06C48005D0DF80400601CC4B27B
:10502000142CF7DB9DF820008DF81400152168463C
:10503000FEF708F985B2E8B28DF8150028128DF850
:1050400016005A208DF8170000240CE0A5215D48B9
:10505000FBF746FD00BF5B48008800F08000002899
:10506000F9D0601CC4B2082CF0DB0BB030BD10B519
:1050700056480088B0F5007F00DD10BD5448007828
:10508000012819D15348007810B9012051490870FE
:1050900000240DE05048015D4A48FBF721FD00BFA8
:1050A0004848008800F080000028F9D0601C84B2D5
:1050B000464800888442EDDB00BFDEE72DE9FF4F64
:1050C00087B00C461646A6F13000C6B2A4F13100F6
:1050D000C4B22F484078012800D10024304830F86D
:1050E000140002902D4830F81400294991F8A210BC
:1050F00048431FFA80FA394830F81400244991F8DF
:10510000A210484380B20490234830F8140020498C
:1051100091F8A210484380B20390314830F814004F
:105120001B4991F8A21048431FFA80FB2D4830F824
:105130001400174991F8A21048431FFA80F94FF65E
:10514000FF70814501D14FF00009114890F8A2008D
:1051500000FB09F01FFA80F9084850F824704FF658
:10516000FF70874200D100270948AC3000EB840073
:105170000068401CC0B30648AC3036E0741A00200A
:105180004400002080000020000C0140441B00204F
:10519000A81F0020A82100204C1A0020241A00205B
:1051A000E819002091220020D819002030000020AA
:1051B0002E0000202F0000202C000020003801408D
:1051C00045AE00080050004065AE00086E000020AB
:1051D000A5000020A0000020441D0020381A002057
:1051E000FC190020101A002003E000EB8400006886
:1051F0000744384602F0CCFF80B20590FD4850F8D5
:1052000024800BF105000A2190FBF1F1FA4800EB34
:1052100084000068814212D80AF105000A2190FB3F
:10522000F1F1F548283000EB84000068814206D88F
:10523000F148283800EB84000068B84203D201200E
:10524000EE49087005E00120ED4908700020EB49A7
:10525000087007980E2873D2DFE800F0720F072954
:105260007F526895AC72C3E9F8F60023324605997F
:105270000A98FEF735F90546FBE026B1012E06D067
:10528000022E09D107E06420B7FBF0F706E00A2000
:10529000B7FBF0F702E001E0022600BF00BF0023E9
:1052A000324639460A98FEF71BF90546E1E06420CC
:1052B000B8FBF0F00A2801D2022607E06420B8FB10
:1052C000F0F0642801D2012600E0002626B1012E6C
:1052D00006D0022E09D107E06420B8FBF0F806E002
:1052E0000A20B8FBF0F802E001E0022600BF00BF90
:1052F0000023324641460A98FEF7F2F80546B8E028
:1053000016B1012E07D105E00A209BFBF0F01FFA31
:1053100080FB02E001E0012600BF00BF002332460F
:1053200059460A98FEF7DCF80546A2E016B1012EB0
:1053300008D106E00A2099FBF0F01FFA80F903E09B
:1053400096E001E0012600BF00BF00233246494637
:105350000A98FEF7C5F805468BE016B1012E07D175
:1053600005E00A209AFBF0F01FFA80FA02E001E063
:10537000012600BF00BF0023324651460A98FEF7BF
:10538000AFF8054675E016B1012E08D106E00A21F6
:10539000049890FBF1F080B2049002E001E0012655
:1053A00000BF00BF0023324604990A98FEF798F820
:1053B00005465EE016B1012E08D106E00A210398E9
:1053C00090FBF1F080B2039002E001E0012600BF03
:1053D00000BF0023324603990A98FEF781F805467C
:1053E00047E088490868002104F0D8FE12D28549B8
:1053F0000868854904F048FE82490860086804F09E
:10540000B8FE01233246014601900A98FEF768F87B
:1054100005460BE07B49086804F0ABFE00233246EA
:10542000014601900A98FEF75BF8054621E07749AE
:10543000086804F09EFE00233246014601900A9857
:10544000FEF74EF8054614E00AE0FFE7002006905C
:1054500000E002E006980C28FBDB00BF069D08E098
:105460000023324602990A98FEF73AF8054600E012
:1054700000BF00BF28460BB0BDE8F08F2DE9FF410B
:1054800006460F46FEF700FCF05D5C280CD0F15D8F
:105490005F4802880088401C5D4B18805D4881543D
:1054A000002004B0BDE8F081781C305C55287CD128
:1054B000B81C305C4E2879D00CDCA0F141000D28DE
:1054C00075D2DFE800F0F674F5F4747774F3747451
:1054D00036A9F20056280ED006DC522868D0532890
:1054E00067D0542863D132E1572840D059286ED074
:1054F0007328F7D175E2381D325CF81C315C6B46BD
:105500000D20FFF7DBFD0546C82D01DD0020C8E7B3
:1055100000240BE01DF804103D4802880088401C60
:105520003B4B18803B488154601CC4B2AC42F1DB59
:10553000D2E2381D325CF81C315C6B460220FFF76A
:10554000BDFD0546C82D01DD0020AAE700240BE0C3
:105550001DF804102E4802880088401C2C4B18802F
:105560002C488154601CC4B2AC42F1DBB4E2381D5B
:10557000325CF81C315C6B460120FFF79FFD05464D
:10558000C82D01DD00208CE700240BE01DF804206D
:105590001F4801880088401C1D4B18801D4842543C
:1055A000601CC4B2AC42F1DB96E298E275E292E292
:1055B00050E04EE1381D325CF81C315C6B46032034
:1055C000FFF77CFD0546C82D02DD002069E75FE09E
:1055D00000240BE01DF804100D4802880088401CD0
:1055E0000B4B18800B488154601CC4B2AC42F1DBF9
:1055F00072E200009C1A0020A4200020A6000020D7
:10560000A7000020B4000020000080BFB0000020F0
:105610006E000020441D0020381D325CF81C315CF7
:105620006B460520FFF74AFD0546C82D01DD002029
:1056300037E700240BE01DF80410FB4802880088BF
:10564000401CF94B1880F9488154601CC4B2AC422C
:10565000F1DB41E2381D325CF81C315C6B46052001
:10566000FFF72CFD0546C82D01DD002019E70024B9
:105670000BE01DF80410EC4802880088401CEA4B3F
:105680001880EA488154601CC4B2AC42F1DB23E2CA
:10569000381D325CF81C315C6B460720FFF70EFDAD
:1056A0000546C82D06DD0020FBE68CE06DE0ADE090
:1056B00011E02EE000240BE01DF80410DA48028807
:1056C0000088401CD84B1880D8488154601CC4B254
:1056D000AC42F1DB00E2381D325CF81C315C6B46F9
:1056E0000420FFF7EBFC0546C82D01DD0020D8E6BD
:1056F00000240BE01DF80410CB4802880088401CF1
:10570000C94B1880C9488154601CC4B2AC42F1DB5B
:10571000E2E1381D325CF81C315C6B460820FFF773
:10572000CDFC0546C82D01DD0020BAE600240BE0C3
:105730001DF80410BC4802880088401CBA4B188031
:10574000BA488154601CC4B2AC42F1DBC4E1381DDC
:10575000325CF81C315C6B460A20FFF7AFFC054653
:10576000C82D01DD00209CE600240BE01DF804108C
:10577000AD4802880088401CAB4B1880AB48815470
:10578000601CC4B2AC42F1DBA6E1381D325CF81CEF
:10579000315C6B460B20FFF791FC0546C82D01DDFF
:1057A00000207EE600240BE01DF804109E480288CD
:1057B0000088401C9C4B18809C488154601CC4B2DB
:1057C000AC42F1DB88E1F81C305C00F2CF20010331
:1057D00010226846FDF7A3FA9DF80200302101EB84
:1057E0002011914802880088401C8F4B18808F48F8
:1057F00081549DF8020000F00F00303019460A88ED
:105800000988491C19808949885465E1F81C305C75
:1058100000F2CF20010310226846FDF780FA9DF8C0
:105820000300302101EB20117F4802880088401CD2
:105830007D4B18807D4881549DF8030000F00F00D7
:10584000303019460A880988491C198077498854DC
:1058500042E1F81C305C00F2CF20010310226846C0
:10586000FDF75DFA9DF80400FF2803D108208DF8AC
:10587000040016E09DF80500052812DD9DF80400DF
:1058800000F00F00092806D19DF80400C01DC0B229
:105890008DF8040005E09DF80400401CC0B28DF8AE
:1058A00004009DF8040038B19DF80400102803D0CE
:1058B0009DF8040020283ED19DF8040080B93221D3
:1058C000594802880088401C574B1880574881541B
:1058D0003321184602880088401C188053488154A0
:1058E0009DF80400102810D130214F48028800880C
:1058F000401C4D4B18804D48815439211846028870
:105900000088401C1880494881549DF804002028D4
:1059100030D13121444802880088401C424B188015
:10592000424881543921184602880088401C18805A
:105930003E4881541EE09DF804004FEA201808F10B
:10594000300039490A880988491C374B1980374982
:1059500088549DF8040000F00F00401E00F0FF087E
:1059600008F13000C2B2184601880088401C188037
:105970002E4842542D212C4802880088401C2A4B76
:1059800018802A4881549DF8040024280FD1302122
:10599000184602880088401C188024488154184604
:1059A00002880088401C18802048815418E09DF827
:1059B0000400302101EB20111B4802880088401CA4
:1059C000194B1880194881549DF8040000F00F000D
:1059D000303019460A880988491C198013498854AF
:1059E0007AE0F81C305C00F2CF20010310226846F8
:1059F000FDF795F99DF80400FF2803D108208DF8E4
:105A000004001BE09DF80500052817DD9DF8040043
:105A100000F00F0009280BD19DF80400C01DC0B292
:105A20008DF804000AE000006E000020441D0020F4
:105A30009DF80400401CC0B28DF804009DF80400DD
:105A4000242810D13021FD4802880088401CFB4BDF
:105A50001880FB488154184602880088401C188032
:105A6000F748815418E09DF80400302101EB201123
:105A7000F24802880088401CF04B1880F04881549E
:105A80009DF8040000F00F00303019460A8809889C
:105A9000491C1980EA4988541EE0381D325CF81C04
:105AA000315C6B460C20FFF709FB0546C82D01DD74
:105AB0000020F6E400240BE01DF80420DF480188F4
:105AC0000088401CDD4B1880DD484254601CC4B285
:105AD000AC42F1DB00E000BF00BF0420E1E4781C31
