:020000040800F2
:100000009022002045010008C9250008CB250008E2
:10001000CF250008D3250008D725000800000000E0
:10002000000000000000000000000000DB250008C8
:10003000DD25000800000000DF250008E12500089C
:100040005F0100085F0100085F0100085F01000810
:100050005F0100085F0100085F0100085F01000800
:100060005F0100085F0100085F0100085F010008F0
:100070005F0100085F0100085F0100085F010008E0
:100080005F0100085F0100085F0100085F010008D0
:100090005F0100085F0100085F0100085F010008C0
:1000A0005F0100085F0100085F0100085F010008B0
:1000B0005F010008473000085F0100085F01000889
:1000C0005F0100085F0100085F0100085F01000890
:1000D0005F010008335000085F0100085F0100085D
:1000E0005F0100085F0100085F0100085F01000870
:1000F0005F0100085F0100085F0100085F01000860
:100100005F0100085F0100085F0100085F0100084F
:100110005F0100088B4F00085F0100085F010008C5
:100120005F0100085F0100085F0100085F0100082F
:10013000DFF80CD005F0DCFC00480047D552000881
:10014000902200200648804706480047FEE7FEE769
:10015000FEE7FEE7FEE7FEE7FEE7FEE7FEE7FEE777
:10016000C924000831010008DC48006840F00100A3
:10017000DA49086008464068D9490840D7494860CC
:1001800008460068D7490840D44908600846006816
:1001900020F4802008600846406820F4FE00486093
:1001A0004FF41F0088607047CC49096821F4803102
:1001B000CA4A11601146096821F480211160B0F526
:1001C000803F03D0B0F5802F0ED106E0C349096807
:1001D00041F48031C14A116007E0C049096841F427
:1001E000A021BE4A116000E000BF00BF704710B5FB
:1001F00001460022002300204A11012A02D1B74CF7
:10020000236806E0022A02D1B44C236A01E0B34C11
:10021000636A01F01F02012494401C4201D00120B6
:1002200000E0002010BD70B500240025002600BFAE
:100230003120FFF7DCFF0646641CB4F5A06F01D047
:10024000002EF5D03120FFF7D2FF08B1012500E0E4
:100250000025284670BD01460020A04A106820F005
:10026000F80040EAC100106070479F49086070477D
:1002700002460020994B586820F47C1042EA0103A2
:100280001843964B58607047974908667047014677
:100290000020924A506820F00300084350607047E5
:1002A0008E48406800F00C007047014600208B4AE1
:1002B000506820F0F000084350607047014600206D
:1002C000864A506820F4E060084350607047014659
:1002D0000020824A506820F4605040EAC10050601B
:1002E000704729B17D4A527A02437C4B5A7206E02C
:1002F0007A4A527AC343DBB21A40784B5A7270473B
:100300007A490860704701460020744A506820F41A
:1003100040400843506070470021754A11706F4A91
:1003200082F82010012802D0042808D103E001211E
:100330006F4A117004E005216D4A117000E000BFA2
:1003400000BF70476B49086070476449096A014300
:10035000624A11627047674944390860704730B596
:1003600000210022002400235C4D6D6805F00C0183
:1003700021B1042905D0082923D105E05E4D05608F
:1003800022E05D4D05601FE0544D6D6805F470126C
:10039000524D6D6805F48034022505EB92421CB97C
:1003A000564D554305600BE04C4D6D6815F4003F0C
:1003B00003D0524D5543056002E04F4D5543056053
:1003C00002E04D4D056000BF00BF444D6D6805F073
:1003D000F00109094A4D6B5C0568DD4045603F4D01
:1003E0006D6805F4E061090A454D6B5C4568DD40C8
:1003F00085603A4D6D6805F46051C90A404D6B5CEB
:100400004568DD40C560354D6D6805F44041890B98
:100410003C4D6B5CC568B5FBF3F5056130BD29B19A
:100420002E4A526902432D4B5A6104E02B4A52690D
:1004300082432A4B5A61704729B1284A9269024384
:10044000264B9A6104E0254A92698243234B9A61C4
:10045000704729B1214AD2690243204BDA6104E096
:100460001E4AD26982431D4BDA61704729B11B4A8B
:10047000D2680243194BDA6004E0184AD26882431A
:10048000164BDA60704729B1144A12690243134BC4
:100490001A6104E0114A12698243104B1A617047D5
:1004A00014494039086070470F49C86470470B49C8
:1004B000C87170470948406A40F080700749486237
:1004C000704701460020054A92680A4201D0012087
:1004D00000E0002070470149887270470010024018
:1004E0000000FFF8FFFFF6FE00004242D800424243
:1004F000201002408004424200127A0000093D00B0
:10050000000000201000002010B50446CA488442B4
:1005100008D101210420FFF7A9FF00210420FFF7E3
:10052000A5FF46E0C548844208D101210820FFF715
:100530009DFF00210820FFF799FF3AE0C048844260
:1005400008D101211020FFF791FF00211020FFF7B3
:100550008DFF2EE0BB48844208D101212020FFF707
:1005600085FF00212020FFF781FF22E0B64884426A
:1005700008D101214020FFF779FF00214020FFF73B
:1005800075FF16E0B148844208D101218020FFF7B1
:100590006DFF00218020FFF769FF0AE0AC4884422C
:1005A00007D101218015FFF761FF0021A015FFF79A
:1005B0005DFF10BD10B501210846FFF757FF002170
:1005C0000120FFF753FF10BD2DE9F0410246002541
:1005D0000026002000230024002791F803C00CF01F
:1005E0000F0591F803C01CF0100F03D091F802C062
:1005F0004CEA0505B1F800C01CF0FF0F31D01468BB
:1006000000202BE04FF0010C0CFA00F3B1F800C011
:100610000CEA03069E4220D183004FF00F0C0CFA27
:1006200003F7BC4305FA03FC4CEA040491F803C049
:10063000BCF1280F06D14FF0010C0CFA00FCC2F8F7
:1006400014C00AE091F803C0BCF1480F05D14FF087
:10065000010C0CFA00FCC2F810C0401C0828D1D3D1
:100660001460B1F800C0BCF1FF0F34DD5468002005
:100670002EE000F1080C4FF0010808FA0CF3B1F875
:1006800000C00CEA03069E4221D183004FF00F0CFC
:100690000CFA03F7BC4305FA03FC4CEA040491F896
:1006A00003C0BCF1280F05D100F1080C08FA0CF8C2
:1006B000C2F8148091F803C0BCF1480F07D100F1D3
:1006C000080C4FF0010808FA0CF8C2F81080401C22
:1006D0000828CED35460BDE8F0814FF6FF71018049
:1006E000022181700421C170704702460020936886
:1006F0000B4201D0012000E00020704701468868CD
:1007000080B2704702460020D3680B4201D001201E
:1007100000E0002070470146C86880B27047016160
:100720007047416170470AB1016100E04161704763
:10073000C16070474FF480320A43826181618261F7
:1007400082698269704702460020424B18684FF662
:100750008073184040EA021008433E4B186070470F
:100760003D49C8617047F0B50A46002300240021C6
:10077000002500F00046B6F1004F02D1354EF16978
:1007800001E0344E7168C0F3034583B200F44016B3
:10079000B6F5401F08D121F070612E4E766826F024
:1007A00070662C4F7E6012E000F48016B6F5801F54
:1007B00006D1032606FA05F4A14341F0706106E074
:1007C000460D360103FA06F6B14341F0706122B1DD
:1007D000460D360103FA06F6314300F00046B6F145
:1007E000004F02D11B4EF16101E01A4E7160F0BD65
:1007F00030B500228B071C0F0F2303FA04F2154BB0
:1008000008338C1053F824309343124C08348D1065
:1008100044F8253023468C1053F824308C07240FDD
:1008200000FA04F423430B4C08348D1044F82530AF
:1008300030BD0A490860704700080140000C0140C3
:10084000001001400014014000180140001C01404C
:10085000002001400000014000002042DC00204256
:1008600010B50446FC48844209D101218803FFF7F2
:10087000FDFD00214FF48040FFF7F8FD32E0F7481E
:10088000844209D101214804FFF7FDFD00214FF406
:100890000030FFF7F8FD25E0F148844209D101213D
:1008A0008804FFF7F0FD00214FF48020FFF7EBFDF7
:1008B00018E0EC48844209D10121C804FFF7E3FDA8
:1008C00000214FF40020FFF7DEFD0BE0E6488442F4
:1008D00008D101210805FFF7D6FD00214FF4801053
:1008E000FFF7D1FD10BD2DE9F04786B005460E4655
:1008F0000024A24600BFA1460027B08900B100BF76
:100900002F462C8A4CF6FF700440F08804432C825A
:10091000AC894EF6F3100440B088318908437189E0
:1009200008430443AC81AC8A4FF6FF400440B089D1
:100930000443AC8201A8FFF712FDC748874202D1E9
:10094000DDF810A001E0DDF80CA0A88910F4004F3C
:1009500008D00AEBCA0000EB0A1031684900B0FB6E
:10096000F1F807E00AEBCA0000EB0A1031688900D1
:10097000B0FBF1F86420B8FBF0F004012009642119
:1009800001FB1089A88910F4004F08D0322000EB39
:10099000C900B0FBF1F000F00700044308E032208A
:1009A00000EB09106421B0FBF1F000F00F000443EC
:1009B0002C8106B0BDE8F0874FF41651016000218C
:1009C0008180C18001810C2141810021818170479A
:1009D00010B502460020108A4FF2FF0318400B8822
:1009E0004C8823438C882343CC88234318431082AC
:1009F00010BD0021018041808180C180704721B1FC
:100A0000828942F40052828104E082894DF6FF73AC
:100A10001A4082817047F0B5034600240026002565
:100A20000020A1F510676A3F00D100BF1846C1F34E
:100A3000421401F01F06012707FA06F5012C01D127
:100A40000C3004E0022C01D1103000E014301AB157
:100A500007682F43076002E00768AF430760F0BDF7
:100A600010B51AB1838A0B43838204E0838ACC4396
:100A7000A4B22340838210BD028A4FF6F0731A405D
:100A80000282028A0A430282704782894FF2FF7310
:100A90001A40828182890A438281704721B182890A
:100AA00042F00202828104E082894FF6FD731A400F
:100AB00082817047028A4FF6DF731A400282028AEF
:100AC0000A430282704721B1028A42F480420282C4
:100AD00004E0028A4BF6FF731A4002827047C1F3AA
:100AE00008028280704701468888C0F3080070477A
:100AF000818941F0010181817047028BD2B202836A
:100B0000028B42EA012202837047028B02F47F4289
:100B10000283028B0A430283704721B1828A42F02A
:100B20002002828204E0828A4FF6DF731A408282BA
:100B3000704721B1828A42F01002828204E0828AE8
:100B40004FF6EF731A408282704721B1828A42F0D9
:100B50000802828204E0828A4FF6F7731A4082828A
:100B6000704721B1828942F40042828103E0828988
:100B7000C2F30E028281704721B1828A42F4006280
:100B8000828204E0828A4FF2FF731A4082827047A9
:100B9000828A4FF6FB731A408282828A0A438282DB
:100BA000704721B1828A42F00202828204E0828A86
:100BB0004FF6FD731A408282704702460020B1F55D
:100BC000007F00D100BF13880B4201D0012000E05C
:100BD0000020704701F40072B2F5007F00D100BF21
:100BE000CA430280704770B50246002400230025E6
:100BF0000020A1F510666A3E00D100BFC1F3421586
:100C000001F01F03012606FA03F3012D02D1968994
:100C1000334006E0022D02D1168A334001E0968A65
:100C200033400C12012606FA04F41688344013B13E
:100C30000CB1012000E0002070BD10B5002200239F
:100C4000A1F510646A3C00D100BF0A12012494404F
:100C5000A3B2DC43048010BD0038014000440040D2
:100C600000480040004C0040005000403149014322
:100C7000314A1160704770B5002100230F22C478FB
:100C80000CB32D4C246804F4E064C4F5E064210A3C
:100C9000C1F10403CA40447804FA03F18478144093
:100CA00021430901254C0678A155047804F01F055D
:100CB0000124AC4005786D114FF0E02606EB850568
:100CC000C5F8004109E0047804F01F050124AC4098
:100CD0001B4D0678761145F8264070BD194A0A402A
:100CE0000243154B1B1F1A60704739B1124A121D7F
:100CF00012680243104B1B1D1A6006E00E4A121DBB
:100D0000126882430C4B1B1D1A607047042808D1DF
:100D10004FF0E021096941F004014FF0E022116138
:100D200007E04FF0E021096921F004014FF0E022D3
:100D3000116170470000FA050CED00E000E400E0EE
:100D400080E100E080FFFF1F01460020FE4A10689E
:100D500000F03800084310607047FB49096821F033
:100D60000801F94A11601146096801431160704792
:100D7000F549096821F01001F34A1160114609682C
:100D8000014311607047F148EF494860F0484860FE
:100D90007047EE48EC494860ED4848607047EA48C3
:100DA000006940F08000E84908617047E648006942
:100DB00040F08000E449086170470420E249C968B6
:100DC00001F00101012901D101200EE0DE49C968CD
:100DD00011F0040F01D0022007E0DB49C96811F0CF
:100DE000100F01D0032000E00420704700B5024638
:100DF0000423FFF7E2FF034603E0FFF7DEFF0346AD
:100E0000521E012B01D1002AF7D102B90523184641
:100E100000BD30B5044604254FF43020FFF7E6FF4F
:100E20000546042D17D1C848006940F00200C649A4
:100E3000086108464461006940F0400008614FF4D1
:100E40003020FFF7D3FF0546BF48006941F6FD712A
:100E50000840BD490861284630BD10B504244FF450
:100E60003020FFF7C3FF0446042C16D1B6480069B2
:100E700040F00400B44908610846006940F04000B1
:100E800008614FF43020FFF7B1FF0446AE48006917
:100E900041F6FB710840AC490861204610BD00B521
:100EA00002460423FFF789FF034603E0FFF785FFAF
:100EB0000346521E012B01D1002AF7D102B90523A6
:100EC000184600BD10B504244FF43020FFF7E7FFAB
:100ED0000446042C16D19C48006940F004009A494D
:100EE00008610846006940F0400008614FF4302076
:100EF000FFF7D5FF04469448006941F6FB710840AE
:100F000091490861204610BD00208F49C96911F040
:100F1000020F01D0012000E00020704730B5A52568
:100F20000424FFF7F1FF00B100254FF43020FFF754
:100F30005DFF0446042C3AD1844883498860844884
:100F400088600846006940F0200008610846006992
:100F500040F0400008614FF43020FFF747FF04469F
:100F6000042C1BD17848006941F6DF7108407649AE
:100F700008610846006940F0100008617548058066
:100F8000E002FFF733FF0446052C10D06E480069DD
:100F900041F6EF7108406C49086108E0052C06D065
:100FA0006948006941F6EF710840674908612046C9
:100FB00030BDF0B504460D4604260027F002FFF7C9
:100FC00015FF0646042E22D15F48006940F001005B
:100FD0005D4908612580F002FFF708FF0646042EF0
:100FE0000ED1A71C280C3880F002FFF7FFFE064642
:100FF0005548006941F6FE7108405349086106E012
:101000005148006941F6FE7108404F490861304679
:10101000F0BD70B504460D460426F002FFF7E6FE6B
:101020000646042E11D14848006940F001004649A7
:1010300008612580F002FFF7D9FE064642480069A4
:1010400041F6FE71084040490861304670BD70B5F8
:1010500005460E460424E002FFF7C8FE0446042CB1
:1010600017D13A483849886039488860084600698D
:1010700040F0100008612E80E002FFF7B7FE044642
:10108000052C06D03048006941F6EF7108402E4922
:101090000861204670BD2DE9F04304464FF6FF7607
:1010A0003746B046B1460425E443E6B2C4F3072709
:1010B000C4F307484FEA1469E802FFF797FE0546B4
:1010C000042D40D121482049886021488860084685
:1010D000006940F010000861FF2E06D01D4808305E
:1010E0000680E802FFF782FE0546042D08D1FF2F97
:1010F00006D018480A300780E802FFF777FE054659
:10110000042D0AD1B8F1FF0F07D012480C30A0F817
:101110000080E802FFF76AFE0546042D0AD1B9F106
:10112000FF0F07D00B480E30A0F80090E802FFF741
:101130005DFE0546052D06D00348006941F6EF71B6
:1011400008400149086107E000200240230167458B
:10115000AB89EFCD00F8FF1F2846BDE8F08330B51E
:10116000054604244FF43020FFF740FE0446042CCB
:1011700041D15F485F4988605F48886008460069E0
:1011800040F0200008610846006940F04000086116
:101190004FF43020FFF72AFE0446042C22D1554894
:1011A000006941F6DF71084052490861084600694C
:1011B00040F0100008611DB100205049088002E095
:1011C000A5204E4908804FF43020FFF70FFE04465B
:1011D000052C10D04748006941F6EF710840454999
:1011E000086108E0052C06D04248006941F6DF712D
:1011F000084040490861204630BDF0B505460E461E
:10120000174604243A483B4988603B488860E0021E
:10121000FFF7ECFD0446042C19D13648006940F074
:1012200010003449086147F0F8003043284333493F
:10123000891C0880E002FFF7D9FD0446052C06D082
:101240002C48006941F6EF7108402A4908612046A0
:10125000F0BD2848C069800870472648006A70477A
:1012600000202449096811F0200F01D0012000E07E
:101270000020704729B11F4A126902431D4B1A61B1
:1012800004E01C4A126982431A4B1A6170470146F6
:101290000020012908D1174AD26912F0010F01D0AC
:1012A000012008E0002006E0124AD2680A4201D07C
:1012B000012000E0002070470E49C86070470420FC
:1012C0000C49C96801F00101012901D101200EE09A
:1012D0000849C96811F0040F01D0022007E0054950
:1012E000C96811F0100F01D0032000E004207047FE
:1012F0002301674500200240AB89EFCD00F8FF1FB6
:1013000010B50446BF48844208D101218014FFF77C
:10131000ADF80021A014FFF7A9F816E0BA488442FE
:1013200008D101210014FFF7AEF800212014FFF7C7
:10133000AAF80AE0B548844207D10121C013FFF79B
:10134000A2F80021E013FFF79EF810BD10B50022AF
:10135000028802F441520B884C8823438C88234333
:10136000CC8823430C8923434C8923438C89234312
:10137000CC8923431A430280838B4FF2FF742340AE
:1013800083830B8A038210BD2DE9F04F85B005469B
:101390000C464FF0000902274FF000084FF0010BF8
:1013A0000026B246A88B4FF240010840A8830220D5
:1013B0002884B5F81C90A068022801D100BF36E04F
:1013C000A08810B94FF0010B01E04FF0020B8E48DE
:1013D000854200D100E000BF6846FEF7C0FFDDF89F
:1013E00000A0E088B0F5007F0AD14FEA1A2000EB98
:1013F00080004000A168B0FBF1F0401D86B20BE018
:101400004FEA4B10BAFBF0F000EB80004000A168FF
:10141000B0FBF1F0401D86B20A20B6FBF0F606F0F4
:101420000108A6EB0800C0F34F074FEA0828022F77
:1014300001DBFF2F02DD02274FF00008E08840EAC1
:10144000080038432884A088A1890843618808439C
:101450002188084340F4006040EA0909A5F81C907F
:1014600005B0BDE8F08F0021018041808180C180FE
:10147000018141818181C181072101827047002161
:10148000018041808180C1800221816000218181B1
:10149000704721B1028842F04002028004E00288D5
:1014A0004FF6BF731A400280704721B1828B42F41D
:1014B0008062828304E0828B4FF6FF331A4082837E
:1014C000704770B5002400230C110125A540ABB274
:1014D0001AB185881D43858004E08588DE43B6B255
:1014E0003540858070BD10B51AB183880B43838069
:1014F00004E08388CC43A4B22340838010BD818163
:101500007047014688897047A1F57E42FF3A04D0B2
:10151000028842F48072028004E002884FF6FF6382
:101520001A400280704721B1828842F00402828012
:1015300004E082884FF6FB731A408280704702886D
:101540004FF2FF731A40028002880A4302807047FC
:10155000018841F480510180704721B1028842F432
:101560000052028004E002884DF6FF731A400280A8
:10157000704702460020012901D0108B00E0908ABC
:1015800070470146088A7047B1F5804F04D1028840
:1015900042F48042028004E002884BF6FF731A4056
:1015A000028070470246002013890B4201D00120BF
:1015B00000E000207047CA4302817047F0B5024640
:1015C000002000240023002501F00F070126BE4063
:1015D000B4B20B1101269E40B3B2968806EA030509
:1015E0001689264202D00DB1012000E00020F0BD96
:1015F00010B5002201F00F040123A3409AB2D34397
:10160000038110BD0030014000380040003C004024
:1016100010B50446FE48844208D10121C014FEF7EB
:1016200025FF0021E014FEF721FFC4E0B4F1804F54
:1016300008D101210846FEF726FF00210120FEF710
:1016400022FFB8E0F348844208D101210220FEF7CE
:101650001AFF00210220FEF716FFACE0EE4884429C
:1016600008D101210420FEF70EFF00210420FEF71F
:101670000AFFA0E0E948844208D101210820FEF7D2
:1016800002FF00210820FEF7FEFE94E0E4488442B9
:1016900008D101211020FEF7F6FE00211020FEF7F0
:1016A000F2FE88E0DF48844208D101212020FEF7C5
:1016B000EAFE00212020FEF7E6FE7CE0DA488442C4
:1016C00008D101214014FEF7D1FE00216014FEF77D
:1016D000CDFE70E0D548844209D10121C804FEF74F
:1016E000C5FE00214FF40020FEF7C0FE63E0D048A5
:1016F000844209D101210805FEF7B8FE00214FF40C
:101700008010FEF7B3FE56E0CA48844209D1012199
:101710004805FEF7ABFE00214FF40010FEF7A6FED1
:1017200049E0C548844208D101214020FEF7ABFEC4
:1017300000214020FEF7A7FE3DE0C048844208D1CA
:1017400001218020FEF79FFE00218020FEF79BFEF6
:1017500031E0BB48844208D101218015FEF793FE99
:101760000021A015FEF78FFE25E0B648844209D17E
:1017700001210804FEF77AFE00214FF48030FEF7C5
:1017800075FE18E0B048844209D101214804FEF7F3
:101790006DFE00214FF40030FEF768FE0BE0AB4811
:1017A000844208D101218804FEF760FE00214FF435
:1017B0008020FEF75BFE10BD00220288944B984209
:1017C0000ED0994B98420BD0B0F1804F08D0914B7E
:1017D000984205D0904B984202D0904B984204D149
:1017E0004FF68F731A404B881A438D4B984207D09F
:1017F0008C4B984204D04FF6FF431A40CB881A43D3
:1018000002808B8883850B880385814B98420BD09F
:10181000854B984208D08B4B984205D08A4B984212
:1018200002D08A4B984201D10B7A0386012383822E
:10183000704770B5002400220023058C4FF6FE7619
:1018400035400584028C8388048B4FF68F752C40BD
:10185000B51E2C400D882C43751E2A400D892A4345
:101860004D882A436A4DA8420BD06F4DA84208D03C
:10187000744DA84205D0744DA84202D0734DA842C1
:1018800013D14FF6F7752A404D892A434FF6FB7561
:101890002A408D882A434FF6FF652B404FF6FF55AF
:1018A0002B408D892B43CD892B4383800483CD88A6
:1018B0008586028470BD70B5002400220023058C4B
:1018C0004FF6EF7635400584028C8388048B48F60A
:1018D000FF752C404FF6FF452C400D882D0644EA3D
:1018E00015444FF6DF752A400D892D0542EA154251
:1018F0004D882D0542EA1542454DA84202D04A4D79
:10190000A8421BD14FF67F752A404D892D0542EA2A
:1019100015424FF6BF752A408D882D0542EA1542C3
:101920004FF6FF352B404FF2FF752B408D89AD04EC
:1019300043EA1543CD89AD0443EA1543838004830C
:10194000CD880587028470BD70B500240022002375
:10195000058C4FF6FF6635400584028C8388848BA6
:101960004FF68F752C404FF6FC752C400D882C439C
:101970004FF6FF552A400D892D0642EA15424D8843
:101980002D0642EA1542224DA84202D0264DA84219
:101990001BD14FF2FF752A404D892D0642EA1542B0
:1019A0004FF6FF352A408D882D0642EA15424EF645
:1019B000FF752B404DF6FF752B408D892D0543EAB1
:1019C0001543CD892D0543EA154383808483CD8853
:1019D0008587028470BD70B5002200230024058C29
:1019E0004EF6FF7635400584038C8488828B48F65A
:1019F000FF752A404FF6FF452A400D882D0642EA22
:101A000015424DF6FF752B400D892D0720E0000093
:101A1000002C01400004004000080040000C004081
:101A2000001000400014004000340140004C014010
:101A3000005001400054014000180040001C0040CC
:101A400000200040004001400044014000480140A7
:101A500043EA15434D882D0743EA1543F84DA84244
:101A600002D0F84DA84206D14BF6FF752C408D8967
:101A7000AD0544EA154484808283CD88A0F84050A7
:101A8000038470BD828B4FF2FF331A408283828BB6
:101A90000B0642EA134282837047F0B50C461546A6
:101AA000002200210026078C4EF6FF7C07EA0C0777
:101AB0000784828B018C27073E0C40F6FF473A4093
:101AC0002F0642EA17421F0742EA1742DC4FB8428C
:101AD0000ED0DC4FB8420BD0B0F1804F08D0DA4FB7
:101AE000B84205D0D94FB84202D0D94FB84206D13A
:101AF0004DF6FF77394046F48057394305E047F605
:101B0000FF57394044F48057394382830184F0BD44
:101B1000828B4FF6F3731A408283828B0A4382834F
:101B20007047F0B50C461546002200210026078CB0
:101B30004FF6FF6C07EA0C070784828B018C27069F
:101B40003E0C4FF60C773A401F0545EA17473A43DB
:101B5000BB4FB8420ED0BB4FB8420BD0B0F1804F54
:101B600008D0B94FB84205D0B84FB84202D0B84FEC
:101B7000B84206D14FF6FF57394046F480773943D3
:101B800005E04FF2FF57394044F4807739438283B0
:101B90000184F0BD028B4FF2FF331A400283028BA7
:101BA0000B0642EA134202837047F0B50C46154615
:101BB000002200210026078C4FF6EF7C07EA0C0775
:101BC0000784028B018C27053E0C40F6FF473A4004
:101BD0001F0742EA17422F0642EA1742984FB842BF
:101BE0000ED0984FB8420BD0B0F1804F08D0964F2E
:101BF000B84205D0954FB84202D0954FB84206D1B1
:101C00004FF6DF77394046F01007394305E04FF6CD
:101C10005F77394044F01007394302830184F0BDF7
:101C2000028B4FF6F3731A400283028B0A4302833E
:101C30007047F0B50C46154600220021068C4FF681
:101C4000FE773E400684028B018C4FF60C763240C4
:101C50001E0545EA16463243794EB0420ED0794E03
:101C6000B0420BD0B0F1804F08D0774EB04205D0D3
:101C7000764EB04202D0764EB04206D14FF6FD7697
:101C8000314044F00106314305E04FF6F57631402E
:101C900044F00106314302830184F0BD70B505466E
:101CA0000C46674885420ED0664885420BD0B5F198
:101CB000804F08D06448854205D06448854202D0F0
:101CC0006348854200D100E000BF208850B92389D5
:101CD000A28861882846FFF7ACFFE1882846FFF715
:101CE0009FFF25E0208804280AD12389A2886188E3
:101CF0002846FFF75AFFE1882846FFF74BFF17E019
:101D0000208808280AD12389A28861882846FFF7FD
:101D100008FFE1882846FFF7FBFE09E02389A28837
:101D200061882846FFF7B9FEE1882846FFF7AAFE3A
:101D300070BD2DE9F04105460C460026012760885C
:101D400008B9022600E00026A088012801D1022758
:101D500000E001272088A0B92389A288618828464D
:101D6000FFF767FFE1882846FFF75AFF23893A46C5
:101D700031462846FFF719FFE1882846FFF70AFF9A
:101D800013E02389A28861882846FFF70EFFE188C7
:101D90002846FFF7FFFE23893A4631462846FFF7DB
:101DA00048FFE1882846FFF73BFFBDE8F0810A883D
:101DB0004B881A438B881A43CB881A430B891A43E2
:101DC0004B891A438B891A43A0F8442070474FF679
:101DD000FF71818000210180C180418001727047C4
:101DE0000021018041808180C18001814181818108
:101DF000C181704700210180418001218180002143
:101E0000C180018170470021018041808180C180B3
:101E1000018141818181704721B1028842F0010234
:101E2000028004E002884FF6FE731A400280704779
:101E300081B1B0F8442042F40042A0F844200FE001
:101E4000002C014000340140000400400008004024
:101E5000000C0040B0F84420C2F30E02A0F8442069
:101E6000704710B51AB183890B43838104E08389DD
:101E7000CC43A4B22340838110BD8182704741EAE4
:101E80000203A0F84830704710B51AB183890B439C
:101E9000838104E08389CC43A4B22340838110BDB5
:101EA00001894FF6F8721140018170470A460021FE
:101EB00001894FF68F73194011430181704730B586
:101EC00004460D4629462046FFF7F0FF208940F0E2
:101ED0000700208130BD2DE9F04104460D4616462D
:101EE0001F46602D06D13B46012231462046FFF7B2
:101EF0005CFE05E03B46012231462046FFF799FE95
:101F000029462046FFF7D2FF208940F007002081B4
:101F1000BDE8F08130B50C4600210189C9B21D062B
:101F200042EA154525432943018130BD2DE9F041A1
:101F300005460E4617469846002443463A46314623
:101F40002846FFF7E7FF2C894FF6F870044044F06D
:101F500007044FF68F70044044F070042C81BDE8F4
:101F6000F081F0B504460D4616461F463B46324604
:101F700029462046FFF7CEFF208940F4804020818B
:101F8000F0BD0185828270470A46002101884FF624
:101F90008F731940114301807047F0B50C46154608
:101FA0001E460021002200230189028B038C4FF67C
:101FB000F877394021434FF6FC473A4040F2011789
:101FC0003A434FF6DD773B40370545EA17473B4339
:101FD000018102830384F0BD0A460021018B4FF684
:101FE0008F7319401143018370470A460021018B0A
:101FF00048F6FF731940130641EA13410183704705
:102000000A460021818B4FF68F731940114381835B
:1020100070470A460021818B48F6FF73194013066A
:1020200041EA13418183704721B1028842F0800266
:10203000028004E002884FF67F731A4002807047E6
:1020400021B1828842F00402828004E082884FF647
:10205000FB731A408280704721B1828842F00802E7
:10206000828004E082884FF6F7731A4082807047BE
:1020700021B1828842F00102828004E082884FF61A
:10208000FE731A40828070470A460021018B4FF68A
:10209000F77319401143018370470A460021018BF1
:1020A0004FF2FF731940130641EA13410183704751
:1020B0000A460021818B4FF6F77319401143818343
:1020C00070470A460021818B4FF2FF7319401306B7
:1020D00041EA1341818370470A460021018B4FF684
:1020E000FB7319401143018370470A460021018B9D
:1020F0004FF6FF331940130641EA1341018370473D
:102100000A460021818B4FF6FB73194011438183EE
:1021100070470A460021818B4FF6FF3319401306A2
:1021200041EA1341818370470A460021018B4FF633
:102130007F7319401143018370470A460021018BC8
:10214000C1F30E01130641EA1341018370470A46A9
:102150000021818B4FF67F731940114381837047B3
:102160000A460021818BC1F30E01130641EA134197
:10217000818370470A460021018C4FF6FD73194098
:102180001143018470470A460021018C4FF6F77312
:1021900019401143018470470A460021018C4FF613
:1021A000DF731940130541EA1341018470470A4661
:1021B0000021018C4FF67F731940130541EA13414A
:1021C000018470470A460021018C4FF6FF531940E5
:1021D000130641EA1341018470470A460021018C2D
:1021E0004FF2FF731940130641EA1341018470470F
:1021F0000A460021018C4DF6FF731940130741EA8E
:1022000013410184704730B5002301248C40A3B2F0
:10221000048CDD43ADB22C400484048C02FA01F539
:10222000ADB22C43048430BD30B5002304248C406F
:10223000A3B2048CDD43ADB22C400484048C02FABA
:1022400001F5ADB22C43048430BD70B503460020C7
:1022500000241846183001258D40ACB21D8CE64391
:10226000B6B235401D8409B1082909D100EB6100DF
:10227000056825F0700505600568154305600CE0EC
:102280000D1FADB200EB6500056825F4E045056063
:102290000568160645EA1645056070BD21B102883D
:1022A00042F00202028004E002884FF6FD731A40F9
:1022B0000280704721B1028842F00402028004E0EB
:1022C00002884FF6FB731A400280704721B1828862
:1022D00042F08002828004E082884FF67F731A40C9
:1022E0008280704702884FF6F7731A400280028896
:1022F0000A430280704782884FF68F731A408280AB
:1023000082880A438280704702894FF6F8731A4028
:10231000028102890A430281704702894FF67F7366
:102320001A40028102890A43028170478184704702
:102330008185704781867047018770478187704724
:10234000A0F84010704702884FF6FF431A40028001
:1023500002880A43028070470146888E7047014612
:10236000088F70470146888F70470146B1F84000DA
:1023700070470146888C70470146088D70470246B9
:102380000020138A0B4201D0012000E0002070479A
:10239000CA430282704730B5024600200023002461
:1023A000158A05EA0103958905EA010413B10CB108
:1023B000012000E0002030BDCA43028270470000C7
:1023C0000E49086070470D49486070470B498860A6
:1023D00070474AF6AA200949086070474CF6CC407D
:1023E00006490860704701460020044AD2680A4244
:1023F00001D0012000E000207047000000300040C4
:1024000000210020674A126842F48032654B1A604E
:1024100000BF644A126802F40030491C10B9B1F5DB
:10242000A06FF6D15F4A126812F4003F01D001207C
:1024300000E00020012842D15B4A126842F01002FD
:10244000594B1A601A46126822F003021A601A46A3
:10245000126842F002021A60524A5268514B5A60A6
:102460001A4652685A601A46526842F480625A60AC
:102470001A46526822F47C125A601A46526842F494
:10248000E8125A601A46126842F080721A6000BF61
:10249000444A126812F0007FFAD0424A526822F091
:1024A0000302404B5A601A46526842F002025A60D8
:1024B00000BF3C4A526802F00C02082AF9D170476A
:1024C00010B5FFF79DFF10BD10B53648006840F00D
:1024D00001003449086008464068344908403149E1
:1024E000486008460068324908402E49086008469E
:1024F000006820F4802008600846406820F4FE0050
:1025000048604FF41F008860FFF7DAFF4FF000606B
:102510002849086010BD10B5002100200022214B81
:102520005B6803F00C0121B1042906D0082928D1E9
:1025300007E0214B214C236027E01F4B1F4C2360F9
:1025400023E0184B5B6803F47010164B5B6803F4D0
:102550008032022303EB904022B9194B4343174CBE
:1025600023600DE00F4B5B6813F4003F04D0144B65
:102570004343124C236003E00F4B43430F4C236053
:1025800003E00D4B0D4C236000BF00BF054B5B68A3
:10259000C3F303130B4CE15C084B1B68CB40074CA7
:1025A000236010BD00100240002002400000FFF830
:1025B000FFFFF6FE08ED00E000127A001400002094
:1025C00000093D0018000020704700BFFEE700BF73
:1025D000FEE700BFFEE700BFFEE7704770477047A9
:1025E0007047000010B56FF00400FEF78FFB2A481B
:1025F00000682A49B0FBF1F02949087008460078C4
:102600004FF47A7148432749088010BD0146244A97
:1026100012784A434FF0E0235A6100229A611A4629
:10262000126942F001021A6100BF4FF0E022106906
:1026300010F0010F02D010F4803FF6D04FF0E022EE
:10264000126922F001024FF0E0231A6100229A6120
:1026500070470146134A12884A434FF0E0235A61FB
:1026600000229A611A46126942F001021A6100BF03
:102670004FF0E022106910F0010F02D010F4803FFB
:10268000F6D04FF0E022126922F001024FF0E02371
:102690001A6100229A6170471400002000127A002B
:1026A000280000202A00002010B5002407E004F5CF
:1026B000A87000F0F5F900F07EFD601CC4B2502C4B
:1026C000F5DB002407E004F5857000F0E9F900F07F
:1026D00072FD601CC4B20A2CF5DBE02000F0E0F9CA
:1026E00000F069FDE12000F0DBF900F064FDF0206E
:1026F00000F0D6F900F05FFD4FF4887000F0D0F9DB
:1027000000F059FD4FF4907000F0CAF900F053FD4D
:102710004FF4007000F0C4F900F04DFD10BD000052
:1027200000B587B001210820FDF786FE012188034E
:10273000FDF78FFE4FF46040ADF8180018208DF8BB
:102740001B0003208DF81A0006A93348FDF73CFF53
:102750004FF460413048FDF7E2FF0020ADF804007F
:102760004FF48270ADF806000020ADF8080002209A
:10277000ADF80A000120ADF80C004002ADF80E00E3
:102780003820ADF810000020ADF812000720ADF899
:10279000140001A92148FEF7D9FD01211F48FEF7C9
:1027A00078FE07B000BD10B504461C4800884FF6FF
:1027B000C7710840194908800846008820430880EE
:1027C00001211648FEF765FE10BD70B505460024D0
:1027D00005E0601CC4B2C82C01DD002070BD0221E0
:1027E0000F48FEF7DFFE0028F3D029460C48FEF71D
:1027F00086FE002405E0601CC4B2C82C01DD002068
:10280000ECE701210648FEF7CDFE0028F3D004488E
:10281000FEF777FEC0B2E1E7000C0140003800404F
:102820000030014000B587B001212420FDF704FEEF
:1028300001210803FDF700FE2020ADF8040003206D
:102840008DF8060018208DF8070001A9EA48FDF769
:10285000BBFE4020ADF8040001A9E748FDF7B4FE37
:102860008020ADF8040001A9E348FDF7ADFE10207B
:10287000ADF804008DF8070001A9DF48FDF7A4FEBC
:102880001021DD48FDF74BFF0020ADF808004FF4A4
:102890008270ADF80A000020ADF80C000220ADF8FF
:1028A0000E000120ADF810004002ADF81200082023
:1028B000ADF814000020ADF816000720ADF81800A0
:1028C00002A9CE48FEF742FD0121CC48FEF7E1FD0A
:1028D00007B000BD10B500241021C748FDF721FF47
:1028E0000520FFF772FFFF20FFF76FFF044610215E
:1028F000C148FDF714FF204610BD10B50446102155
:10290000BD48FDF70EFF0120FFF75FFF2046FFF7F0
:102910005CFF1021B848FDF702FF10BD10B5102173
:10292000B548FDF7FEFE0620FFF74FFF1021B24825
:10293000FDF7F5FE10BD10B51021AF48FDF7F1FE13
:102940000420FFF742FF1021AB48FDF7E8FE10BD61
:1029500010B500241021A848FDF7E3FE9020FFF7F2
:1029600034FF0020FFF731FF0020FFF72EFF00208B
:10297000FFF72BFFFF20FFF728FF44EA0024FF208A
:10298000FFF723FF044310219B48FDF7C8FE2046B4
:1029900010BD2DE9F04107460C4616461021964819
:1029A000FDF7BFFE0320FFF710FFC4F30740FFF75A
:1029B0000CFFC4F30720FFF708FFE0B2FFF705FFA5
:1029C000B6F5806F01DDBDE8F081002505E0FF2050
:1029D000FFF7FBFE7855681C85B2B542F7DB102186
:1029E0008548FDF79CFE00BFEDE710B500BFFFF77F
:1029F00071FF00F001000128F9D010BD2DE9F04170
:102A000007460C461646FFF789FF10217A48FDF766
:102A100088FE0220FFF7D9FEC4F30740FFF7D5FE7A
:102A2000C4F30720FFF7D1FEE0B2FFF7CEFEB6F504
:102A3000806F01DDBDE8F081002504E0785DFFF7DF
:102A4000C4FE681C85B2B542F8DB10216A48FDF768
:102A500066FEFFF7CAFF00BFECE72DE9F04107462D
:102A60000E461446F0B2C0F58075AC4200DC254637
:102A700012E02A4631463846FFF7C0FFAC4200D18B
:102A80000BE02F442E44601B84B2B4F5807F02DD3E
:102A90004FF4807500E02546EBE700BFBDE8F0810C
:102AA00010B504462403FFF739FFFFF79EFF1021FE
:102AB0005148FDF736FE2020FFF787FEC4F307409C
:102AC000FFF783FEC4F30720FFF77FFEE0B2FFF7B6
:102AD0007CFE10214848FDF722FEFFF786FF10BD5F
:102AE0002DE9F04781460F4616464FEA1738C7F3DF
:102AF0000B0ACAF58054A64200DC344644E04FEA93
:102B000008314FF480523E48FFF743FF002508E0AC
:102B10000AEB05003A49085CFF2800D003E0681C76
:102B200085B2A542F4DB00BFA54216DA4046FFF7A6
:102B3000B7FF002507E019F8050005EB0A01304A48
:102B40005054681C85B2A542F5DB4FEA08314FF4BA
:102B500080522B48FFF781FF04E022463946484661
:102B6000FFF77BFFA64200D10FE008F101084FF00C
:102B7000000AA1442744301B86B2B6F5805F02DD0F
:102B80004FF4805400E03446B9E700BFBDE8F08759
:102B900010B5FFF7C3FEFFF728FF10211648FDF719
:102BA000C0FDC720FFF711FE10211348FDF7B7FD48
:102BB000FFF71BFF10BD10B510210F48FDF7B1FD49
:102BC000B920FFF702FE10210B48FDF7A8FD0320F6
:102BD000FFF71CFD10BD10B510210748FDF7A1FD42
:102BE000AB20FFF7F2FD10210348FDF798FD03200D
:102BF000FFF70CFD10BD000000080140003001404F
:102C00007000002030B502460B460020002108E08D
:102C1000545C4440E4B2124D55F8244084EA10203C
:102C2000491C9942F4D330BD30B502460B464FF6ED
:102C3000FF70002110E0555C6840002409E010F0AE
:102C4000010F04D040084AF20105684000E0400846
:102C5000641C082CF3DB491C9942ECD330BD000006
:102C6000A06200080146088870472DE9F04105463A
:102C70000E461746002407E036F814102846FEF7E3
:102C8000C8F9AD1C601C84B2BC42F5DBBDE8F08124
:102C900030B503460C461546002207E01846FFF7FC
:102CA000E1FF24F812009B1C501C82B2AA42F5DB03
:102CB00030BD2DE9F05F80468A461746B8F1006FB7
:102CC00002D33748804501D3BDE8F09FFEF75BF89B
:102CD000A8F1006B4FEADB25CBF34909C9F5806405
:102CE000A74200DC3C464DE04FF0006101EBC520FF
:102CF0004A142C49FFF7CCFF00260BE009EB060035
:102D0000284931F81000A0F57F41FF3900D003E0D9
:102D1000701C86B2A642F1DB00BFA6421BDA4FF060
:102D2000006101EBC520FEF774F8002608E03AF8D0
:102D3000160006EB09011B4A22F81100701C86B22E
:102D4000A642F4DB4FF0006101EBC5204A1415499F
:102D5000FFF78BFF04E0224651464046FFF785FF10
:102D6000A74200D10FE06D1C4FF000090AEB440AA6
:102D7000A044381B87B2B7F5806F02DD4FF4806442
:102D800000E03C46B0E700BFFEF709F800BF9BE754
:102D900013B50446012201A92046FFF78AFF1CBD96
:102DA00000000808701000200346190903F00F0204
:102DB000092903DD01F13700C1B202E001F1300061
:102DC000C1B2092A03DD02F13700C2B202E002F10A
:102DD0003000C2B242EA01207047024600201EE0E5
:102DE000135C302B06DB135C392B03DC135C303BAC
:102DF000135412E0135C412B06DB135C462B03DCFF
:102E0000135C373B135408E0135C612B05DB135C48
:102E1000662B02DC135C573B1354431CD8B2884228
:102E2000DEDB70471CB5024642F21073042113E04A
:102E300000200DF8010006E0D21A1DF80100401C28
:102E4000C0B20DF801009A4201D3092BF4D80A2030
:102E5000B3FBF0F3481EC1B20029E9D1D0B28DF81E
:102E600000009DF8040000049DF8034040EA04308F
:102E70009DF8024040EA04209DF8014040EA041019
:102E80009DF8004020431CBD014601F0F0000011F8
:102E900000EB8002500001F00F020244D0B27047F4
:102EA0002DE9FC4303460D461646002294460027B2
:102EB000002D02DA6D424FF0010C0A2095FBF0F86C
:102EC00000FB1850303000F0FF09104602F10108F5
:102ED00008F0FF0203F800900A2095FBF0F511E0DE
:102EE0000A2095FBF0F800FB1850303000F0FF0985
:102EF000104602F1010808F0FF0203F800900A20D2
:102F000095FBF0F5002DEBD1501EC1B20EE0D85D5F
:102F100013F8018003F807805854A1F1010808F064
:102F2000FF0107F1010808F0FF0700BF8F42EEDB49
:102F3000BCF1010F17D12D208DF80000002405E011
:102F400013F80480601C0DF80080C4B29442F7DBD3
:102F5000501CC2B2002404E01DF804001855601C87
:102F6000C4B29442F8DB002E3EDD501EC1B2B24224
:102F700013DD06E013F80180481C03F80080481EAA
:102F8000C1B2901B8842F5DD4FF02E08481C03F8B3
:102F90000080501CC0B2BDE8FC83002912DD06E0B1
:102FA00013F80180881C03F80080481EC1B2002974
:102FB000F6DC187898702E20587030201870901C0D
:102FC000C0B2E8E713F80180701C03F80080002706
:102FD00003E03020D855781CC7B2B742F9DD2E2067
:102FE0005870B01CC0B2D6E71046D4E77FB505468E
:102FF0000C4601210220FDF72CFAADF80850ADF87F
:1030000004400020ADF80A00ADF8060001A93748D9
:10301000FEF7D2FB012211463448FEF722FF1D20A5
:103020008DF8000005208DF8010000208DF80200C9
:1030300001208DF803006846FDF71DFE01212B4895
:10304000FEF7EAFE7FBD10B501212848FFF7A3F97E
:1030500030B101212548FFF7AFF90120244908705C
:1030600010BD244800686FEA00002349C1F89001B0
:1030700022480078012804D121480078401C2049CA
:1030800008701F480078052808DD00201C490870DA
:103090001A4908701B4908701B4908701B480078C2
:1030A000002809DD19480078FF2805D01748007866
:1030B000401E1649087017E014480078FF2800D118
:1030C00070471348017813480078401C814205DDA1
:1030D00010480078401C0F49087002E000200D499C
:1030E000087001200C49087000BFE9E700040040A7
:1030F0005B00002090012242000022425900002083
:103100005A0000204000002034000020570000201A
:1031100055000020560000205800002008B501216D
:103120001020FDF789F93C20ADF8000010208DF843
:10313000030003208DF8020069462148FDF744FA98
:103140001C211F48FDF7EBFA01210820FDF774F957
:103150000120ADF8000010208DF8030003208DF849
:10316000020069461748FDF72FFA01211548FDF7BF
:10317000D6FA01210420FDF75FF94FF48050ADF835
:10318000000028208DF8030069460F48FDF71CFA5F
:1031900008BD70B505460C4645F25550FFF710F9CD
:1031A0002846FFF710F92046FFF710F9FFF711F94D
:1031B000FFF714F970BD10B5FFF70BF910BD000053
:1031C00000100140000C01400008014008B5012139
:1031D0000420FDF731F941F20300ADF800001020A2
:1031E0008DF8030002208DF802006946FE48FDF7C5
:1031F000EBF90321FC48FDF792FA0120FFF729FAC9
:1032000008BD70B505460026F748006820F0F000BC
:10321000F54908600846006840F0300008608024E6
:103220001EE02C4203D00120F049086002E000209B
:10323000EE4908604FF00100FFF7E8F90120EC4982
:1032400008604FF00200FFF7E1F90020E949C1F8FA
:1032500080010120FFF7DAF9204604EBD0714C1011
:10326000002CDEDCE048006820F0F000DE49086059
:103270000846006840F0800008600120FFF7C6F9AA
:103280000120DB490860FFF7C1F9DA48D0F80401F2
:10329000C6B20020D64908604FF00100FFF7B6F92A
:1032A0003220FFF7B3F9D048006820F0F000CE4993
:1032B00008600846006840F0300008600120CD49F1
:1032C000C1F88401FFF7A2F9C748006820F0F000B8
:1032D000C54908600846006840F080000860052085
:1032E000FFF794F9304670BD70B505460026012001
:1032F000BE490860BC48006820F0F000BA49086088
:103300000846006840F0800008604FF00000B949AE
:10331000C1F880014FF00100FFF778F9802416E032
:103320000120B34908604FF00400FFF76FF9B1487E
:10333000D0F8040100B126430020AD4908604FF0E9
:103340000400FFF763F9204604EBD0714C10002C09
:10335000E6DCA548006820F0F000A34908600846B4
:10336000006840F0300008600DB9012000E0002046
:103370009E4908604FF001009E49C1F880014FF05E
:103380000300FFF743F90020994908604FF003005C
:10339000FFF73CF901209749C1F88401304670BD20
:1033A00010B50120914908604FF000009149C1F823
:1033B00080014FF00100FFF729F901208C490860D6
:1033C000FFF724F900208B49C1F884010120FFF7A1
:1033D0001DF90020864908604FF00100FFF716F93B
:1033E0000120FFF713F901208249C1F88001FFF79E
:1033F0000DF901207F49C1F88401FFF707F900208A
:103400007C49C1F880010120FFF700F900207749CD
:10341000086010BD10B50120744908604FF000002D
:103420007449C1F8800104460FE00120704908602A
:103430004FF00200FFF7EAF800206E49C1F8800162
:103440000220FFF7E3F8601CC4B2092CEDDBFFF7A4
:10345000A7FF10BD10B50024FFF7DCFF1E20FFF70B
:10346000D0FE2044C4B2204610BD70B504460D46BF
:103470000026FFF795FF0720FFF7C3FE0646012051
:10348000FFF732FF20700020FFF72EFF2870304634
:1034900070BD70B505460024FFF782FF0620FFF7D8
:1034A000B0FE2044C4B22878FFF7ABFE2044C4B27B
:1034B000204670BD2DE9F04105460F469046002498
:1034C000FFF76EFFB8F1000F03D0B8F1010F0AD17A
:1034D00004E00320FFF795FE044405E00520FFF714
:1034E00090FE044400E000BF00BF002607E0424811
:1034F000006800B907E00520FFF788F8761C4FF652
:10350000FF708642F3D300BF3B48006800B1641CE3
:103510003548006820F0F00033490860084600682C
:1035200040F0300008600120FFF7DEFE68700120E7
:10353000FFF7DAFE28700020FFF7D6FE3870E0B201
:10354000BDE8F0812DE9F04F8BB006460F462B48C1
:1035500009902B4808902B4807902B4806902B4841
:1035600005903068049038680390039802F087F95A
:10357000274A284BCDE9000102F070F804460022EA
:10358000254B02F065F8824602F0A4F981461C48FA
:10359000049901F087FF82461A48049901F082FFDE
:1035A0008346049901F07EFF0546514601F022FF53
:1035B0000446124901F01EFF02901448049901F0DC
:1035C00071FF8346104901F015FF0546134948462F
:1035D00001F062FF8246294601F064FF0446029929
:1035E00001F008FF80461BE00008014084012142F1
:1035F000800121420000214204012142000080C0DC
:1036000054E3253DA2E73BB60AD7233CACC5A73817
:103610007B14AE47E17A843F000044400000C8417B
:103620006049404602F07CF901D2DFF878814046DB
:1036300002F025F904465C4A5C4B02F037F901D2EE
:10364000DFF86C81C7F80090C6F800800BB0BDE8C9
:10365000F08F2DE9F04F8BB083460E46584602F0AE
:103660000EF9074602F0A0FC044600224FF080430A
:1036700001F0EEFFCDE90401304602F000F9044606
:10368000494A4C4B01F044FF07468846304602F059
:10369000F6F804460022484B01F0E0FF3A46434664
:1036A000CDE9000102F04AF88146444A444B01F05A
:1036B0002FFFCDE90201DDE9042301F029FFCDE967
:1036C000060102F007F90990099802F0D8F80446BB
:1036D0003C4A3D4B01F0BFFF81468A46099802F003
:1036E000CEF80746354A364B01F0B2FF04462E4A63
:1036F000304B01F0B3FF4A465346CDE9040102F0D6
:103700001DF8CDE9060102F0E5F8089008980BB025
:10371000BDE8F08F38B500202C4908602C490860BE
:10372000FFF754FDFFF776FE002401226946284882
:10373000FFF7C0FE2044C4B2002269462348FFF7C9
:10374000B9FE2044C4B214B1FFF764FE0EE0204974
:10375000086802F062F81E4908601C49086802F017
:103760005CF81A4908601A48FFF7ECFE002500E0F3
:103770006D1C042DFCD315490868164901F092FE12
:1037800012490860086802F066F8054610490868A2
:10379000104901F087FE0E490860086802F05BF8E6
:1037A000054638BD0000C8429A9999999999B93F40
:1037B000CDCCCC3D99A96D4000001E4085B185203F
:1037C0000725E53F185B0872505220406400002036
:1037D0006000002000002041F0B591B006460024B2
:1037E00011E0162C03D1301209A9085509E0172C55
:1037F00002D109A90E5504E0FD48005D09A908554C
:1038000000BF601CC4B21B2CEBDB082507E009A835
:10381000415DA5F1080001AA1154681CC5B21B2D19
:10382000F5DB132101A8FFF7EDF987B22046611CF3
:10383000CCB209A90F543A122046611CCCB209A996
:103840000A545A222046611CCCB209A90A54002409
:103850000CE009A8015DE748FDF741F900BFE54824
:10386000008810F0800FFAD0601CC4B21E2CF0DB70
:1038700011B0F0BD10B5E0480088B0F5007F00DD64
:1038800010BD002405E0A521DC48FDF728F9601CE7
:1038900084B2082CF7DB002406E0D948015DD74844
:1038A000FDF71DF9601C84B2D34800888442F4DB24
:1038B00000BFE5E72DE9F041ADF5047DCE48008875
:1038C000C11ECF48FFF79EF90746CB480088C01EAF
:1038D000CB49095CC8480088801EC94A105C41EA8F
:1038E0000028474576D11046C07B1146897B40EAC7
:1038F0000120C4490880C04800880C38BE490880AF
:10390000002506E0BE4905F10C00085C01A94855F8
:103910006D1CB94800888542F4D39DF807009DF8D6
:10392000061000EB012086B2B6480088FFF754FF6E
:103930004AF20131701A8E4274D00BDCB6F5224F78
:1039400012D06FF42240301872D002286CD0FF28B9
:1039500067D155E0012866D005287AD0072864D0C1
:10396000B0F5606FF4D1B6E09DF80900042820D0CE
:1039700006DC012809D002280ED003283CD112E031
:10398000052828D0102837D137E001209E4908703B
:1039900000209E49087031E000209B4908700120FA
:1039A0009A4908702AE000209749087097490870E2
:1039B00024E0012096490870084600788DF804023A
:1039C000E020FFF76DF801224FF4602181A8FFF796
:1039D00044F813E09AE002208D4908700846007808
:1039E0008DF80402E020FFF75BF801224FF460211C
:1039F00081A8FFF732F801E000BF00BF00BF84E0FC
:103A00009DF80B00012801D1824908609DF80B0048
:103A1000022802D100207F49086076E002E007E03A
:103A200002E06FE000BF00BF00BFFFF723FF6CE0C4
:103A30009DF8090018B101280AD105E009E076A037
:103A400002F078F800BFFEE7FEF72EFE00BFFEE7AB
:103A50005BE069480088083801A90C5C664800886A
:103A6000801F085C70B904F5A870FFF719F8624868
:103A70000088C01E82B204F5A870010301A8FEF7F9
:103A8000ECFF27E05C480088801F01A9085C00F07B
:103A90000F0001280ED104F58570FFF701F8564894
:103AA0000088C01E82B204F58570010301A8FEF7EC
:103AB000D4FF0FE050480088801F01A9085C00F087
:103AC0000F00022806D14C480088C01E82B25A4816
:103AD000FFF7EFF819E04FF40070FEF7E1FF4648FA
:103AE0000088C01E82B24FF4001101A8FEF7B5FF96
:103AF00041480088C01E82B24FF4001101A8FEF7B1
:103B000048FF02E0FFF7B6FE00BF03E04AF20510EF
:103B1000FFF762FE0DF5047DBDE8F08170B57E20F3
:103B200046490870464800784870464800788870D2
:103B300045480078C87009200871314840794871BB
:103B40002F48807988712E48C079C8712C48007A36
:103B500008722B48407A4872002088723B480078EF
:103B6000C8720C213548FFF75FF885B233490D73F1
:103B70002812487300240CE03048015D1D48FCF712
:103B8000AEFF00BF1B48008810F0800FFAD0601C09
:103B900084B20E2CF0DB70BD2DE9F04389B01648DD
:103BA0000088811E1648FFF73FF8804612480088BB
:103BB000401E1349095C10480088801E104A105CA2
:103BC00041EA0029104680781D4908701046407867
:103BD0001C49087001201E490870C8457ED1104656
:103BE000C67819480670F01F082878D232E0000025
:103BF000F7660008003801404800002000500040EF
:103C0000001900205C000020460000205800002021
:103C100054000020808121420D0A205359536E52D6
:103C200045535420706C6561736520776169742E0B
:103C30002E2E2EA3A10D0A0000E007087018002008
:103C4000300000202E0000202F0000202C0000203B
:103C50002D000020DFE800F0FDFCDF43B304430546
:103C600000BFFE49087AFFF70FF9FD490870FD48CB
:103C700000780C2802DD09B0BDE8F083002497E04D
:103C8000C4EBC400F84901EB80004079F34989781E
:103C900088427DD1F5480088C01EF049085C0328A1
:103CA00002D0172808D103E00420F149087004E08D
:103CB0000620EF49087000E000BF00BFC4EBC4005D
:103CC000E94911F820500027AA208DF80400E348A4
:103CD00040798DF80500E148807901E0CEE0CBE045
:103CE0008DF80600DD48C0798DF80700DB48007AC2
:103CF0008DF80800D948407A8DF80900D748807AB5
:103D00008DF80A00D548C07A8DF80B00D34890F89A
:103D100032008DF80C00D14890F833008DF80D007A
:103D2000CE4890F834008DF80E00CC4890F835005D
:103D30008DF80F00C948807B8DF81000C748C07B04
:103D40008DF81100C548007B8DF81200C348407BF8
:103D50008DF813001027C148007AC4EBC401C24A91
:103D600002EB8101897C884211D105F1EF00FEF759
:103D700097FE05F2FF200103102205A8FEF709FEB9
:103D800005F1EF000103102205A8FEF766FE00E032
:103D90000BE005F2FF20FEF783FE05F2FF20010392
:103DA0003A4601A8FEF759FE07E00025601CC4B2A0
:103DB000AC4800788442FFF663AF00BF5DE0A948DD
:103DC00000780C2800DD56E700241EE0C4EBC40098
:103DD000A54901EB80004079A0490979884211D1B9
:103DE000C4EBC400A04911F8205005F20F10FEF7F3
:103DF00057FE05F20F1001039C4802889748FEF712
:103E00002CFE06E00025601CC4B29648007884426F
:103E1000DCDB00BF00BF934800780C2800DD2AE7F8
:103E2000002421E0C4EBC4008F4901EB80004079FD
:103E30008A490979884214D1C4EBC4008A4911F82F
:103E4000205005F21F10FEF72BFE05F21F1001E0B7
:103E500011E00FE00103854802888048FEF7FDFD70
:103E600006E00025601CC4B27E4800788442D9DB9D
:103E700000BF02E001E000E000BF02E015207C4945
:103E8000087001207B490870FFF748FE00BFF2E68A
:103E900010B579480088B0F5007F00DD10BD002422
:103EA0000CE07648015D7648FCF719FE00BF7448C7
:103EB000008810F0800FFAD0601C84B26E48008831
:103EC0008442EEDB00BFE9E770B588B000206A49A4
:103ED000088000240BE06B48015D67480288008879
:103EE000401C654B188065488154601CC4B2142C7A
:103EF000F1DB0521604802880088401C5E4B188079
:103F00005E4881540021184602880088401C1880B1
:103F10005A48815400240BE05B48015D56480288F2
:103F20000088401C544B188054488154601CC4B213
:103F3000052CF1DB082507E05048415DA5F108009C
:103F40000DF80010681CC5B24B4800888542F3DBB1
:103F500049480088A0F108016846FEF753FE86B282
:103F6000454802880088401C434B188043488654CB
:103F70003212184601880088401C18803F4842547D
:103F80005A21184602880088401C18803B488154FA
:103F9000FFF77EFF08B070BD704710B500240CE03D
:103FA0003A48015D3648FCF79AFD00BF3448008866
:103FB00010F0800FFAD0601C84B2202CF0DB10BD12
:103FC0002DE9FF4F85B00C469046A8F1300000F077
:103FD000FF08A4F13000C4B204F2FF200103102254
:103FE00001A8FEF7D6FC9DF810904FEA09299DF82C
:103FF000110040EA0909A9F57F40FF3800D1814648
:10400000601EC0EBC000184901EB8000C07C00FBC3
:1040100009F01FFA80F99DF812B04FEA0B2B9DF8BA
:10402000130040EA0B0BABF57F40FF3800D183460D
:10403000601EC0EBC0000C4901EB8000C07C00FB9F
:104040000BF01FFA80FB9DF80C703F029DF80D00ED
:104050000743A7F57F40FF381BD119E00019002066
:104060005300002052000020001D002048000020C6
:104070002C000020410000204A000020001B0020EE
:1040800000500040A0660008B4660008D76600082B
:104090000027601EC0EBC000FE4901EB80004069B4
:1040A000401C06D0601EC0EBC00001EB80004069E0
:1040B000074404F1EF000103102201A8FEF769FC98
:1040C0009DF810A04FEA0A2A9DF8110040EA0A0A5A
:1040D000AAF57F40FF3800D18246601EC0EBC000C9
:1040E000EC4901EB8000C07C00FB0AF01FFA80FA6B
:1040F000FFF710FB059808287DD2DFE800F0BF0429
:10410000223B546D939FB8F1000F06D0B8F1010F18
:1041100007D0B8F1020F09D107E06420B7FBF0F730
:1041200007E00A20B7FBF0F703E002E04FF00208D7
:1041300000BF00BF424639460898FEF7B1FE05466B
:104140009DE0B8F1000F03D0B8F1010F07D105E0F1
:104150000A2099FBF0F01FFA80F903E002E04FF02B
:10416000010800BF00BF424649460898FEF798FE86
:10417000054684E0B8F1000F03D0B8F1010F07D174
:1041800005E00A209BFBF0F01FFA80FB03E002E051
:104190004FF0010800BF00BF424659460898FEF79D
:1041A0007FFE05466BE0B8F1000F03D0B8F1010FB8
:1041B00007D105E00A209AFBF0F01FFA80FA03E02D
:1041C00002E04FF0010800BF00BF42465146089888
:1041D000FEF766FE054652E0AF490868002101F08F
:1041E00095FB13D2AC490868AC4901F05BF9AA49C8
:1041F0000860086800E041E001F014FB012201467C
:1042000000900898FEF74CFE05460AE0A2490868AF
:1042100001F008FB0122014600900898FEF740FEDD
:1042200005462CE09E49086801F0FCFA012201468F
:1042300000900898FEF734FE054620E0002618E0BE
:10424000601EC0EBC000934901EB8000801D815DC2
:1042500008988155601EC0EBC0008E4901EB8000BC
:10426000801D805D202802D1032E00DD03E0701C3C
:10427000C6B20C2EE4DB00BF354600E000BF00BF35
:10428000284609B0BDE8F08F2DE9FF4105460E46EE
:10429000A85D5C280CD0A95D824802880088401C7B
:1042A000804B188080488154002004B0BDE8F08124
:1042B000701C285C552878D1B01C285C522838D056
:1042C0000CDC482872D004DC432873D044286FD11A
:1042D000FBE04D286DD04E28F9D139E257280AD09D
:1042E00004DC532873D05428F1D182E059283ED001
:1042F0007328ECD1D4E1301D2A5CF01C295C6B469C
:104300000120FFF75DFE0746C82F01DD0020CCE746
:1043100000240BE01DF80410624802880088401C4D
:10432000604B188060488154601CC4B2BC42F1DB11
:104330002DE2301D2A5CF01C295C6B460320FFF740
:104340003FFE0746C82F01DD0020AEE700240BE04A
:104350001DF80410534802880088401C514B1880F7
:1043600051488154601CC4B2BC42F1DB0FE2301DE5
:104370002A5CF01C295C6B460420FFF721FE0746EF
:10438000C82F01DD002090E700240BE01DF8041089
:10439000444802880088401C424B1880424881549F
:1043A000601CC4B2BC42F1DBF1E1F3E13FE001E0AB
:1043B000ECE15AE0301D2A5CF01C295C6B460220BF
:1043C000FFF7FEFD0746C82F02DD00206DE79FE0E6
:1043D00000240BE01DF80420324801880088401CAE
:1043E000304B188030484254601CC4B2BC42F1DBF0
:1043F000CDE1301D2A5CF01C295C6B460520FFF7DF
:10440000DFFD0746C82F01DD00204EE700240BE04A
:104410001DF80410234802880088401C214B188096
:1044200021488154601CC4B2BC42F1DBAFE1301DB5
:104430002A5CF01C295C6B460620FFF7C1FD07468D
:10444000C82F01DD002030E700240BE01DF8041028
:10445000144802880088401C124B1880124881546E
:10446000601CC4B2BC42F1DB91E1F01C285C00F29C
:10447000CF20010310226846FEF78BFA9DF8020058
:10448000302101EB2011074802880088401C054BB1
:1044900018800BE0001D002064000020000080BF99
:1044A000600000204A000020001B0020FE488154CC
:1044B0009DF8020000F00F00303019460A88098884
:1044C000491C1980F849885461E1F01C285C00F20D
:1044D000CF20010310226846FEF75BFA9DF8030027
:1044E000302101EB2011F14802880088401CEF4B7D
:1044F0001880ED4881549DF8030000F00F00303023
:1045000019460A880988491C1980E74988543EE100
:10451000F01C285C00F2CF20010310226846FEF751
:1045200038FA9DF80400FF2803D108208DF8040014
:1045300016E09DF80500052812DD9DF8040000F046
:104540000F00092806D19DF80400C01DC0B28DF8E7
:10455000040005E09DF80400401CC0B28DF8040082
:104560009DF8040038B19DF80400102803D09DF890
:10457000040020283ED19DF8040080B93221CB48A8
:1045800002880088401CC94B1880C74881543321D9
:10459000184602880088401C1880C34881549DF842
:1045A0000400102810D13021C04802880088401C27
:1045B000BE4B1880BC4881543921184602880088B7
:1045C000401C1880B84881549DF80400202830D140
:1045D0003121B64802880088401CB44B1880B2488C
:1045E00081543921184602880088401C1880AE4842
:1045F00081541EE09DF804004FEA201808F13000B5
:10460000AA490A880988491CA84B1980A6498854D8
:104610009DF8040000F00F00401E00F0FF0808F1B4
:104620003000C1B2184602880088401C18809E489D
:1046300081542D219D4802880088401C9B4B188086
:10464000994881549DF8040024280FD13021184640
:1046500002880088401C18809348815418460288BC
:104660000088401C18809048815418E09DF8040090
:10467000302101EB20118D4802880088401C8B4BB3
:104680001880894881549DF8040000F00F013031F2
:10469000184602880088401C18808348815476E0C0
:1046A000F01C285C00F2CF20010310226846FEF7C0
:1046B00070F99DF80400FF2803D108208DF804004C
:1046C00016E09DF80500052812DD9DF8040000F0B5
:1046D0000F00092806D19DF80400C01DC0B28DF856
:1046E000040005E09DF80400401CC0B28DF80400F1
:1046F0009DF80400242811D130216C4802880088DC
:10470000401C6A4B18806848815430221846018842
:104710000088401C18806448425418E09DF804004A
:10472000302101EB2012614801880088401C5F4B5A
:1047300018805D4842549DF8040000F00F003030AE
:1047400019460A880988491C1980574988541EE06F
:10475000301D2A5CF01C295C6B460720FFF730FCFB
:104760000746C82F01DD00209FE500240BE01DF85F
:1047700004104E4802880088401C4C4B18804A4860
:104780008154601CC4B2BC42F1DB00E000BF00BF3A
:1047900004208AE5A95D454802880088401C434BF7
:1047A00018804148815400207FE52DE9F04FADF598
:1047B0000D7D07468B4600203C49088000250BE014
:1047C0003B48425D394801880088401C374B1880BF
:1047D00035484254681C85B2142DF1DB00250AE0EF
:1047E000795D324802880088401C304B18802E4882
:1047F0008154681C85B2092DF2DB97F808A0BAF144
:10480000060F03DD0DF50D7DBDE8F08F002486E079
:1048100024B9092087A921F814000BE0601E87A99C
:1048200031F810108AAA32F810000844801C87A9B9
:1048300021F8140087A830F81400395C87A830F8F4
:104840001400401C385C01EB00208AA921F81400F8
:104850001648068887A830F81400B0F5007F05DCFC
:104860008AA830F81400B0F5806F00DDCAE787A889
:1048700030F8145009E029463846FFF705FD814617
:1048800005EB090085B2681C85B28AA830F81400CF
:1048900087A931F814100844801CA842EBDC0348B7
:1048A0000088801B801E05E0001B00204A000020BD
:1048B000A066000886B284A820F8146024B90920F4
:1048C00081A921F814000BE0601E81A931F81010B5
:1048D00084AA32F810000844801C81A921F8140031
:1048E00081A830F814001430BE4A1654311281A841
:1048F00030F8140015301154A6F11B00C1B281A884
:1049000030F814002D301154A6F11B00C0F307211C
:1049100081A830F814002E301154601C84B2544524
:10492000FFF676AFB04800881638AE490875AE4835
:1049300000881638000A4875AB480088B0F5007F3B
:1049400000DD5FE7082407E0A648015DA4F1080048
:1049500001AA1154601C84B2A34800888442F3DB8E
:10496000A1480088A0F1080101A8FEF74BF91FFA41
:1049700080F89D4802880088401C9B4B188099480D
:1049800000F802804FEA2822184601880088401C5F
:104990001880944842545A21184602880088401CC6
:1049A00018809048815400BF2CE770B5ADF5007DAC
:1049B00005460E46012E06D0022E33D0032E5AD0C5
:1049C000042E75D184E005F5857001030222684646
:1049D000FDF7DFFF9DF800009DF8011000EB0120BE
:1049E00084B2A4F57F40FF3804D0142C02DBB4F568
:1049F000407F05DD04207D4908700DF5007D70BD08
:104A000005F585700103A01C82B26846FDF7C1FF61
:104A1000601E1DF800007649087021466846FFF7C1
:104A2000C4FE57E005F5A870010302226846FDF7B1
:104A3000B0FF9DF800009DF8011000EB012084B24A
:104A4000142C02DBB4F5407F00DDD6E705F5A87035
:104A50000103A01C82B26846FDF79BFFA01E1DF853
:104A6000000063490870A01F84B2A01C81B2684690
:104A7000FFF79BFE2EE0022269465E48FEF708F92A
:104A80009DF800009DF8011000EB012084B2A4F510
:104A90007F40FF3804D0142C02DBB4F5407F08DDE2
:104AA00069215548FFF781FE0A20514908700EE040
:104AB0000FE0224669464F48FEF7EAF8214668466D
:104AC000FFF773FE601E1DF800004949087001E001
:104AD00000E000BF00BF4948007808B9FFF7D8F9E7
:104AE00000BF8AE710B546480078E8B1444800782E
:104AF000022804D003280FD0042810D109E0FEF7C3
:104B0000D9FE40480078012802D10A203E490870A9
:104B100006E0FFF741F803E0FFF73EFA00E000BFD0
:104B200000BF00203649087038480078062858D160
:104B300037480078012851DB3648807DA02817D0FF
:104B4000A1283CD1002032490870002407E004F17C
:104B50001D003049085C30490855601CC4B2082C5F
:104B6000F5DB2648007800F0FE002449087027E0B5
:104B700027480078401C264908700846007803281A
:104B80000BDD002008700120244908701B480078C4
:104B900000F0FE001949087012E000240CE02048E3
:104BA000015D2048FBF79BFF00BF1E48008810F006
:104BB000800FFAD0601CC4B21E2CF0DB00E000BFF6
:104BC00000BF16480078012805D01148007810B9B8
:104BD000FEF7A4FF02E000201049087000200B49F6
:104BE000087010BD001B00204A0000205400002067
:104BF0005700002000E00708156700084300002068
:104C000045000020590000205E00002035000020F3
:104C100041000020801800203600002042000020C3
:104C2000B966000800500040F0B5ADF5077D6D4F46
:104C30000222110501A8FDF7ACFE9DF804009DF8C5
:104C4000051000EB012084B2A4F57F40FF3804D0AA
:104C5000142C02DBB4F5407F03DD032062490870A9
:104C6000A2E0A01C82B24FF4001107A8FDF791FE4C
:104C70009DF823005D490870002617E000250BE031
:104C800005F10800C6EBC60100EB810007A9085C2E
:104C900001A94855681CC5B21C2DF1D338461C37F4
:104CA0001C2201A900F094FB701CC6B24F4800788A
:104CB0008642E3DB01224FF4602101A8FDF769FE83
:104CC0009DF80400FF2803D102204749087003E043
:104CD0009DF804004449087043480078022823D115
:104CE00002224FF4A81101A8FDF753FE9DF804001D
:104CF0009DF8051000EB012084B2A4F57F40FF3839
:104D000004D0142C02DBB4F5407F05DD03203649C6
:104D100008700DF5077DF0BDA01C82B24FF4A811FC
:104D200007A8FDF736FE24E02F480078012820D19F
:104D300002224FF4851101A8FDF72BFE9DF8040017
:104D40009DF8051000EB012084B2A4F57F40FF38E8
:104D500004D0142C02DBB4F5407F03DD032022498C
:104D60000870D6E7A01C82B24FF4851107A8FDF7A2
:104D700010FEE01E07A9085CFF2809D0201F085C70
:104D80001B490870A01E07A9085C1A49087005E0B5
:104D9000012017490870052016490870002016499F
:104DA000087001201549087000BFB2E710B5002057
:104DB0001349088004201349087000201249087024
:104DC0001249087012490870124908701249087097
:104DD000124908701249087012490870FFF724FF41
:104DE00010BD0000001D00205400002052000020D3
:104DF00055000020570000205600002058000020D9
:104E0000480000205E0000205F00002040000020DD
:104E10003400002046000020410000204300002014
:104E20005A0000205900002000B585B0012104205F
:104E3000FBF702FB01218803FBF7FEFA012130207A
:104E4000FBF7FAFA01210805FBF703FB4FF40070AA
:104E5000ADF8100018208DF8130003208DF8120013
:104E600004A9FE48FBF7B0FB4FF48060ADF81000DA
:104E700004208DF8130004A9F848FBF7A5FB4FF4B4
:104E80008050ADF8100018208DF8130003208DF825
:104E9000120004A9F248FBF797FB0420ADF81000BC
:104EA0008DF8130004A9EF48FBF78EFB4FF4165062
:104EB00000900020ADF80400ADF80600ADF8080041
:104EC000ADF80C000C20ADF80A006946E648FBF787
:104ED0000AFD4FF4614000900020ADF80400ADF8E9
:104EE0000600ADF80800ADF80C000C20ADF80A0083
:104EF0006946DE48FBF7F7FC05B000BD08B54FF486
:104F00004070FBF7B3FE25208DF8000003208DF8DC
:104F1000010000208DF8020001208DF80300684692
:104F2000FBF7A9FE012240F22551CF48FBF773FDA4
:104F30000121CD48FBF763FD35208DF800000420EA
:104F40008DF8010000208DF8020001208DF803008B
:104F50006846FBF790FE012240F22551C348FBF75B
:104F60005AFD0121C148FBF74AFD08BD70B5044652
:104F70000D46E1B2BC48FBF7B2FD00BFBA4800885D
:104F800010F0800FFAD0204670BD10B540F22551C8
:104F9000B648FBF728FE00284AD00120B449087023
:104FA0000020B4490870B148FBF79DFDC4B2B24877
:104FB000007820B1012815D0022837D122E0A52C95
:104FC0000FD1AD480078401CAB4908700020AB49B8
:104FD0000880084601880088401CA84A1080A8481C
:104FE000445424E0A52C0CD1A3480078401CA249CD
:104FF0000870A24801880088401CA04A1080A04880
:10500000445414E09D4801880088401C9B4A10804D
:105010009B4844545A2C08D1002097490870062018
:105020009849087000209249087000E000BF00BF56
:1050300010BD10B504219448FBF771FB40F22551D7
:105040008948FBF7D0FD00287ED0012088490870F0
:105050000020884908708448FBF745FDC4B2082148
:105060008948FBF75CFB8948007815287AD00FDC6B
:10507000112873D005DCD0B1012832D0022866D1C6
:105080004FE012286BD013286AD01428F7D168E0BB
:105090001A2877D006DC162865D0172864D018287F
:1050A000EDD171E01B286ED07028E8D1BEE07E2CD7
:1050B00011D100207649088005207649087074488F
:1050C00001880088401C724A1080734844540120B3
:1050D0006E49087004E0A52C02D111206B490870BC
:1050E000F0E06B4801880088401C694A10806A48DB
:1050F00044547E2C07D110460088022803D170202A
:10510000624908700CE062480088052808D1022036
:105110005E490870614804800088401D5F4908802E
:10512000D0E05B4801880088401C594A10805A48EA
:105130004454104600885949098888420DD10020FE
:1051400052490870042003E0BDE00BE006E0B8E03F
:1051500053490870002046490870B3E000BF00BF03
:1051600000BF00BF00BF00BFA52C0AD14748007890
:10517000401C4649087000204549088007204549E1
:1051800008709FE01FE03AE0414801880088401C19
:105190003F4A108040484454104600880E2811D1E0
:1051A0001A203A4908703C48407B3E49088008462E
:1051B00000880006000C08803748007B09880843F7
:1051C000384908807EE032480188364800880F3030
:1051D000814208D02E4801880088401C2C4A10804B
:1051E0002D4844540AE01B202849087028480188AB
:1051F0000088401C264A10802748445462E0244816
:1052000001880088401C224A108023484454002012
:105210001E49087002202249087023480078401C6B
:10522000214908700020124908704BE01848018895
:105230000088401C164A10801748445410460088C5
:105240000C283DDD1448007B1349C97A01F00F0199
:1052500040EA012011301146098827E0000801408A
:10526000001001400014014000380140005000408F
:10527000590000205A000020340000203E00002089
:105280008018002035000020001801404000002058
:10529000480000205E000020001900204E00002081
:1052A00045000020500000205F000020884207D108
:1052B000032005490870002004490870044908705B
:1052C00000E000BF00BF10BD4500002040000020EE
:1052D00059000020FDF786F9FDF720FFFFF7A4FD38
:1052E00041F61F4144F61F60FDF780FE41F2883110
:1052F0000620FDF74EFFFFF701FEFDF793FAFFF7DB
:1053000055FD00240CB9FBF7A8FD2848FBF781FDEB
:105310000CE000BF4FF47A70FDF79BF92448006859
:105320006FEA00002349C1F89401F3E7FDF710FB91
:10533000A0F56F411639ECD100201F4908604FF0ED
:1053400001001C49C1F8940141F28830FDF781F950
:1053500041F28830FDF77DF90020154908604FF0D3
:1053600001001649C1F8800119E0154800780128AC
:1053700004D1002012490870FDF773FEFFF7B2FB5D
:10538000FDF719FF0F480078012808D100200D49CA
:1053900008700D4801780D480078FFF706FBE4E738
:1053A00000E0401E0028FCD17047000000E0070824
:1053B0009401224200002242808121420080214249
:1053C0005B00002058000020540000205600002000
:1053D00040EA01039B0703D009E008C9121F08C077
:1053E000042AFAD203E011F8013B00F8013B521EF7
:1053F000F9D27047F0B480EA0102D20F4300B3EB58
:10540000410F02D20346084619464B0042D0C30D55
:10541000DDB2C1F3C7542C1B202C35DAC1F31601C1
:1054200041F4000502B16D42C4F1200605FA06F10F
:1054300025412844B3EBD05F23D0C2B1012CA0EBAF
:10544000C35009DCF0BC4FF0004202EAC35200F541
:105450000000DBB200F098BA400000F1807000EB71
:10546000C350A0F1807040EAD170490009E04908BA
:1054700041EAC071A0EBC35000F50000400800EB0A
:10548000C350F0BC00F077BA5142012303EB410155
:10549000801AF6E7F0BC704781F00041AAE780F07F
:1054A0000040A7E780EA010210B502F00042400088
:1054B00026D04B0023D04FEA106101EB1361C0F3FB
:1054C0005600C3F3560340F4000043F40003A0FB6E
:1054D0000330A1F17F014FEA00401C0401D000F12C
:1054E000010050EA134001D44000491EC3B20C062B
:1054F00004EBD010401C4008802B02D003E00020B9
:1055000010BD20F00100002900DA0020104310BD7A
:105510002DE9FE4F074681EA0300C00F0E460190B9
:1055200021F0004123F00044B81AA14105D23846C9
:10553000314617461E460B46024623F000401043F4
:1055400004D13846314603B0BDE8F08F350DC5F3C0
:105550000A00C3F30A510290401A0090402868DA0A
:10556000C3F3130040F4801B0198924620B100233E
:10557000D2EB030A63EB0B0B00985946C0F14002D3
:10558000504600F0D7F980460C4650465946009ADE
:1055900000F0DFF9C0197141EF1785EA11533B4361
:1055A00040D0019A52B3009A012A11DC0022801ADD
:1055B0004FF0004361EB055103EA05538018CDE934
:1055C000002341F580114246234600F017FABAE75E
:1055D0002E050025401B61EB0601401941F58012A4
:1055E000001852412818A6F5001343EB020140EAC7
:1055F000D470294318EB0808644113E064084FEAAB
:1056000038084FF0000244EAC0744FEA0553801A8C
:1056100061EB0301801841F5801149084FEA300021
:10562000801859414246234603B0BDE8F04F00F0D0
:10563000D8B90198012240000023D0EB020263EBAD
:10564000E07301984FEAE074381A66EB0401EBE767
:1056500083F000435CE781F0004159E72DE9FE4FFC
:1056600081EA030421F0004504F0004423F00041E6
:105670004FF0000A009450EA050302D052EA0103F9
:1056800004D10020014603B0BDE8F08FC1F30A53F6
:10569000C5F30A541C44A0FB02B3C5F3130545F43B
:1056A000801CC1F3130141F480180CFB023300FB92
:1056B000083EA4F2F334810A930A41EA8C5143EA8A
:1056C00088530194A1FB03474FEA9C2505FB037314
:1056D0004FEA982601FB06373D05260545EA1435B5
:1056E000BBEB06016EEB0503850E920E45EA8C15A9
:1056F00042EA8812A5FB0206261E67EB00070C0D86
:1057000044EA0334A41947EB1350C1F313064FF0D6
:10571000000319464FEA033343EA165343EA0403EE
:10572000019CE5FB0201A4F10C040294009C4FEAE9
:105730000632CDE900A400F061F9A4E72DE9F04DAF
:1057400081EA030404F0004B21F0004714464FF0B7
:10575000000A23F0004150EA070220D054EA010277
:105760001DD0C1F30A550246C1F31300C7F30A5610
:10577000C7F3130340F4801143F48013A6EB05082C
:10578000101BD64608F2FD3873EB010002D308F176
:10579000010801E092185B41B8F1000F03DA002024
:1057A0000146BDE8F08D00204FF4801506460746FF
:1057B0000EE0B2EB040C73EB010C04D3121B064396
:1057C00063EB01032F436D084FEA300092185B41F1
:1057D00050EA050CEDD152EA030012D082EA04002F
:1057E00083EA0105284303D100224FF0004308E07B
:1057F000101B8B4102D20122002302E06FF0010254
:1058000053101AEB060047EB085110EB0A0041EB6E
:105810000B01BDE8F04D00F0E4B8962300221146DC
:1058200000F0B2B800F0004220F00040C10DC0F31B
:10583000160040F400007F2901DA00207047962905
:1058400003DCC1F19601C84001E096398840002A86
:10585000F4D04042704720F00040C10DC0F3160064
:1058600040F400007F2901DA00207047962903DC0C
:10587000C1F19601C840704796398840704700F0E2
:10588000004230F000400DD0C10D01F5607142EAD8
:1058900001510022C0F31600520742EAD00240072D
:1058A00011437047002001467047000030B50029C1
:1058B00004DB4FF00044404264EB0101002B04DBA9
:1058C0004FF00044524264EB03038B4208BF824214
:1058D00030BD000001F0004230B421F0004150EA38
:1058E000010306D00B0DA3F56073C1F31301002B68
:1058F00002DC30BC00207047440F44EAC104C10000
:10590000A01830BC00EBC35000F035B8002801DB14
:10591000C0F10040002901DBC1F100418142704724
:10592000002801DBC0F10040002901DBC1F100418A
:1059300088427047202A04DB203A00FA02F1002056
:1059400070479140C2F1200320FA03F319439040BD
:105950007047202A06DBCB17203A41FA02F043EACF
:10596000E071704741FA02F3D040C2F12002914049
:105970000843194670470029A8BF7047401C4900DA
:1059800008BF20F00100704710B4B0FA80FC00FAA4
:105990000CF050EA010404BF10BC704749B1CCF1CF
:1059A000200421FA04F411FA0CF118BF012121435B
:1059B0000843A3EB0C01CB1D0106000A002BBEBF60
:1059C000002010BC704700EBC35010440029A4BF56
:1059D00010BC7047401C490008BF20F0010010BCFB
:1059E000704710B5002B08DA401C41F100019218F5
:1059F0005B411A4301D120F0010010BD2DE9F04DAB
:105A000092469B4611B1B1FA81F202E0B0FA80F2FF
:105A100020329046FFF78EFF06460F4640EA0A0006
:105A200041EA0B0152465B46084303D130463946F2
:105A3000BDE8F08D194652EA010015D0C8F14002C8
:105A4000504600F067F804460D4650465946424617
:105A5000FFF770FF084301D0012000E0002004435D
:105A600045EAE07526432F430A984FEAD625A0EB76
:105A700008000A304FEA46534FF0000245EA475506
:105A80004FEAD72402D500200146D1E7010550197D
:105A90006141DDE9084500196941BDE8F04DA0E725
:105AA00070B521F0004303430CD0C1F30A54002623
:105AB000D4EB060566EB0603D417AD1AA34102DB4F
:105AC0000020014670BD001C41EB025170BD0EB5B7
:105AD000C10F80EAE0700844CA07002140F2334356
