:020000040801F1
:1000000090220020450101084D0201084F0201081D
:1000100053020108570201085B02010800000000BA
:100020000000000000000000000000005F02010866
:100030006102010800000000630201086502010876
:100040005F0101085F0101085F0101085F0101080C
:100050005F0101085F0101085F0101085F010108FC
:100060005F0101085F0101085F0101085F010108EC
:100070005F0101085F0101085F0101085F010108DC
:100080005F0101085F0101085F0101085F010108CC
:100090005F0101085F0101085F0101085F010108BC
:1000A0005F0101085F0101085F0101085F010108AC
:1000B0005F010108A72801085F0101085F0101082D
:1000C0005F0101085F0101085F0101085F0101088C
:1000D0005F010108610401085F0101085F01010877
:1000E0005F0101085F0101085F0101085F0101086C
:1000F0005F0101085F0101085F0101085F0101085C
:100100005F0101085F0101085F0101085F0101084B
:100110005F010108CB0301085F0101085F010108CD
:100120005F0101085F0101085F0101085F0101082B
:10013000DFF80CD005F082FB004800476901010898
:10014000902200200648804706480047FEE7FEE769
:10015000FEE7FEE7FEE7FEE7FEE7FEE7FEE7FEE777
:100160001D5001083101010800F0F4FA00F0AAFE68
:1001700041F28831062000F0D1FE00F075F841F61A
:100180001F4144F61F6002F061FB00F0D7F800F059
:1001900043FB00F06BFE00240CB903F008FC23487D
:1001A00003F0E1FB0CE000BF4FF47A7000F009FBB4
:1001B0001F4800686FEA00001E49C1F89401F3E788
:1001C00000F0C0FBA0F56F411639ECD100201A49B0
:1001D00008604FF001001749C1F8940141F28830DE
:1001E00000F0EFFA41F2883000F0EBFA00201049FD
:1001F00008604FF001001149C1F8800110E001F0E2
:1002000071FF00F09DFE0E480078012808D1002003
:100210000B4908700B4801780B48007801F0BAFED2
:10022000EDE700E0401E0028FCD1704700E0070821
:10023000940122420000224280812142008021421A
:10024000280000202400002026000020704700BF66
:10025000FEE700BFFEE700BFFEE700BFFEE7704716
:10026000704770477047000000B585B00121042039
:1002700002F08CFE0121880302F088FE012130206B
:1002800002F084FE0121080502F08DFE4FF400709B
:10029000ADF8100018208DF8130003208DF812001F
:1002A00004A9FC4802F03AFF4FF48060ADF810005A
:1002B00004208DF8130004A9F74802F02FFF4FF433
:1002C0008050ADF8100018208DF8130003208DF831
:1002D000120004A9F14802F021FF0420ADF810003B
:1002E0008DF8130004A9EE4802F018FF4FF41650E1
:1002F00000900020ADF80400ADF80600ADF808004D
:10030000ADF80C000C20ADF80A006946E54803F092
:1003100094F84FF4165000900020ADF80400ADF8AA
:100320000600ADF80800ADF80C000C20ADF80A008E
:100330006946DD4803F081F805B000BD08B54FF40B
:10034000407003F03DFA25208DF8000003208DF861
:10035000010000208DF8020001208DF8030068469E
:1003600003F033FA012240F22551CE4803F0FDF8A4
:100370000121CC4803F0EDF835208DF80000042071
:100380008DF8010000208DF8020001208DF8030097
:10039000684603F01AFA012240F22551C24803F0E0
:1003A000E4F80121C04803F0D4F808BD70B5044654
:1003B0000D46E1B2BB4803F03CF900BFB9480088E4
:1003C00010F0800FFAD0204670BD10B540F22551D4
:1003D000B54803F0B2F9002841D0B34803F02DF935
:1003E000C4B2B248007820B1012815D0022834D117
:1003F00022E0A52C0FD1AD480078401CAB49087015
:100400000020AB490880084601880088401CA84AA3
:100410001080A848445421E0A52C0CD1A3480078B2
:10042000401CA2490870A24801880088401CA04ACC
:100430001080A048445411E09D4801880088401C69
:100440009B4A10809B4844545A2C05D10020974960
:10045000087005209849087000E000BF00BF10BD7B
:1004600010B50421954802F004FF40F225518D4853
:1004700003F063F900286ED08A4803F0DEF8C4B2B6
:1004800008218E4802F0F5FE8D480078152871D0BD
:100490000FDC11286FD005DCE0B1012849D002281B
:1004A0006AD16CE0122868D0132867D01428F7D1DD
:1004B00082E0212878D006DC16287FD017287ED04D
:1004C0001828EDD186E0222871D0312870D070280C
:1004D000E6D114E17E2C0ED100207A49088008462E
:1004E00001880088401C774A1080774844540120D6
:1004F000734908701CE0A52C06D17448007818B91F
:1005000011206F49087013E0A52C11D16F480078B5
:1005100001280DD131206A490870002069490880FE
:10052000084601880088401C664A1080664844548A
:1005300006E1644801880088401C624A10806248D5
:1005400044547E2C08D110460088022804D1702023
:100550005B4908700DE0F4E05A480088052808D18E
:100560000220574908705A4804800088401D5849A5
:100570000880E5E021E01CE0E1E01BE01BE05148E1
:1005800001880088401C4F4A10804F484454104650
:1005900000884F490988884205D1002048490870E1
:1005A00003204C490870CBE048E007E007E061E039
:1005B00094E000BF00BF00BF00BF00BF00BFA52C7C
:1005C00007D13F480078401C3D49087000203D4954
:1005D0000880B5E03B4801880088401C394A1080FB
:1005E00039484454104600880E2826D12120344929
:1005F00008703548407B3849088008460088000666
:10060000000C08803048007B098808433249088084
:100610000020114608802C48017B10460288008883
:10062000401C284B188028488154417B184602887A
:100630000088401C18802448815481E021480188AA
:1006400025480088C01C814208D01E4801880088C7
:10065000401C1C4A10801C4844540AE022201849BF
:100660000870184801880088401C164A10801648F7
:10067000445465E0134801880088401C114A1080EA
:100680001148445400200E49087001201149087097
:1006900056E00000000C014000080140001001403D
:1006A00000140140003801400050004004000020C8
:1006B0000E0000206C1000200500002000180140F2
:1006C0001000002018000020EC1000201600002070
:1006D0001E0000201500002020000020194801887D
:1006E0000088401C174A1080174844545A2C05D1E2
:1006F00000201649087004201549087020E01148B0
:1007000001880088401C0F4A10800F48445410464E
:1007100000880C2812DD0C48007B0B49C97A01F0D7
:100720000F0140EA0120113011460988884205D1A5
:1007300002200749087000200449087000E000BF4B
:1007400000BF10BD18000020EC1000201000002099
:100750001500002010B56FF0040003F081F82A485E
:1007600000682A49B0FBF1F0294908700846007872
:100770004FF47A7148432749088010BD0146244A46
:1007800012784A434FF0E0235A6100229A611A46D8
:10079000126942F001021A6100BF4FF0E0221069B5
:1007A00010F0010F02D010F4803FF6D04FF0E0229D
:1007B000126922F001024FF0E0231A6100229A61CF
:1007C00070470146134A12884A434FF0E0235A61AA
:1007D00000229A611A46126942F001021A6100BFB2
:1007E0004FF0E022106910F0010F02D010F4803FAA
:1007F000F6D04FF0E022126922F001024FF0E02320
:100800001A6100229A6170475000002000127A009D
:10081000000000200200002000B587B00121242044
:1008200002F0B4FB0121080302F0B0FB2020ADF878
:10083000040003208DF8060018208DF8070001A998
:10084000E54802F06BFC4020ADF8040001A9E24845
:1008500002F064FC8020ADF8040001A9DE4802F03B
:100860005DFC1020ADF804008DF8070001A9DA48FE
:1008700002F054FC1021D84802F0FBFC0020ADF837
:1008800008004FF48270ADF80A000020ADF80C00AB
:100890000220ADF80E000120ADF810004002ADF8C6
:1008A00012000820ADF814000020ADF81600072053
:1008B000ADF8180002A9C94803F0F2FA0121C748AF
:1008C00003F091FB07B000BD10B500241021C24811
:1008D00002F0D1FC052000F0DAF9FF2000F0D7F992
:1008E00004461021BC4802F0C4FC204610BD10B5DF
:1008F00004461021B84802F0BEFC012000F0C7F900
:10090000204600F0C4F91021B34802F0B2FC10BD3B
:1009100010B51021B04802F0AEFC062000F0B7F987
:100920001021AD4802F0A5FC10BD10B51021AA4859
:1009300002F0A1FC042000F0AAF91021A64802F060
:1009400098FC10BD10B500241021A34802F093FCC0
:10095000902000F09CF9002000F099F9002000F0B0
:1009600096F9002000F093F9FF2000F090F944EA96
:100970000024FF2000F08BF904431021964802F078
:1009800078FC204610BD2DE9F04106460C4617467E
:100990001021914802F06FFC032000F078F9C4F3B5
:1009A000074000F074F9C4F3072000F070F9E0B2DA
:1009B00000F06DF9002505E0FF2000F068F97055A2
:1009C000681C85B2BD42F7DB1021834802F051FC60
:1009D000BDE8F08110B500BFFFF776FF00F0010021
:1009E0000128F9D010BD2DE9F04106460C46174606
:1009F000FFF78EFF1021784802F03DFC022000F046
:100A000046F9C4F3074000F042F9C4F3072000F0B0
:100A10003EF9E0B200F03BF9002504E0705D00F023
:100A200036F9681C85B2BD42F8DB10216A4802F035
:100A300020FCFFF7CFFFBDE8F0812DE9F04107462C
:100A40000E461446F0B2C0F58075AC4200DC254677
:100A500012E02A4631463846FFF7C5FFAC4200D1C6
:100A60000BE02F442E44601B84B2B4F5807F02DD7E
:100A70004FF4807500E02546EBE700BFBDE8F0814C
:100A800010B504462403FFF743FFFFF7A3FF10212F
:100A9000514802F0F0FB202000F0F9F8C4F30740C1
:100AA00000F0F5F8C4F3072000F0F1F8E0B200F030
:100AB000EEF81021484802F0DCFBFFF78BFF10BD79
:100AC0002DE9F04781460F4616464FEA1738C7F31F
:100AD0000B0ACAF58054A64200DC344644E04FEAD3
:100AE00008314FF480523E48FFF74DFF002508E0E3
:100AF0000AEB05003A49085CFF2800D003E0681CB7
:100B000085B2A542F4DB00BFA54216DA4046FFF7E6
:100B1000B7FF002507E019F8050005EB0A01304A88
:100B20005054681C85B2A542F5DB4FEA08314FF4FA
:100B300080522B48FFF781FF04E0224639464846A1
:100B4000FFF77BFFA64200D10FE008F101084FF04C
:100B5000000AA1442744301B86B2B6F5805F02DD4F
:100B60004FF4805400E03446B9E700BFBDE8F08799
:100B700010B5FFF7CDFEFFF72DFF1021164802F04C
:100B80007AFBC72000F083F81021134802F071FBB4
:100B9000FFF720FF10BD10B510210F4802F06BFBCE
:100BA000B92000F074F810210B4802F062FB03201A
:100BB000FFF7E4FD10BD10B51021074802F05BFB04
:100BC000AB2000F064F81021034802F052FB032030
:100BD000FFF7D4FD10BD00000008014000300140C7
:100BE0006C00002000B587B00121082002F0CEF98A
:100BF0000121880302F0D7F94FF46040ADF81800E6
:100C000018208DF81B0003208DF81A0006A9334820
:100C100002F084FA4FF46041304802F02AFB0020D1
:100C2000ADF804004FF48270ADF806000020ADF876
:100C300008000220ADF80A000120ADF80C004002C7
:100C4000ADF80E003820ADF810000020ADF812000D
:100C50000720ADF8140001A9214803F021F9012172
:100C60001F4803F0C0F907B000BD10B504461C488A
:100C700000884FF6C7710840194908800846008867
:100C8000204308800121164803F0ADF910BD70B56E
:100C90000546002405E0601CC4B2C82C01DD00201C
:100CA00070BD02210F4803F027FA0028F3D029462F
:100CB0000C4803F0CEF9002405E0601CC4B2C82C37
:100CC00001DD0020ECE70121064803F015FA0028B9
:100CD000F3D0044803F0BFF9C0B2E1E7000C0140D3
:100CE0000038004000300140F0B5ADF5077D684F99
:100CF0000222110501A8FFF746FE9DF804009DF8A9
:100D0000051000EB012084B2A4F57F40FF3804D029
:100D1000142C02DBB4F5407F03DD03205D4908702D
:100D2000A2E0A01C82B24FF4001107A8FFF72BFE2F
:100D30009DF8230058490870002617E000250BE0B5
:100D400005F10800C6EBC60100EB810007A9085CAD
:100D500001A94855681CC5B21C2DF1D338461C3773
:100D60001C2201A904F0DAF9701CC6B24A480078C6
:100D70008642E3DB01224FF4602101A8FFF703FE66
:100D80009DF80400FF2803D102204249087003E0C7
:100D90009DF804003F4908703E480078022823D19E
:100DA00002224FF4A81101A8FFF7EDFD9DF8040001
:100DB0009DF8051000EB012084B2A4F57F40FF38B8
:100DC00004D0142C02DBB4F5407F05DD032031494B
:100DD00008700DF5077DF0BDA01C82B24FF4A8117C
:100DE00007A8FFF7D0FD24E02A480078012820D189
:100DF00002224FF4851101A8FFF7C5FD9DF80400FC
:100E00009DF8051000EB012084B2A4F57F40FF3867
:100E100004D0142C02DBB4F5407F03DD03201D4910
:100E20000870D6E7A01C82B24FF4851107A8FFF71F
:100E3000AAFDE01E07A9085CFF2809D0201F085C56
:100E400016490870A01E07A9085C1549087005E03E
:100E5000012012490870052011490870002011492D
:100E6000087001201049087000BFB2E710B50020DB
:100E70000E4908800E4908700E4908700E49087026
:100E80000E4908700E490870FFF72EFF10BD0000D4
:100E9000EC14002024000020220000202500002067
:100EA0002700002026000020280000201800002035
:100EB0001000002004000020160000201100002077
:100EC0001300002008B50121102002F05FF83C203B
:100ED000ADF8000010208DF8030003208DF802000B
:100EE0006946194802F01AF91C21174802F0C1F9A5
:100EF0000121082002F04AF80120ADF8000010207E
:100F00008DF8030003208DF8020069460F4802F0B7
:100F100005F901210D4802F0ACF908BD70B5054690
:100F20000C4645F2555003F0F5FF284603F0F5FF57
:100F3000204603F0F5FF03F0F6FF03F0F9FF70BD64
:100F400010B503F0F0FF10BD00100140000C01408F
:100F500030B502460B460020002108E0545C4440B6
:100F6000E4B2124D55F8244084EA1020491C9942FD
:100F7000F4D330BD30B502460B464FF6FF7000216A
:100F800010E0555C6840002409E010F0010F04D027
:100F900040084AF20105684000E04008641C082C43
:100FA000F3DB491C9942ECD330BD0000EC5F010833
:100FB00010B500240CE0FE48015DFE4802F039FB4C
:100FC00000BFFC48008810F0800FFAD0601CC4B24B
:100FD0001E2CF0DB10BD30B5C1B0F748C078F64923
:100FE000897800EB012085B2FFF7E2FFB5F5224FCB
:100FF0000CD06FF42240281842D0A0F5807005383C
:1010000058D0A0F55060FB387ED197E0EA4840798F
:10101000062832D2DFE800F03103070B0F20012051
:10102000E64908702AE00020E449087026E0002024
:10103000E249087022E00120E14908700846007882
:101040008DF80400E020FFF71BFD01224FF4602122
:1010500001A8FFF7F2FC11E00220D9490870084608
:1010600000788DF80400E020FFF70AFD01224FF41C
:10107000602101A8FFF7E1FC00E000BF00BF87E0AE
:10108000CD48407910B1012813D104E0CDA004F07F
:10109000F7FB00BFFEE7002407E004F5A870FFF7A8
:1010A000EFFCFFF74DFF601CC4B2502CF5DB00BF16
:1010B000FEE76DE0CB4800880838BF490C5CC948A2
:1010C0000088801F085C70B904F5A870FFF7D8FC91
:1010D000C4480088C01E82B204F5A8700103B64857
:1010E000FFF7ABFC29E0BF480088801FB249085CCD
:1010F00000F00F00012810D104F58570FFF7C0FC47
:10110000B8480088C01E00E041E082B204F5857056
:101110000103A948FFF791FC0FE0B2480088801F47
:10112000A549085C00F00F00022806D1AD480088F0
:10113000C01E82B2AC4801F046FD29E0A9480088F3
:10114000C01E82B24FF4001101A8FFF71CFC4FF43F
:101150000070FFF795FCA3480088C01E82B24FF4D0
:10116000001101A8FFF70FFC9E480088C01E82B244
:101170004FF400119048FFF760FC9A480088C01EA9
:1011800082B24FF4001101A8FFF7FDFB00E000BFA1
:1011900000BF41B030BD70B57E20944908709448BE
:1011A0000078487093480078887093480078C87039
:1011B000092008718048407948717F48807988719A
:1011C0007D48C079C8717C48007A08727A48407AB4
:1011D00048720020887289480078C8720C218348C0
:1011E000FFF7C8FE85B281490D73281248730024A9
:1011F0000CE07E48015D6F4802F01BFA00BF6D48AD
:10120000008810F0800FFAD0601C84B20E2CF0DB46
:1012100070BD2DE9F04389B072480088811E664890
:10122000FFF7A8FE80466F480088401E6249095CAF
:101230006C480088801E604A105C41EA0029104614
:1012400080786B490870104640786A490870012020
:101250006B490870C8457DD11046C678664806704F
:10126000F01F082877D2DFE800F0FBFAF976DB04FC
:10127000760500BF5049087A01F0CCFB614908703F
:101280000024C6E0C4EBC4005F4901EB8000407954
:101290004949897888427DD152480088C01E464914
:1012A000085C032802D0172808D103E00420534922
:1012B000087004E006205149087000E000BF00BF3C
:1012C000C4EBC400504911F820500027AA208DF823
:1012D0000400394840798DF80500374880798DF849
:1012E00006003548C0798DF807003348007A8DF83C
:1012F00008003148407A8DF809002F48807A8DF82F
:101300000A002D48C07A8DF80B002B4890F8320067
:101310008DF80C00284890F833008DF80D00264811
:1013200090F834008DF80E00234890F835008DF8C1
:101330000F002148807B8DF810001F48C07B8DF87E
:1013400011001D48007B8DF812001B48407B8DF872
:10135000130001E0B9E0B6E010271748007AC4EBAB
:10136000C401294A02EB8101897C884211D105F12F
:10137000EF00FFF785FB05F2FF200103102205A80F
:10138000FFF701FB05F1EF000103102205A8FFF7AD
:1013900054FB00E03AE005F2FF20FFF771FB05F295
:1013A000FF2001033A4601A8FFF747FB36E00000A3
:1013B0004364010800380140EC10002016000020B2
:1013C000240000200D0A205359536E5245535420D7
:1013D000706C6561736520776169742E2E2E2EA363
:1013E000A10D0A001800002000E007087C1600206C
:1013F0003800002036000020370000203400002094
:101400003500002023000020EC1400200025601C83
:10141000C4B2FC4800788442FFF634AF00BF53E00A
:10142000002421E0C4EBC400F74901EB80004079BF
:10143000F6490979884214D1C4EBC400F24911F885
:10144000205005F20F10FFF71BFB05F20F100103F0
:10145000EF480288ED48FFF7F0FA09E00AE031E0D2
:101460002FE00025601CC4B2E64800788442D9DB36
:1014700000BF00BF00241EE0C4EBC400E24901EB42
:1014800080004079E1490979884211D1C4EBC40058
:10149000DD4911F8205005F21F10FFF7F1FA05F2AF
:1014A0001F100103DA480288D848FFF7C6FA06E0A1
:1014B0000025601CC4B2D34800788442DCDB00BF46
:1014C00002E001E000E000BF02E01520D149087011
:1014D0000120D1490870FFF75EFE09B0BDE8F08336
:1014E00010B500240CE0CD48015DCD4802F0A1F814
:1014F00000BFCB48008810F0800FFAD0601C84B287
:10150000C84800888442EEDB10BD70B588B000206A
:10151000C449088000240BE0C348015DC14802882B
:101520000088401CBF4B1880BC488154601CC4B26A
:10153000142CF1DB0521BB4802880088401CB94B04
:101540001880B64881540021184602880088401C43
:101550001880B248815400240BE0B448015DB148C2
:1015600002880088401CAF4B1880AC488154601C36
:10157000C4B2052CF1DB082507E0A848415DA5F1C0
:1015800008000DF80010681CC5B2A6480088854206
:10159000F3DBA4480088A0F108016846FFF7D8FCF7
:1015A00086B2A04802880088401C9E4B18809B4849
:1015B00086543212184601880088401C18809748CB
:1015C00042545A21184602880088401C18809348CB
:1015D0008154FFF785FF08B070BD704710B5002437
:1015E0000CE09348015D8E4802F023F800BF8C4860
:1015F000008810F0800FFAD0601C84B2202CF0DB41
:1016000010BD2DE9FF4F85B00C469046A8F1300083
:1016100000F0FF08A4F13000C4B204F2FF2001037F
:10162000102201A8FFF7AFF99DF810904FEA0929A1
:101630009DF8110040EA0909A9F57F40FF3800D163
:101640008146601EC0EBC0006F4901EB8000C07C8A
:1016500000FB09F01FFA80F99DF812B04FEA0B2B3E
:101660009DF8130040EA0B0BABF57F40FF3800D12B
:101670008346601EC0EBC000634901EB8000C07C64
:1016800000FB0BF01FFA80FB9DF80C703F029DF8E9
:101690000D000743A7F57F40FF3800D10027601EEB
:1016A000C0EBC000584901EB80004069401C06D0E7
:1016B000601EC0EBC00001EB80004069074404F1EC
:1016C000EF000103102201A8FFF75DF99DF810A0BB
:1016D0004FEA0A2A9DF8110040EA0A0AAAF57F405B
:1016E000FF3800D18246601EC0EBC000464901EBC6
:1016F0008000C07C00FB0AF01FFA80FA01F043F87A
:10170000059808287DD2DFE800F0DB04223B546D09
:10171000AFBBB8F1000F06D0B8F1010F07D0B8F198
:10172000020F09D107E06420B7FBF0F707E00A20B9
:10173000B7FBF0F703E002E04FF0020800BF00BF84
:1017400042463946089801F071F90546B9E0B8F10A
:10175000000F03D0B8F1010F07D105E00A2099FB73
:10176000F0F01FFA80F903E002E04FF0010800BF3B
:1017700000BF42464946089801F058F90546A0E0E6
:10178000B8F1000F03D0B8F1010F07D105E00A202E
:101790009BFBF0F01FFA80FB03E002E04FF0010832
:1017A00000BF00BF42465946089801F03FF9054680
:1017B00087E0B8F1000F03D0B8F1010F07D105E0C1
:1017C0000A209AFBF0F01FFA80FA03E002E04FF0E3
:1017D000010800BF00BF42465146089801F026F9B3
:1017E00005466EE013490868002103F035FF2FD24B
:1017F00010490868104903F0FBFC0E4908600868AE
:101800001CE05DE022000020EC140020EC10002021
:10181000180000203400002011000020EC120020ED
:10182000005000401A000020EC6301080064010829
:101830002364010830000020000080BF03F098FE00
:10184000012201460090089801F0F0F805460AE0F0
:10185000FE49086803F08CFE0122014600900898BA
:1018600001F0E4F805462CE0F949086803F080FE31
:10187000012201460090089801F0D8F8054620E0C2
:10188000002618E0601EC0EBC000F24901EB8000AA
:10189000801D815D08988155601EC0EBC000ED4938
:1018A00001EB8000801D805D202802D1032E00DD29
:1018B00003E0701CC6B20C2EE4DB00BF354600E02E
:1018C00000BF00BF284609B0BDE8F08F2DE9FF41F9
:1018D00005460E46A85D5C280CD0A95DDE4802884E
:1018E0000088401CDC4B1880DC488154002004B088
:1018F000BDE8F081701C285C552877D1B01C285CAD
:10190000522834D00CDC482871D004DC432862D043
:1019100044286DD1D5E04D286BD04E28F9D11EE278
:1019200057280AD004DC532873D05428F1D171E031
:10193000592836D07328ECD1BAE1301D2A5CF01C4E
:10194000295C6B460120FFF75CFE074600240BE094
:101950001DF80410C04802880088401CBE4B188047
:10196000BE488154601CC4B2BC42F1DB12E2301D9F
:101970002A5CF01C295C6B460320FFF742FE0746F9
:1019800000240BE01DF80410B34802880088401CB6
:10199000B14B1880B1488154601CC4B2BC42F1DB29
:1019A000F8E1301D2A5CF01C295C6B460420FFF72F
:1019B00028FE074600240BE01DF80420A6480188F5
:1019C0000088401CA44B1880A4484254601CC4B238
:1019D000BC42F1DBDEE1301D2A5CF01C295C6B4669
:1019E0000220FFF70EFE074600240FE0D5E12BE0B2
:1019F000CFE143E01DF80410974802880088401C9E
:101A0000954B188095488154601CC4B2BC42F1DBF0
:101A1000C0E179E0301D2A5CF01C295C6B46052092
:101A2000FFF7EFFD074600240BE01DF804108A487D
:101A300002880088401C884B188088488154601CAC
:101A4000C4B2BC42F1DBA5E1301D2A5CF01C295C6C
:101A50006B460620FFF7D5FD074600240BE01DF876
:101A600004107D4802880088401C7B4B18807B480E
:101A70008154601CC4B2BC42F1DB8BE1F01C285CD9
:101A800000F2CF20010310226846FEF77CFF9DF88C
:101A90000200302101EB20116F4802880088401CB1
:101AA0006D4B18806D4881549DF8020000F00F00C6
:101AB000303019460A880988491C198067498854BA
:101AC00068E1F01C285C00F2CF2001031022684678
:101AD000FEF759FF9DF80300302101EB20125E480C
:101AE00001880088401C5C4B18805C4842549DF87B
:101AF000030000F00F00303019460A880988491C9D
:101B000019805649885445E1F01C285C00F2CF202A
:101B1000010310226846FEF736FF9DF80400FF28F7
:101B200003D108208DF8040016E09DF80500052873
:101B300012DD9DF8040000F00F00092806D19DF881
:101B40000400C01DC0B28DF8040005E09DF804003B
:101B5000401CC0B28DF804009DF8040038B19DF817
:101B60000400102803D09DF8040020283ED19DF8E1
:101B7000040080B93221384802880088401C364B66
:101B80001880364881543321184602880088401C4A
:101B90001880324881549DF80400102810D130215B
:101BA0002D4802880088401C2B4B18802B488154FC
:101BB0003922184601880088401C18802748425462
:101BC0009DF80400202830D1312123480288008864
:101BD000401C214B18802148815439211846028825
:101BE0000088401C18801D4881541EE09DF80400A8
:101BF0004FEA201808F1300017490A880988491C63
:101C0000154B1980154988549DF8040000F00F0009
:101C1000401E00F0FF0808F13000C1B218460288EB
:101C20000088401C18800D4881542D220A480188E4
:101C30000088401C084B1880084842549DF8040056
:101C400024281BD130221846018809E030000020EA
:101C50002C000020EC1400201A000020EC120020C0
:101C60000088401C1880FE484254302118460288E3
:101C70000088401C1880FA48815418E09DF8040040
:101C8000302101EB2011F74802880088401CF54BF9
:101C90001880F34881549DF8040000F00F003030A4
:101CA00019460A880988491C1980ED49885471E051
:101CB000F01C285C00F2CF20010310226846FEF7DA
:101CC00062FE9DF80400FF2803D108208DF804006F
:101CD00016E09DF80500052812DD9DF8040000F0CF
:101CE0000F00092806D19DF80400C01DC0B28DF870
:101CF000040005E09DF80400401CC0B28DF804000B
:101D00009DF80400242810D13021D648028800888C
:101D1000401CD44B1880D248815418460288008851
:101D2000401C1880CE48815418E09DF804003021F2
:101D300001EB2011CB4802880088401CC94B188059
:101D4000C74881549DF8040000F00F003030194658
:101D50000A880988491C1980C14988541AE0301D35
:101D60002A5CF01C295C6B460720FFF74AFC0746FB
:101D700000240BE01DF80410BA4802880088401CBB
:101D8000B84B1880B6488154601CC4B2BC42F1DB29
:101D900000E000BF00BF0420A9E5AA5DB1480188AA
:101DA0000088401CAF4B1880AD48425400209EE58F
:101DB0002DE9F04FADF50D7D07468B460020A94972
:101DC000088000250BE0A848415DA64802880088ED
:101DD000401CA44B1880A2488154681C85B2142D65
:101DE000F1DB00250AE07A5D9E4801880088401CEE
:101DF0009C4B18809A484254681C85B2092DF2DB2E
:101E000097F808A0BAF1060F03DD0DF50D7DBDE8CA
:101E1000F08F002479E024B9092087A921F8140063
:101E20000BE0601E87A931F810108AAA32F8100062
:101E30000844801C87A921F8140087A830F81400F2
:101E4000395C87A830F81400401C385C01EB002096
:101E50008AA921F814008348068887A830F814005E
:101E6000B0F5007F00DDD0E787A830F8145009E016
:101E700029463846FFF72AFD814605EB090085B261
:101E8000681C85B28AA830F8140087A931F81410AC
:101E90000844801CA842EBDC72480088801B801E2E
:101EA00086B284A820F8146024B9092081A921F8F9
:101EB00014000BE0601E81A931F8101084AA32F8DA
:101EC00010000844801C81A921F8140081A830F872
:101ED00014001430624A1654311281A830F81400EC
:101EE00015301154A6F11B00C1B281A830F81400BE
:101EF0002D301154A6F11B00C0F3072181A830F842
:101F000014002E301154601C84B2544583DB5548B4
:101F10000088163852490875524800881638000A59
:101F2000487550480088B0F5007F00DD6DE7082453
:101F300007E04B48015DA4F1080001AA1154601CA0
:101F400084B2484800888442F3DB46480088A0F108
:101F5000080101A8FEF7FCFF1FFA80F8414802883B
:101F60000088401C3F4B18803D4800F802804FEA33
:101F70002821184602880088401C1880384881545F
:101F80005A22184601880088401C18803448425460
:101F900000BF3AE770B5ADF5007D05460E46012E4F
:101FA00006D0022E33D0032E64D0042E7ED18FE0D3
:101FB00005F58570010302226846FEF7E4FC9DF8F2
:101FC00000009DF8011000EB012084B2A4F57F40D1
:101FD000FF3804D0142C02DBB4F5407F05DD04206B
:101FE000224908700DF5007D70BD05F5857001036F
:101FF000A01C82B26846FEF7C6FC601E1DF80000F9
:102000001B49087021466846FFF7D2FE62E005F5DD
:10201000A870010302226846FEF7B5FC9DF8000097
:102020009DF8011000EB012084B2142C02DBB4F502
:10203000407F00DDD6E705F5A8700103A01C82B241
:102040006846FEF7A0FCA01E1DF8000008490870B5
:10205000A01F84B2A01C81B26846FFF7A9FE39E038
:10206000EC1200201A000020EC630108240000207C
:102070002700002002226946634800F093FD9DF886
:1020800000009DF8011000EB012084B2A4F57F4010
:10209000FF3804D0142C02DBB4F5407F09DD692140
:1020A0005A48FFF785FE0A20594900E011E0087000
:1020B0000DE022466946544800F074FD214668460A
:1020C000FFF776FE601E1DF800005149087001E020
:1020D00000E000BF00BF4F48007808B9FFF700FAE2
:1020E00000BF7FE710B54C48007878B34A480078C5
:1020F000012806D0022810D0032808D0042820D1B7
:1021000011E0FEF768FF0020444908801AE0FFF75D
:1021100080F800204149088014E0FFF75EFA0020B3
:102120003E4908800EE0002406E03D48015D3D4840
:1021300001F07FFA601CC4B2384800888442F4DBA6
:1021400000E000BF00BF0020334908703648007827
:10215000052858D135480078012851DB3448807D66
:10216000A02817D0A1283CD10020304908700024B5
:1021700007E004F11D002E49085C2E490855601C3B
:10218000C4B2082CF5DB2348007800F0FE0021499A
:10219000087027E025480078401C2449087008464C
:1021A000007803280BDD0020087001202249087008
:1021B0001848007800F0FE001649087012E000246C
:1021C0000CE01E48015D174801F033FA00BF1548C6
:1021D000008810F0800FFAD0601CC4B21E2CF0DB17
:1021E00000E000BF00BF14480078012805D00F4868
:1021F000007810B9FEF7CFFF02E000200E4908700A
:1022000000200949087010BD00E00708616401085A
:1022100027000020130000201500002018000020D7
:10222000EC100020005000400500002011000020AC
:102230006C10002006000020120000200564010838
:1022400008B50121042000F0A1FE0320ADF8000034
:1022500010208DF8030002208DF802006946FE4828
:1022600000F05CFF0321FC4801F003F80120FEF7B9
:10227000A8FA08BD70B505460026F748006820F0AA
:10228000F000F54908600846006840F0300008603A
:1022900080241EE02C4203D00120F049086002E0B7
:1022A0000020EE4908604FF00100FEF767FA0120B8
:1022B000EB4908604FF00200FEF760FA0020E949A0
:1022C000C1F880010120FEF759FA204604EBD071D5
:1022D0004C10002CDEDCE048006820F0F000DE4905
:1022E00008600846006840F0800008600120FEF7A2
:1022F00045FA0120DA490860FEF740FAD948D0F8DB
:102300000401C6B20020D64908604FF00100FEF774
:1023100035FA3220FEF732FACF48006820F0F0009C
:10232000CD4908600846006840F030000860012090
:10233000CC49C1F88401FEF721FAC748006820F0B3
:10234000F000C54908600846006840F08000086059
:102350000520FEF713FA304670BD70B5054600261D
:102360000120BE490860BC48006820F0F000BA496E
:1023700008600846006840F0800008604FF00000E8
:10238000B849C1F880014FF00100FEF7F7F9802449
:1023900016E00120B24908604FF00400FEF7EEF9A4
:1023A000B048D0F8040100B126430020AC490860D1
:1023B0004FF00400FEF7E2F9204604EBD0714C1018
:1023C000002CE6DCA448006820F0F000A249086078
:1023D0000846006840F0300008600DB9012000E0B8
:1023E00000209E4908604FF001009E49C1F880011D
:1023F0004FF00300FEF7C2F90020994908604FF042
:102400000300FEF7BBF901209649C1F8840130466C
:1024100070BD10B50120914908604FF0000091494E
:10242000C1F880014FF00100FEF7A8F901208C49A6
:102430000860FEF7A3F900208A49C1F88401012051
:10244000FEF79CF90020864908604FF00100FEF776
:1024500095F90120FEF792F901208249C1F8800127
:10246000FEF78CF901207F49C1F88401FEF786F957
:1024700000207C49C1F880010120FEF77FF900208F
:102480007649086010BD10B50120744908604FF00E
:1024900000007449C1F8800104460FE00120704932
:1024A00008604FF00200FEF769F900206D49C1F89D
:1024B00080010220FEF762F9601CC4B2092CEDDB3A
:1024C000FFF7A7FF10BD10B50024FFF7DCFF1E20AB
:1024D000FFF7D0FE2044C4B2204610BD70B50446BC
:1024E0000D460026FFF795FF0720FFF7C3FE0646BF
:1024F0000120FFF732FF20700020FFF72EFF287029
:10250000304670BD70B505460024FFF782FF0620F7
:10251000FFF7B0FE2044C4B22878FFF7ABFE20449A
:10252000C4B2204670BD2DE9F04105460F469046E5
:102530000024FFF76EFFB8F1000F03D0B8F1010FD0
:102540000AD104E00320FFF795FE044405E00520CE
:10255000FFF790FE044400E000BF00BF002607E044
:102560004148006800B907E00520FEF707F9761C2E
:102570004FF6FF708642F3D300BF3B48006800B1BE
:10258000641C3548006820F0F000334908600846B4
:10259000006840F0300008600120FFF7DEFE687040
:1025A0000120FFF7DAFE28700020FFF7D6FE387012
:1025B000E0B2BDE8F0812DE9F04F8BB006460F4642
:1025C0002A4809902A4808902A4807902A480690E5
:1025D0002A4805903068049038680390039802F008
:1025E000F4FF274A274BCDE9000102F0DDFE044647
:1025F0000022254B02F0D2FE824603F011F88146FC
:102600001B48049902F0F4FD82461A48049902F02E
:10261000EFFD8346049902F0EBFD0546514602F0BA
:102620008FFD0446114902F08BFD02901348049976
:1026300002F0DEFD8346104902F082FD0546134993
:10264000484602F0CFFD8246294602F0D1FD0446FD
:10265000029902F075FD1BE000080140840121424F
:10266000800121420000214204012142000080C07B
:1026700054E3253DA2E73BB60AD7233CACC5A738B7
:102680007B14AE47E17A843F000044400000C8411B
:1026900080466149404602F0E9FF01D2DFF87881C7
:1026A000404602F092FF04465C4A5D4B02F0A4FFF4
:1026B00001D2DFF87081C7F80090C6F800800BB037
:1026C000BDE8F08F2DE9F04F8BB083460E4658469B
:1026D00002F07BFF074603F00DFB044600224FF09B
:1026E000804302F05BFECDE90401304602F06DFF4D
:1026F00004464A4A4C4B02F0B1FD07468846304634
:1027000002F063FF04460022484B02F04DFE3A46B9
:102710004346CDE9000102F0B7FE8146444A454BED
:1027200002F09CFDCDE90201DDE9042302F096FDF3
:10273000CDE9060102F074FF0990099802F045FF07
:1027400004463D4A3D4B02F02CFE81468A460998DC
:1027500002F03BFF0746364A364B02F01FFE0446A6
:102760002E4A314B02F020FE4A465346CDE9040181
:1027700002F08AFECDE9060102F052FF08900898A7
:102780000BB0BDE8F08F38B500202D4908602D4909
:102790000860FFF755FDFFF776FE00240122694629
:1027A0002848FFF7C0FE2044C4B2002269462448EE
:1027B000FFF7B9FE2044C4B214B1FFF764FE0EE087
:1027C0002049086802F0CFFE1E4908601C490868CD
:1027D00002F0C9FE1A4908601A48FFF7ECFE00250E
:1027E00000E06D1C042DFCD315490868164902F061
:1027F000FFFC13490860086802F0D3FE0546114942
:102800000868114902F0F4FC0E490860086802F0FB
:10281000C8FE054638BD00000000C8429A99999943
:102820009999B93FCDCCCC3D99A96D4000001E408F
:1028300085B185200725E53F185B0872505220407E
:10284000300000202C000020000020417FB505460C
:102850000C460121022000F0A6FBADF80850ADF8AF
:1028600004400020ADF80A00ADF8060001A92A488E
:1028700001F04CFD01221146274802F09CF81D2072
:102880008DF8000005208DF8010000208DF8020071
:1028900001208DF80300684600F097FF01211E48D3
:1028A00002F064F87FBD10B501211B4802F01DFB4A
:1028B00080B30121184802F029FB184800686FEA2C
:1028C00000001749C1F8900116480078002809DD7A
:1028D00014480078FF2805D012480078401E11499E
:1028E000087017E00F480078FF2800D110BD0E488F
:1028F00001780E480078401C814205DD0B480078C5
:10290000401C0A49087002E00020084908700120B4
:102910000749087000BFE9E7000400409001224227
:102920000000224227000020250000202600002071
:10293000280000200346190903F00F02092903DDCE
:1029400001F13700C1B202E001F13000C1B2092A41
:1029500003DD02F13700C2B202E002F13000C2B280
:1029600042EA01207047024600201EE0135C302B33
:1029700006DB135C392B03DC135C303B135412E091
:10298000135C412B06DB135C462B03DC135C373BEB
:10299000135408E0135C612B05DB135C662B02DC2F
:1029A000135C573B1354431CD8B28842DEDB70479C
:1029B0001CB5024642F21073042113E000200DF80A
:1029C000010006E0D21A1DF80100401CC0B20DF84B
:1029D00001009A4201D3092BF4D80A20B3FBF0F38B
:1029E000481EC1B20029E9D1D0B28DF800009DF88F
:1029F000040000049DF8034040EA04309DF80240C2
:102A000040EA04209DF8014040EA04109DF800408F
:102A100020431CBD014601F0F000001100EB8002D4
:102A2000500001F00F020244D0B270472DE9FC4380
:102A300003460D461646002294460027002D02DA72
:102A40006D424FF0010C0A2095FBF0F800FB185086
:102A5000303000F0FF09104602F1010808F0FF02D3
:102A600003F800900A2095FBF0F511E00A2095FB91
:102A7000F0F800FB1850303000F0FF09104602F16A
:102A8000010808F0FF0203F800900A2095FBF0F51A
:102A9000002DEBD1501EC1B20EE0D85D13F80180BD
:102AA00003F807805854A1F1010808F0FF0107F16D
:102AB000010808F0FF0700BF8F42EEDBBCF1010FF9
:102AC00017D12D208DF80000002405E013F80480B4
:102AD000601C0DF80080C4B29442F7DB501CC2B2F7
:102AE000002404E01DF804001855601CC4B2944290
:102AF000F8DB002E3EDD501EC1B2B24213DD06E00F
:102B000013F80180481C03F80080481EC1B2901BD6
:102B10008842F5DD4FF02E08481C03F80080501C59
:102B2000C0B2BDE8FC83002912DD06E013F8018085
:102B3000881C03F80080481EC1B20029F6DC187812
:102B400098702E20587030201870901CC0B2E8E7A2
:102B500013F80180701C03F80080002703E0302088
:102B6000D855781CC7B2B742F9DD2E205870B01C7A
:102B7000C0B2D6E71046D4E70146088870472DE971
:102B8000F04105460E461746002407E036F81410BB
:102B9000284600F0E8FFAD1C601C84B2BC42F5DBA7
:102BA000BDE8F08130B503460C461546002207E02B
:102BB0001846FFF7E1FF24F812009B1C501C82B25C
:102BC000AA42F5DB30BD2DE9F05F80468A46174604
:102BD000B8F1006F02D33748804501D3BDE8F09FBC
:102BE00000F07BFEA8F1006B4FEADB25CBF349092F
:102BF000C9F58064A74200DC3C464DE04FF000611F
:102C000001EBC5204A142C49FFF7CCFF00260BE04E
:102C100009EB0600284931F81000A0F57F41FF3983
:102C200000D003E0701C86B2A642F1DB00BFA642D2
:102C30001BDA4FF0006101EBC52000F094FE002686
:102C400008E03AF8160006EB09011B4A22F81100C9
:102C5000701C86B2A642F4DB4FF0006101EBC52088
:102C60004A141549FFF78BFF04E0224651464046BF
:102C7000FFF785FFA74200D10FE06D1C4FF0000960
:102C80000AEB440AA044381B87B2B7F5806F02DD17
:102C90004FF4806400E03C46B0E700BF00F029FE3E
:102CA00000BF9BE713B50446012201A92046FFF7A8
:102CB0008AFF1CBD000008088A160020DC48006856
:102CC00040F00100DA49086008464068D9490840E8
:102CD000D749486008460068D7490840D449086089
:102CE0000846006820F4802008600846406820F408
:102CF000FE0048604FF41F0088607047CC490968A7
:102D000021F48031CA4A11601146096821F48021FA
:102D10001160B0F5803F03D0B0F5802F0ED106E0F2
:102D2000C349096841F48031C14A116007E0C049D4
:102D3000096841F4A021BE4A116000E000BF00BF55
:102D4000704710B501460022002300204A11012AD5
:102D500002D1B74C236806E0022A02D1B44C236AA0
:102D600001E0B34C636A01F01F02012494401C424D
:102D700001D0012000E0002010BD70B50024002526
:102D8000002600BF3120FFF7DCFF0646641CB4F5C7
:102D9000A06F01D0002EF5D03120FFF7D2FF08B18F
:102DA000012500E00025284670BD01460020A04A0C
:102DB000106820F0F80040EAC100106070479F4999
:102DC0000860704702460020994B586820F47C1038
:102DD00042EA01031843964B5860704797490866CA
:102DE000704701460020924A506820F003000843D3
:102DF000506070478E48406800F00C0070470146F4
:102E000000208B4A506820F0F00008435060704763
:102E100001460020864A506820F4E0600843506074
:102E2000704701460020824A506820F4605040EA12
:102E3000C1005060704729B17D4A527A02437C4BF1
:102E40005A7206E07A4A527AC343DBB21A40784B90
:102E50005A7270477A490860704701460020744AE8
:102E6000506820F440400843506070470021754A84
:102E700011706F4A82F82010012802D0042808D16E
:102E800003E001216F4A117004E005216D4A1170C1
:102E900000E000BF00BF70476B490860704764499D
:102EA000096A0143624A1162704767494439086000
:102EB000704730B500210022002400235C4D6D686E
:102EC00005F00C0121B1042905D0082923D105E022
:102ED0005E4D056022E05D4D05601FE0544D6D685C
:102EE00005F47012524D6D6805F48034022505EB2F
:102EF00092421CB9564D554305600BE04C4D6D6830
:102F000015F4003F03D0524D5543056002E04F4D8C
:102F10005543056002E04D4D056000BF00BF444DC4
:102F20006D6805F0F00109094A4D6B5C0568DD40EC
:102F300045603F4D6D6805F4E061090A454D6B5CE5
:102F40004568DD4085603A4D6D6805F46051C90AF9
:102F5000404D6B5C4568DD40C560354D6D6805F4DE
:102F60004041890B3C4D6B5CC568B5FBF3F50561D1
:102F700030BD29B12E4A526902432D4B5A6104E0FB
:102F80002B4A526982432A4B5A61704729B1284A19
:102F900092690243264B9A6104E0254A9269824372
:102FA000234B9A61704729B1214AD2690243204BD1
:102FB000DA6104E01E4AD26982431D4BDA61704730
:102FC00029B11B4AD2680243194BDA6004E0184A5F
:102FD000D2688243164BDA60704729B1144A1269ED
:102FE0000243134B1A6104E0114A12698243104BE9
:102FF0001A61704714494039086070470F49C86426
:1030000070470B49C87170470948406A40F08070AA
:1030100007494862704701460020054A92680A4203
:1030200001D0012000E000207047014988727047FC
:10303000001002400000FFF8FFFFF6FE00004242D1
:10304000D8004242201002408004424200127A001E
:1030500000093D00390000204900002010B5044659
:10306000CA48844208D101210420FFF7A9FF0021AA
:103070000420FFF7A5FF46E0C548844208D101219E
:103080000820FFF79DFF00210820FFF799FF3AE095
:10309000C048844208D101211020FFF791FF002190
:1030A0001020FFF78DFF2EE0BB48844208D101219C
:1030B0002020FFF785FF00212020FFF781FF22E07D
:1030C000B648844208D101214020FFF779FF002152
:1030D0004020FFF775FF16E0B148844208D1012176
:1030E0008020FFF76DFF00218020FFF769FF0AE0D5
:1030F000AC48844207D101218015FFF761FF002110
:10310000A015FFF75DFF10BD10B501210846FFF7C0
:1031100057FF00210120FFF753FF10BD2DE9F041BB
:10312000024600250026002000230024002791F8F5
:1031300003C00CF00F0591F803C01CF0100F03D072
:1031400091F802C04CEA0505B1F800C01CF0FF0F71
:1031500031D0146800202BE04FF0010C0CFA00F382
:10316000B1F800C00CEA03069E4220D183004FF064
:103170000F0C0CFA03F7BC4305FA03FC4CEA0404F9
:1031800091F803C0BCF1280F06D14FF0010C0CFAE6
:1031900000FCC2F814C00AE091F803C0BCF1480F6B
:1031A00005D14FF0010C0CFA00FCC2F810C0401C15
:1031B0000828D1D31460B1F800C0BCF1FF0F34DD92
:1031C000546800202EE000F1080C4FF0010808FAC6
:1031D0000CF3B1F800C00CEA03069E4221D1830033
:1031E0004FF00F0C0CFA03F7BC4305FA03FC4CEA52
:1031F000040491F803C0BCF1280F05D100F1080CBC
:1032000008FA0CF8C2F8148091F803C0BCF1480F1A
:1032100007D100F1080C4FF0010808FA0CF8C2F8C9
:103220001080401C0828CED35460BDE8F0814FF6D2
:10323000FF710180022181700421C1707047024634
:10324000002093680B4201D0012000E0002070476D
:103250000146886880B2704702460020D3680B425E
:1032600001D0012000E0002070470146C86880B20C
:10327000704701617047416170470AB1016100E028
:1032800041617047C16070474FF480320A438261E8
:103290008161826182698269704702460020424BE7
:1032A00018684FF68073184040EA021008433E4BFE
:1032B000186070473D49C8617047F0B50A46002361
:1032C00000240021002500F00046B6F1004F02D195
:1032D000354EF16901E0344E7168C0F3034583B2A5
:1032E00000F44016B6F5401F08D121F070612E4E53
:1032F000766826F070662C4F7E6012E000F480162F
:10330000B6F5801F06D1032606FA05F4A14341F065
:10331000706106E0460D360103FA06F6B14341F04E
:10332000706122B1460D360103FA06F6314300F012
:103330000046B6F1004F02D11B4EF16101E01A4E7A
:103340007160F0BD30B500228B071C0F0F2303FA0C
:1033500004F2154B08338C1053F824309343124C6D
:1033600008348D1044F8253023468C1053F824304F
:103370008C07240F00FA04F423430B4C08348D10FF
:1033800044F8253030BD0A49086070470008014004
:10339000000C0140001001400014014000180140E1
:1033A000001C0140002001400000014000002042BC
:1033B000DC00204210B50446FC48844209D10121BA
:1033C0008803FFF7FDFD00214FF48040FFF7F8FD73
:1033D00032E0F748844209D101214804FFF7FDFD9E
:1033E00000214FF40030FFF7F8FD25E0F14884425A
:1033F00009D101218804FFF7F0FD00214FF480205E
:10340000FFF7EBFD18E0EC48844209D10121C80424
:10341000FFF7E3FD00214FF40020FFF7DEFD0BE096
:10342000E648844208D101210805FFF7D6FD0021B6
:103430004FF48010FFF7D1FD10BD2DE9F04786B0A5
:1034400005460E460024A24600BFA1460027B089CB
:1034500000B100BF2F462C8A4CF6FF700440F08864
:1034600004432C82AC894EF6F3100440B0883189B5
:103470000843718908430443AC81AC8A4FF6FF408E
:103480000440B0890443AC8201A8FFF712FDC7488D
:10349000874202D1DDF810A001E0DDF80CA0A88978
:1034A00010F4004F08D00AEBCA0000EB0A10316894
:1034B0004900B0FBF1F807E00AEBCA0000EB0A1084
:1034C00031688900B0FBF1F86420B8FBF0F004012A
:1034D0002009642101FB1089A88910F4004F08D04D
:1034E000322000EBC900B0FBF1F000F0070004430C
:1034F00008E0322000EB09106421B0FBF1F000F08D
:103500000F0004432C8106B0BDE8F0874FF416513C
:10351000016000218180C18001810C214181002155
:103520008181704710B502460020108A4FF2FF03D8
:1035300018400B884C8823438C882343CC88234332
:103540001843108210BD0021018041808180C1801C
:10355000704721B1828942F40052828104E082895D
:103560004DF6FF731A4082817047F0B50346002480
:10357000002600250020A1F510676A3F00D100BF9A
:103580001846C1F3421401F01F06012707FA06F599
:10359000012C01D10C3004E0022C01D1103000E0EC
:1035A00014301AB107682F43076002E00768AF4381
:1035B0000760F0BD10B51AB1838A0B43838204E023
:1035C000838ACC43A4B22340838210BD028A4FF683
:1035D000F0731A400282028A0A430282704782898B
:1035E0004FF2FF731A40828182890A4382817047B9
:1035F00021B1828942F00202828104E082894FF681
:10360000FD731A4082817047028A4FF6DF731A40B9
:103610000282028A0A430282704721B1028A42F47E
:103620008042028204E0028A4BF6FF731A40028253
:103630007047C1F308028280704701468888C0F352
:1036400008007047818941F0010181817047028B38
:10365000D2B20283028B42EA012202837047028BBC
:1036600002F47F420283028B0A430283704721B136
:10367000828A42F02002828204E0828A4FF6DF735F
:103680001A408282704721B1828A42F010028282FF
:1036900004E0828A4FF6EF731A408282704721B1AC
:1036A000828A42F00802828204E0828A4FF6F7732F
:1036B0001A408282704721B1828942F4004282819D
:1036C00003E08289C2F30E028281704721B1828AAF
:1036D00042F40062828204E0828A4FF2FF731A4051
:1036E00082827047828A4FF6FB731A408282828AF6
:1036F0000A438282704721B1828A42F002028282AA
:1037000004E0828A4FF6FD731A40828270470246B7
:103710000020B1F5007F00D100BF13880B4201D01B
:10372000012000E00020704701F40072B2F5007F34
:1037300000D100BFCA430280704770B50246002422
:10374000002300250020A1F510666A3E00D100BFCD
:10375000C1F3421501F01F03012606FA03F3012D00
:1037600002D19689334006E0022D02D1168A3340F9
:1037700001E0968A33400C12012606FA04F41688FA
:10378000344013B10CB1012000E0002070BD10B531
:1037900000220023A1F510646A3C00D100BF0A1288
:1037A00001249440A3B2DC43048010BD00380140E2
:1037B0000044004000480040004C004000500040E1
:1037C00031490143314A1160704770B5002100232F
:1037D0000F22C4780CB32D4C246804F4E064C4F5C3
:1037E000E064210AC1F10403CA40447804FA03F1F9
:1037F0008478144021430901254C0678A1550478AA
:1038000004F01F050124AC4005786D114FF0E0264F
:1038100006EB8505C5F8004109E0047804F01F05B2
:103820000124AC401B4D0678761145F8264070BD4A
:10383000194A0A400243154B1B1F1A60704739B1E1
:10384000124A121D12680243104B1B1D1A6006E03B
:103850000E4A121D126882430C4B1B1D1A607047E2
:10386000042808D14FF0E021096941F004014FF02C
:10387000E022116107E04FF0E021096921F0040125
:103880004FF0E022116170470000FA050CED00E0F6
:1038900000E400E080E100E080FFFF1F014600201F
:1038A000FE4A106800F03800084310607047FB497A
:1038B000096821F00801F94A1160114609680143BD
:1038C00011607047F549096821F01001F34A116051
:1038D00011460968014311607047F148EF4948609B
:1038E000F04848607047EE48EC494860ED48486051
:1038F0007047EA48006940F08000E8490861704775
:10390000E648006940F08000E449086170470420FF
:10391000E249C96801F00101012901D101200EE04D
:10392000DE49C96811F0040F01D0022007E0DB492D
:10393000C96811F0100F01D0032000E00420704787
:1039400000B502460423FFF7E2FF034603E0FFF75A
:10395000DEFF0346521E012B01D1002AF7D102B926
:103960000523184600BD30B5044604254FF4302029
:10397000FFF7E6FF0546042D17D1C848006940F05F
:103980000200C649086108464461006940F04000F1
:1039900008614FF43020FFF7D3FF0546BF480069A8
:1039A00041F6FD710840BD490861284630BD10B59B
:1039B00004244FF43020FFF7C3FF0446042C16D133
:1039C000B648006940F00400B4490861084600693F
:1039D00040F0400008614FF43020FFF7B1FF04468B
:1039E000AE48006941F6FB710840AC4908612046C9
:1039F00010BD00B502460423FFF789FF034603E02C
:103A0000FFF785FF0346521E012B01D1002AF7D193
:103A100002B90523184600BD10B504244FF4302028
:103A2000FFF7E7FF0446042C16D19C48006940F0DC
:103A300004009A4908610846006940F040000861A6
:103A40004FF43020FFF7D5FF04469448006941F653
:103A5000FB71084091490861204610BD00208F4944
:103A6000C96911F0020F01D0012000E00020704769
:103A700030B5A5250424FFF7F1FF00B100254FF470
:103A80003020FFF75DFF0446042C3AD18448834977
:103A90008860844888600846006940F0200008611A
:103AA0000846006940F0400008614FF43020FFF7FD
:103AB00047FF0446042C1BD17848006941F6DF71AA
:103AC0000840764908610846006940F01000086126
:103AD00075480580E002FFF733FF0446052C10D03F
:103AE0006E48006941F6EF7108406C49086108E0D2
:103AF000052C06D06948006941F6EF710840674916
:103B00000861204630BDF0B504460D460426002766
:103B1000F002FFF715FF0646042E22D15F48006928
:103B200040F001005D4908612580F002FFF708FFC1
:103B30000646042E0ED1A71C280C3880F002FFF791
:103B4000FFFE06465548006941F6FE71084053499C
:103B5000086106E05148006941F6FE7108404F498E
:103B600008613046F0BD70B504460D460426F002EB
:103B7000FFF7E6FE0646042E11D14848006940F0E2
:103B80000100464908612580F002FFF7D9FE06468C
:103B90004248006941F6FE710840404908613046DC
:103BA00070BD70B505460E460424E002FFF7C8FE5E
:103BB0000446042C17D13A4838498860394888604F
:103BC0000846006940F0100008612E80E002FFF70F
:103BD000B7FE0446052C06D03048006941F6EF7167
:103BE00008402E490861204670BD2DE9F043044687
:103BF0004FF6FF763746B046B1460425E443E6B2B9
:103C0000C4F30727C4F307484FEA1469E802FFF733
:103C100097FE0546042D40D121482049886021485F
:103C200088600846006940F010000861FF2E06D049
:103C30001D4808300680E802FFF782FE0546042D85
:103C400008D1FF2F06D018480A300780E802FFF796
:103C500077FE0546042D0AD1B8F1FF0F07D01248B0
:103C60000C30A0F80080E802FFF76AFE0546042D3C
:103C70000AD1B9F1FF0F07D00B480E30A0F8009021
:103C8000E802FFF75DFE0546052D06D003480069F2
:103C900041F6EF7108400149086107E00020024049
:103CA00023016745AB89EFCD00F8FF1F2846BDE82B
:103CB000F08330B5054604244FF43020FFF740FE72
:103CC0000446042C41D15F485F4988605F488860A2
:103CD0000846006940F0200008610846006940F08D
:103CE000400008614FF43020FFF72AFE0446042C00
:103CF00022D15548006941F6DF71084052490861F8
:103D00000846006940F0100008611DB100205049CC
:103D1000088002E0A5204E4908804FF43020FFF7CC
:103D20000FFE0446052C10D04748006941F6EF719C
:103D300008404549086108E0052C06D04248006962
:103D400041F6DF71084040490861204630BDF0B5BA
:103D500005460E46174604243A483B4988603B48CE
:103D60008860E002FFF7ECFD0446042C19D13648C8
:103D7000006940F010003449086147F0F800304312
:103D800028433349891C0880E002FFF7D9FD044627
:103D9000052C06D02C48006941F6EF7108402A49ED
:103DA00008612046F0BD2848C06980087047264851
:103DB000006A704700202449096811F0200F01D0E3
:103DC000012000E00020704729B11F4A1269024318
:103DD0001D4B1A6104E01C4A126982431A4B1A6196
:103DE000704701460020012908D1174AD26912F014
:103DF000010F01D0012008E0002006E0124AD2683D
:103E00000A4201D0012000E0002070470E49C8603E
:103E1000704704200C49C96801F00101012901D152
:103E200001200EE00849C96811F0040F01D00220FA
:103E300007E00549C96811F0100F01D0032000E028
:103E4000042070472301674500200240AB89EFCD75
:103E500000F8FF1F10B50446BF48844208D1012175
:103E60008014FFF7ADF80021A014FFF7A9F816E0C1
:103E7000BA48844208D101210014FFF7AEF80021AE
:103E80002014FFF7AAF80AE0B548844207D10121BF
:103E9000C013FFF7A2F80021E013FFF79EF810BD52
:103EA00010B50022028802F441520B884C8823434B
:103EB0008C882343CC8823430C8923434C89234398
:103EC0008C892343CC8923431A430280838B4FF28E
:103ED000FF74234083830B8A038210BD2DE9F04FCA
:103EE00085B005460C464FF0000902274FF0000848
:103EF0004FF0010B0026B246A88B4FF2400108405C
:103F0000A88302202884B5F81C90A068022801D15B
:103F100000BF36E0A08810B94FF0010B01E04FF070
:103F2000020B8E48854200D100E000BF6846FEF7D4
:103F3000C0FFDDF800A0E088B0F5007F0AD14FEAAD
:103F40001A2000EB80004000A168B0FBF1F0401D9A
:103F500086B20BE04FEA4B10BAFBF0F000EB8000AA
:103F60004000A168B0FBF1F0401D86B20A20B6FB0C
:103F7000F0F606F00108A6EB0800C0F34F074FEA81
:103F80000828022F01DBFF2F02DD02274FF0000877
:103F9000E08840EA080038432884A088A1890843C3
:103FA000618808432188084340F4006040EA090919
:103FB000A5F81C9005B0BDE8F08F0021018041807C
:103FC0008180C180018141818181C181072101827C
:103FD00070470021018041808180C1800221816081
:103FE00000218181704721B1028842F040020280A5
:103FF00004E002884FF6BF731A400280704721B177
:10400000828B42F48062828304E0828B4FF6FF331E
:104010001A408283704770B5002400230C110125DB
:10402000A540ABB21AB185881D43858004E0858820
:10403000DE43B6B23540858070BD10B51AB18388B5
:104040000B43838004E08388CC43A4B22340838065
:1040500010BD81817047014688897047A1F57E4275
:10406000FF3A04D0028842F48072028004E00288A1
:104070004FF6FF631A400280704721B1828842F0F8
:104080000402828004E082884FF6FB731A4082802B
:10409000704702884FF2FF731A40028002880A4379
:1040A00002807047018841F480510180704721B13E
:1040B000028842F40052028004E002884DF6FF7349
:1040C0001A400280704702460020012901D0108B5F
:1040D00000E0908A70470146088A7047B1F5804F2A
:1040E00004D1028842F48042028004E002884BF648
:1040F000FF731A40028070470246002013890B426A
:1041000001D0012000E000207047CA4302817047BF
:10411000F0B50246002000240023002501F00F071F
:104120000126BE40B4B20B1101269E40B3B2968860
:1041300006EA03051689264202D00DB1012000E0EF
:104140000020F0BD10B5002201F00F040123A340B0
:104150009AB2D343038110BD0030014000380040C3
:10416000003C004010B50446FE48844208D10121BD
:10417000C014FEF725FF0021E014FEF721FFC4E084
:10418000B4F1804F08D101210846FEF726FF002137
:104190000120FEF722FFB8E0F348844208D1012154
:1041A0000220FEF71AFF00210220FEF716FFACE006
:1041B000EE48844208D101210420FEF70EFF0021C1
:1041C0000420FEF70AFFA0E0E948844208D101215B
:1041D0000820FEF702FF00210820FEF7FEFE94E013
:1041E000E448844208D101211020FEF7F6FE0021A8
:1041F0001020FEF7F2FE88E0DF48844208D101215A
:104200002020FEF7EAFE00212020FEF7E6FE7CE0FB
:10421000DA48844208D101214014FEF7D1FE002182
:104220006014FEF7CDFE70E0D548844209D101212B
:10423000C804FEF7C5FE00214FF40020FEF7C0FEC3
:1042400063E0D048844209D101210805FEF7B8FE99
:1042500000214FF48010FEF7B3FE56E0CA488442B6
:1042600009D101214805FEF7ABFE00214FF40010F3
:10427000FEF7A6FE49E0C548844208D1012140204E
:10428000FEF7ABFE00214020FEF7A7FE3DE0C04850
:10429000844208D101218020FEF79FFE002180206A
:1042A000FEF79BFE31E0BB48844208D10121801516
:1042B000FEF793FE0021A015FEF78FFE25E0B6481D
:1042C000844209D101210804FEF77AFE00214FF44F
:1042D0008030FEF775FE18E0B048844209D1012114
:1042E0004804FEF76DFE00214FF40030FEF768FE33
:1042F0000BE0AB48844208D101218804FEF760FE40
:1043000000214FF48020FEF75BFE10BD00220288E2
:10431000944B98420ED0994B98420BD0B0F1804FFD
:1043200008D0914B984205D0904B984202D0904BC8
:10433000984204D14FF68F731A404B881A438D4B25
:10434000984207D08C4B984204D04FF6FF431A4056
:10435000CB881A4302808B8883850B880385814B29
:1043600098420BD0854B984208D08B4B984205D091
:104370008A4B984202D08A4B984201D10B7A03862D
:1043800001238382704770B5002400220023058C2E
:104390004FF6FE7635400584028C8388048B4FF6F9
:1043A0008F752C40B51E2C400D882C43751E2A405D
:1043B0000D892A434D882A436A4DA8420BD06F4D80
:1043C000A84208D0744DA84205D0744DA84202D02E
:1043D000734DA84213D14FF6F7752A404D892A43F1
:1043E0004FF6FB752A408D882A434FF6FF652B4018
:1043F0004FF6FF552B408D892B43CD892B4383806E
:104400000483CD888586028470BD70B500240022A7
:104410000023058C4FF6EF7635400584028C8388A7
:10442000048B48F6FF752C404FF6FF452C400D8855
:104430002D0644EA15444FF6DF752A400D892D05F7
:1044400042EA15424D882D0542EA1542454DA842E3
:1044500002D04A4DA8421BD14FF67F752A404D89A4
:104460002D0542EA15424FF6BF752A408D882D056D
:1044700042EA15424FF6FF352B404FF2FF752B40B5
:104480008D89AD0443EA1543CD89AD0443EA154354
:1044900083800483CD880587028470BD70B50024B5
:1044A00000220023058C4FF6FF6635400584028C00
:1044B0008388848B4FF68F752C404FF6FC752C400B
:1044C0000D882C434FF6FF552A400D892D0642EAF0
:1044D00015424D882D0642EA1542224DA84202D0CF
:1044E000264DA8421BD14FF2FF752A404D892D065B
:1044F00042EA15424FF6FF352A408D882D0642EAE2
:1045000015424EF6FF752B404DF6FF752B408D89F9
:104510002D0543EA1543CD892D0543EA15438380D4
:104520008483CD888587028470BD70B50022002306
:104530000024058C4EF6FF7635400584038C848874
:10454000828B48F6FF752A404FF6FF452A400D88BA
:104550002D0642EA15424DF6FF752B400D892D07B9
:1045600020E00000002C0140000400400008004052
:10457000000C0040001000400014004000340140D6
:10458000004C014000500140005401400018004020
:10459000001C004000200040004001400044014059
:1045A0000048014043EA15434D882D0743EA15436F
:1045B000F84DA84202D0F84DA84206D14BF6FF753F
:1045C0002C408D89AD0544EA154484808283CD88D2
:1045D000A0F84050038470BD828B4FF2FF331A4025
:1045E0008283828B0B0642EA134282837047F0B5C6
:1045F0000C461546002200210026078C4EF6FF7C53
:1046000007EA0C070784828B018C27073E0C40F6D3
:10461000FF473A402F0642EA17421F0742EA174275
:10462000DC4FB8420ED0DC4FB8420BD0B0F1804F17
:1046300008D0DA4FB84205D0D94FB84202D0D94F8E
:10464000B84206D14DF6FF77394046F480573943DA
:1046500005E047F6FF57394044F4805739438283D9
:104660000184F0BD828B4FF6F3731A408283828BF4
:104670000A4382837047F0B50C461546002200219C
:104680000026078C4FF6FF6C07EA0C070784828B25
:10469000018C27063E0C4FF60C773A401F0545EA81
:1046A00017473A43BB4FB8420ED0BB4FB8420BD06E
:1046B000B0F1804F08D0B94FB84205D0B84FB842DA
:1046C00002D0B84FB84206D14FF6FF57394046F4F2
:1046D0008077394305E04FF2FF57394044F4807743
:1046E000394382830184F0BD028B4FF2FF331A40BD
:1046F0000283028B0B0642EA134202837047F0B535
:104700000C461546002200210026078C4FF6EF7C50
:1047100007EA0C070784028B018C27053E0C40F644
:10472000FF473A401F0742EA17422F0642EA174264
:10473000984FB8420ED0984FB8420BD0B0F1804F8E
:1047400008D0964FB84205D0954FB84202D0954F49
:10475000B84206D14FF6DF77394046F010073943AB
:1047600005E04FF65F77394044F010073943028384
:104770000184F0BD028B4FF6F3731A400283028B63
:104780000A4302837047F0B50C461546002200210B
:10479000068C4FF6FE773E400684028B018C4FF666
:1047A0000C7632401E0545EA16463243794EB04239
:1047B0000ED0794EB0420BD0B0F1804F08D0774E7A
:1047C000B04205D0764EB04202D0764EB04206D10D
:1047D0004FF6FD76314044F00106314305E04FF6D7
:1047E000F576314044F00106314302830184F0BD87
:1047F00070B505460C46674885420ED0664885422E
:104800000BD0B5F1804F08D06448854205D064488C
:10481000854202D06348854200D100E000BF208875
:1048200050B92389A28861882846FFF7ACFFE18848
:104830002846FFF79FFF25E0208804280AD1238916
:10484000A28861882846FFF75AFFE1882846FFF7CB
:104850004BFF17E0208808280AD12389A2886188A5
:104860002846FFF708FFE1882846FFF7FBFE09E02E
:104870002389A28861882846FFF7B9FEE188284687
:10488000FFF7AAFE70BD2DE9F04105460C46002653
:104890000127608808B9022600E00026A0880128C8
:1048A00001D1022700E001272088A0B92389A2882E
:1048B00061882846FFF767FFE1882846FFF75AFF1F
:1048C00023893A4631462846FFF719FFE1882846F2
:1048D000FFF70AFF13E02389A28861882846FFF7C3
:1048E0000EFFE1882846FFF7FFFE23893A4631464E
:1048F0002846FFF748FFE1882846FFF73BFFBDE861
:10490000F0810A884B881A438B881A43CB881A4354
:104910000B891A434B891A438B891A43A0F8442008
:1049200070474FF6FF71818000210180C180418076
:10493000017270470021018041808180C180018126
:1049400041818181C1817047002101804180012125
:1049500081800021C1800181704700210180418058
:104960008180C180018141818181704721B10288AC
:1049700042F00102028004E002884FF6FE731A4002
:104980000280704781B1B0F8442042F40042A0F8A0
:1049900044200FE0002C014000340140000400409E
:1049A00000080040000C0040B0F84420C2F30E02A2
:1049B000A0F84420704710B51AB183890B43838156
:1049C00004E08389CC43A4B22340838110BD81825B
:1049D000704741EA0203A0F84830704710B51AB199
:1049E00083890B43838104E08389CC43A4B22340B1
:1049F000838110BD01894FF6F87211400181704723
:104A00000A46002101894FF68F7319401143018135
:104A1000704730B504460D4629462046FFF7F0FFA3
:104A2000208940F00700208130BD2DE9F041044687
:104A30000D4616461F46602D06D13B4601223146E3
:104A40002046FFF75CFE05E03B460122314620464A
:104A5000FFF799FE29462046FFF7D2FF208940F054
:104A600007002081BDE8F08130B50C4600210189A6
:104A7000C9B21D0642EA154525432943018130BDCF
:104A80002DE9F04105460E46174698460024434658
:104A90003A4631462846FFF7E7FF2C894FF6F87073
:104AA000044044F007044FF68F70044044F0700453
:104AB0002C81BDE8F081F0B504460D4616461F4630
:104AC0003B46324629462046FFF7CEFF208940F478
:104AD00080402081F0BD0185828270470A46002116
:104AE00001884FF68F731940114301807047F0B56C
:104AF0000C4615461E460021002200230189028B28
:104B0000038C4FF6F877394021434FF6FC473A4083
:104B100040F201173A434FF6DD773B40370545EA4F
:104B200017473B43018102830384F0BD0A460021FD
:104B3000018B4FF68F7319401143018370470A466A
:104B40000021018B48F6FF731940130641EA134117
:104B5000018370470A460021818B4FF68F731940FD
:104B60001143818370470A460021818B48F6FF7309
:104B70001940130641EA13418183704721B102882D
:104B800042F08002028004E002884FF67F731A40F0
:104B90000280704721B1828842F00402828004E0E2
:104BA00082884FF6FB731A408280704721B1828859
:104BB00042F00802828004E082884FF6F7731A40C0
:104BC0008280704721B1828842F00102828004E035
:104BD00082884FF6FE731A40828070470A46002191
:104BE000018B4FF6F77319401143018370470A4652
:104BF0000021018B4FF2FF731940130641EA134164
:104C0000018370470A460021818B4FF6F7731940E4
:104C10001143818370470A460021818B4FF2FF7355
:104C20001940130641EA1341818370470A46002167
:104C3000018B4FF6FB7319401143018370470A46FD
:104C40000021018B4FF6FF331940130641EA13414F
:104C5000018370470A460021818B4FF6FB73194090
:104C60001143818370470A460021818B4FF6FF3341
:104C70001940130641EA1341818370470A46002117
:104C8000018B4FF67F7319401143018370470A4629
:104C90000021018BC1F30E01130641EA1341018388
:104CA00070470A460021818B4FF67F7319401143EC
:104CB000818370470A460021818BC1F30E011306E0
:104CC00041EA1341818370470A460021018C4FF667
:104CD000FD7319401143018470470A460021018C7D
:104CE0004FF6F77319401143018470470A460021BB
:104CF000018C4FF6DF731940130541EA134101841B
:104D000070470A460021018C4FF67F731940130546
:104D100041EA1341018470470A460021018C4FF695
:104D2000FF531940130641EA1341018470470A46B4
:104D30000021018C4FF2FF731940130641EA134121
:104D4000018470470A460021018C4DF6FF7319401B
:104D5000130741EA13410184704730B50023012451
:104D60008C40A3B2048CDD43ADB22C400484048C8F
:104D700002FA01F5ADB22C43048430BD30B50023F6
:104D800004248C40A3B2048CDD43ADB22C400484D7
:104D9000048C02FA01F5ADB22C43048430BD70B529
:104DA0000346002000241846183001258D40ACB27F
:104DB0001D8CE643B6B235401D8409B1082909D1DE
:104DC00000EB6100056825F0700505600568154376
:104DD00005600CE00D1FADB200EB6500056825F421
:104DE000E04505600568160645EA1645056070BD94
:104DF00021B1028842F00202028004E002884FF6EC
:104E0000FD731A400280704721B1028842F004020B
:104E1000028004E002884FF6FB731A40028070475C
:104E200021B1828842F08002828004E082884FF6BD
:104E30007F731A408280704702884FF6F7731A40DA
:104E4000028002880A430280704782884FF68F737F
:104E50001A40828082880A438280704702894FF616
:104E6000F8731A40028102890A430281704702895D
:104E70004FF67F731A40028102890A43028170470C
:104E800081847047818570478186704701877047AC
:104E900081877047A0F84010704702884FF6FF43A3
:104EA0001A40028002880A43028070470146888EB9
:104EB00070470146088F70470146888F704701464A
:104EC000B1F8400070470146888C70470146088D54
:104ED000704702460020138A0B4201D0012000E0F7
:104EE00000207047CA430282704730B50246002056
:104EF00000230024158A05EA0103958905EA0104C7
:104F000013B10CB1012000E0002030BDCA43028281
:104F1000704700000E49086070470D4948607047AF
:104F20000B49886070474AF6AA2009490860704713
:104F30004CF6CC4006490860704701460020044A00
:104F4000D2680A4201D0012000E000207047000032
:104F50000030004000210020674A126842F480328D
:104F6000654B1A6000BF644A126802F40030491CA5
:104F700010B9B1F5A06FF6D15F4A126812F4003F84
:104F800001D0012000E00020012842D15B4A1268D4
:104F900042F01002594B1A601A46126822F00302BE
:104FA0001A601A46126842F002021A60524A5268A7
:104FB000514B5A601A4652685A601A46526842F477
:104FC00080625A601A46526822F47C125A601A466D
:104FD000526842F4E8125A601A46126842F080722F
:104FE0001A6000BF444A126812F0007FFAD0424AA9
:104FF000526822F00302404B5A601A46526842F04F
:1050000002025A6000BF3C4A526802F00C02082AB1
:10501000F9D1704710B5FFF79DFF10BD10B53648A8
:10502000006840F00100344908600846406834498F
:1050300008403149486008460068324908402E4916
:1050400008600846006820F4802008600846406830
:1050500020F4FE0048604FF41F008860FFF7DAFF7D
:105060004FF000602849086010BD10B500210020F5
:105070000022214B5B6803F00C0121B1042906D00A
:10508000082928D107E0214B214C236027E01F4B42
:105090001F4C236023E0184B5B6803F47010164B21
:1050A0005B6803F48032022303EB904022B9194B72
:1050B0004343174C23600DE00F4B5B6813F4003F34
:1050C00004D0144B4343124C236003E00F4B434383
:1050D0000F4C236003E00D4B0D4C236000BF00BF5D
:1050E000054B5B68C3F303130B4CE15C084B1B6877
:1050F000CB40074C236010BD00100240002002404E
:105100000000FFF8FFFFF6FE08ED00E000127A0055
:105110005000002000093D005400002040EA010337
:105120009B0703D009E008C9121F08C0042AFAD25D
:1051300003E011F8013B00F8013B521EF9D2704721
:10514000F0B480EA0102D20F4300B3EB410F02D268
:105150000346084619464B0042D0C30DDDB2C1F3E9
:10516000C7542C1B202C35DAC1F3160141F400057D
:1051700002B16D42C4F1200605FA06F1254128442A
:10518000B3EBD05F23D0C2B1012CA0EBC35009DC3C
:10519000F0BC4FF0004202EAC35200F50000DBB25F
:1051A00000F098BA400000F1807000EBC350A0F10D
:1051B000807040EAD170490009E0490841EAC071B5
:1051C000A0EBC35000F50000400800EBC350F0BC5A
:1051D00000F077BA5142012303EB4101801AF6E750
:1051E000F0BC704781F00041AAE780F00040A7E7DB
:1051F00080EA010210B502F00042400026D04B00C8
:1052000023D04FEA106101EB1361C0F35600C3F3E2
:10521000560340F4000043F40003A0FB0330A1F167
:105220007F014FEA00401C0401D000F1010050EA68
:10523000134001D44000491EC3B20C0604EBD01049
:10524000401C4008802B02D003E0002010BD20F05D
:105250000100002900DA0020104310BD2DE9FE4FA7
:10526000074681EA0300C00F0E46019021F000417D
:1052700023F00044B81AA14105D2384631461746FA
:105280001E460B46024623F00040104304D1384628
:10529000314603B0BDE8F08F350DC5F30A00C3F306
:1052A0000A510290401A0090402868DAC3F31300B4
:1052B00040F4801B0198924620B10023D2EB030AF0
:1052C00063EB0B0B00985946C0F14002504600F0CA
:1052D000D7F980460C4650465946009A00F0DFF94F
:1052E000C0197141EF1785EA11533B4340D0019A31
:1052F00052B3009A012A11DC0022801A4FF00043B9
:1053000061EB055103EA05538018CDE9002341F50F
:1053100080114246234600F017FABAE72E05002511
:10532000401B61EB0601401941F580120018524103
:105330002818A6F5001343EB020140EAD470294374
:1053400018EB0808644113E064084FEA38084FF08E
:10535000000244EAC0744FEA0553801A61EB03016E
:10536000801841F5801149084FEA300080185941F2
:105370004246234603B0BDE8F04F00F0D8B901988B
:10538000012240000023D0EB020263EBE07301989E
:105390004FEAE074381A66EB0401EBE783F0004350
:1053A0005CE781F0004159E72DE9FE4F81EA0304F3
:1053B00021F0004504F0004423F000414FF0000AC2
:1053C000009450EA050302D052EA010304D1002000
:1053D000014603B0BDE8F08FC1F30A53C5F30A5488
:1053E0001C44A0FB02B3C5F3130545F4801CC1F3B4
:1053F000130141F480180CFB023300FB083EA4F2B9
:10540000F334810A930A41EA8C5143EA88530194A8
:10541000A1FB03474FEA9C2505FB03734FEA98263F
:1054200001FB06373D05260545EA1435BBEB0601B1
:105430006EEB0503850E920E45EA8C1542EA881242
:10544000A5FB0206261E67EB00070C0D44EA033499
:10545000A41947EB1350C1F313064FF0000319468C
:105460004FEA033343EA165343EA0403019CE5FB86
:105470000201A4F10C040294009C4FEA0632CDE92B
:1054800000A400F061F9A4E72DE9F04D81EA0304DE
:1054900004F0004B21F0004714464FF0000A23F0BF
:1054A000004150EA070220D054EA01021DD0C1F3A6
:1054B0000A550246C1F31300C7F30A56C7F3130394
:1054C00040F4801143F48013A6EB0508101BD64668
:1054D00008F2FD3873EB010002D308F1010801E086
:1054E00092185B41B8F1000F03DA00200146BDE8D5
:1054F000F08D00204FF48015064607460EE0B2EB13
:10550000040C73EB010C04D3121B064363EB010381
:105510002F436D084FEA300092185B4150EA050CAA
:10552000EDD152EA030012D082EA040083EA0105B9
:10553000284303D100224FF0004308E0101B8B41A9
:1055400002D20122002302E06FF0010253101AEB95
:10555000060047EB085110EB0A0041EB0B01BDE8D8
:10556000F04D00F0E4B896230022114600F0B2B8E6
:1055700000F0004220F00040C10DC0F3160040F4DE
:1055800000007F2901DA00207047962903DCC1F171
:105590009601C84001E096398840002AF4D0404284
:1055A000704720F00040C10DC0F3160040F4000029
:1055B0007F2901DA00207047962903DCC1F19601AA
:1055C000C840704796398840704700F0004230F07C
:1055D00000400DD0C10D01F5607142EA0151002279
:1055E000C0F31600520742EAD00240071143704749
:1055F000002001467047000030B5002904DB4FF061
:105600000044404264EB0101002B04DB4FF00044F6
:10561000524264EB03038B4208BF824230BD00005C
:1056200001F0004230B421F0004150EA010306D0FD
:105630000B0DA3F56073C1F31301002B02DC30BC2A
:1056400000207047440F44EAC104C100A01830BCD8
:1056500000EBC35000F035B8002801DBC0F100407A
:10566000002901DBC1F1004181427047002801DBC4
:10567000C0F10040002901DBC1F1004188427047C0
:10568000202A04DB203A00FA02F100207047914002
:10569000C2F1200320FA03F3194390407047202AF7
:1056A00006DBCB17203A41FA02F043EAE07170477B
:1056B00041FA02F3D040C2F120029140084319465A
:1056C00070470029A8BF7047401C490008BF20F060
:1056D0000100704710B4B0FA80FC00FA0CF050EAF8
:1056E000010404BF10BC704749B1CCF1200421FA79
:1056F00004F411FA0CF118BF012121430843A3EB74
:105700000C01CB1D0106000A002BBEBF002010BCFF
:10571000704700EBC35010440029A4BF10BC704771
:10572000401C490008BF20F0010010BC704710B5B4
:10573000002B08DA401C41F1000192185B411A432A
:1057400001D120F0010010BD2DE9F04D92469B469D
:1057500011B1B1FA81F202E0B0FA80F22032904643
:10576000FFF78EFF06460F4640EA0A0041EA0B01AA
:1057700052465B46084303D130463946BDE8F08DBA
:10578000194652EA010015D0C8F14002504600F017
:1057900067F804460D46504659464246FFF770FFEB
:1057A000084301D0012000E00020044345EAE075F1
:1057B00026432F430A984FEAD625A0EB08000A306B
:1057C0004FEA46534FF0000245EA47554FEAD724C7
:1057D00002D500200146D1E7010550196141DDE9FC
:1057E000084500196941BDE8F04DA0E770B521F00A
:1057F000004303430CD0C1F30A540026D4EB060542
:1058000066EB0603D417AD1AA34102DB0020014664
:1058100070BD001C41EB025170BD0EB5C10F80EA96
:10582000E0700844CA07002140F233438DE80E00BF
:105830000A460B46FFF788FF03B000BD064C074D34
:1058400006E0E06840F0010394E807009847103450
:10585000AC42F6D3FAF770FC106501083065010818
:10586000202A04DB203A21FA02F00021704721FAB5
:1058700002F3D040C2F1200291400843194670471C
:10588000014A024900F06EB8AD030108640000202F
:105890002DE9F0414F1E00EBC7010446D1E900019C
:1058A00015461E4637F006020DD02A463346FFF74E
:1058B0007BFD7F1E04EBC703D3E90023FFF7CEFC7B
:1058C00037F00602F1D1022F25D0042F13D0062F76
:1058D00018BFBDE8F0812A463346FFF765FDD4E9DD
:1058E0000A23FFF7BBFC2A463346FFF75DFDD4E9E8
:1058F0000823FFF7B3FC2A463346FFF755FDD4E9EA
:105900000623FFF7ABFC2A463346FFF74DFDD4E9EB
:105910000423FFF7A3FC2A463346FFF745FDD4E9ED
:105920000223FFF79BFC2A463346FFF73DFDD4E9EF
:105930000023BDE8F041FFF791BC02E008C8121F48
:1059400008C1002AFAD170477047002001E001C168
:10595000121F002AFBD17047014908607047000000
:10596000680000202DE9F04104460F461646002548
:1059700003E03946B0476D1C641C20780028F8D13C
:105980002846BDE8F08100002DE9F04DCB4B002406
:1059900092B0994205DA21F000429A4201D807D12B
:1059A00030B112B04FF00102BDE8F04DFFF71EBF5D
:1059B000B1F5801F20DA02430DD0002917DA01204B
:1059C000FFF7CAFF12B00022BDE8F04D13461046A3
:1059D0001146FFF759BD0220FFF7BEFF12B00022AB
:1059E000BDE8F04D13461046B549FFF74DBD6FF0C9
:1059F00035043622FFF7FAFE04EB2152C1F31308F7
:105A0000B049A2F2FF33414401F4801282F07F6179
:105A100003EB225281F04051009241EA080100223A
:105A2000A94BFFF7BBFC044608F10200A74EC0F3E8
:105A300013000D467E44032867D2D6E90023204692
:105A4000FFF7DAFD1ED10098002802BFD6E9000159
:105A500012B0BDE8F08DFFF7E0FE04460D469C4A0B
:105A60009C4BFFF7A1FC06460F469B4A9B4B2046EA
:105A70002946FFF799FC12B032463B46BDE8F04D8F
:105A8000FFF7ECBB4FF05532954B20462946FFF708
:105A90008BFC0022934BFFF784FC07460E46224600
:105AA0002B4610461946FFF77FFC3A463346FFF770
:105AB0007BFC064600980F46F0B1FFF7AEFE80462D
:105AC0008A46834A834BFFF76FFC32463B46FFF71B
:105AD00068FC22462B46FFF761FC04460D467E4AD1
